{
  "contractName": "Crowdfund",
  "abi": [
    {
      "anonymous": false,
      "inputs": [
        {
          "indexed": true,
          "internalType": "uint256",
          "name": "_goalId",
          "type": "uint256"
        }
      ],
      "name": "goalCompleted",
      "type": "event"
    },
    {
      "anonymous": false,
      "inputs": [
        {
          "indexed": true,
          "internalType": "uint256",
          "name": "_goalId",
          "type": "uint256"
        }
      ],
      "name": "goalCreated",
      "type": "event"
    },
    {
      "anonymous": false,
      "inputs": [
        {
          "indexed": true,
          "internalType": "address",
          "name": "_from",
          "type": "address"
        },
        {
          "indexed": true,
          "internalType": "uint256",
          "name": "_goalId",
          "type": "uint256"
        }
      ],
      "name": "goalFunded",
      "type": "event"
    },
    {
      "inputs": [
        {
          "internalType": "address",
          "name": "_owner",
          "type": "address"
        }
      ],
      "name": "createAccount",
      "outputs": [],
      "stateMutability": "nonpayable",
      "type": "function"
    },
    {
      "inputs": [
        {
          "internalType": "address",
          "name": "_owner",
          "type": "address"
        },
        {
          "internalType": "string",
          "name": "_userName",
          "type": "string"
        }
      ],
      "name": "updateAccount",
      "outputs": [],
      "stateMutability": "nonpayable",
      "type": "function"
    },
    {
      "inputs": [
        {
          "internalType": "address",
          "name": "_owner",
          "type": "address"
        }
      ],
      "name": "retrieveAccount",
      "outputs": [
        {
          "internalType": "address",
          "name": "",
          "type": "address"
        },
        {
          "internalType": "string",
          "name": "",
          "type": "string"
        },
        {
          "internalType": "string",
          "name": "",
          "type": "string"
        },
        {
          "internalType": "uint256",
          "name": "",
          "type": "uint256"
        },
        {
          "internalType": "uint256",
          "name": "",
          "type": "uint256"
        }
      ],
      "stateMutability": "view",
      "type": "function"
    },
    {
      "inputs": [
        {
          "internalType": "address",
          "name": "_owner",
          "type": "address"
        },
        {
          "internalType": "uint256",
          "name": "_maxAmount",
          "type": "uint256"
        },
        {
          "internalType": "uint256",
          "name": "_deadline",
          "type": "uint256"
        },
        {
          "internalType": "string",
          "name": "_title",
          "type": "string"
        },
        {
          "internalType": "string",
          "name": "_description",
          "type": "string"
        },
        {
          "internalType": "string",
          "name": "_details",
          "type": "string"
        },
        {
          "internalType": "string",
          "name": "_picture",
          "type": "string"
        }
      ],
      "name": "createGoal",
      "outputs": [],
      "stateMutability": "nonpayable",
      "type": "function"
    },
    {
      "inputs": [
        {
          "internalType": "uint256",
          "name": "_goalId",
          "type": "uint256"
        }
      ],
      "name": "retrieveGoal",
      "outputs": [
        {
          "internalType": "uint256",
          "name": "",
          "type": "uint256"
        },
        {
          "internalType": "address",
          "name": "",
          "type": "address"
        },
        {
          "internalType": "string",
          "name": "",
          "type": "string"
        },
        {
          "internalType": "string",
          "name": "",
          "type": "string"
        },
        {
          "internalType": "string",
          "name": "",
          "type": "string"
        },
        {
          "internalType": "string",
          "name": "",
          "type": "string"
        },
        {
          "internalType": "uint256",
          "name": "",
          "type": "uint256"
        },
        {
          "internalType": "uint256",
          "name": "",
          "type": "uint256"
        },
        {
          "internalType": "uint256",
          "name": "",
          "type": "uint256"
        },
        {
          "internalType": "uint256",
          "name": "",
          "type": "uint256"
        },
        {
          "internalType": "bool",
          "name": "",
          "type": "bool"
        }
      ],
      "stateMutability": "view",
      "type": "function"
    },
    {
      "inputs": [
        {
          "internalType": "address",
          "name": "_owner",
          "type": "address"
        }
      ],
      "name": "retrieveGoalCount",
      "outputs": [
        {
          "internalType": "uint256",
          "name": "",
          "type": "uint256"
        }
      ],
      "stateMutability": "view",
      "type": "function"
    },
    {
      "inputs": [
        {
          "internalType": "uint256",
          "name": "_goalId",
          "type": "uint256"
        }
      ],
      "name": "fundGoal",
      "outputs": [],
      "stateMutability": "payable",
      "type": "function"
    },
    {
      "inputs": [
        {
          "internalType": "uint256",
          "name": "_goalId",
          "type": "uint256"
        }
      ],
      "name": "sendFunds",
      "outputs": [],
      "stateMutability": "payable",
      "type": "function"
    },
    {
      "inputs": [
        {
          "internalType": "uint256",
          "name": "_goalId",
          "type": "uint256"
        }
      ],
      "name": "refundFunders",
      "outputs": [],
      "stateMutability": "payable",
      "type": "function"
    }
  ],
  "bytecode": "0x60806040526000600455600060055534801561001a57600080fd5b50612d178061002a6000396000f3fe6080604052600436106100865760003560e01c80637cd59fdb116100595780637cd59fdb146101405780638b2810181461017d5780639859387b14610199578063b945606c146101c2578063c027fccd1461020357610086565b8063338dfdab1461008b5780634aab2bdd146100b457806367fa121a146100d05780637b09e3ca146100f9575b600080fd5b34801561009757600080fd5b506100b260048036038101906100ad9190612132565b61021f565b005b6100ce60048036038101906100c99190612244565b6105d5565b005b3480156100dc57600080fd5b506100f760048036038101906100f29190612271565b61084e565b005b34801561010557600080fd5b50610120600480360381019061011b9190612244565b610938565b6040516101379b9a9998979695949392919061238e565b60405180910390f35b34801561014c57600080fd5b5061016760048036038101906101629190612455565b610dcc565b6040516101749190612482565b60405180910390f35b61019760048036038101906101929190612244565b610e1a565b005b3480156101a557600080fd5b506101c060048036038101906101bb9190612455565b610f61565b005b3480156101ce57600080fd5b506101e960048036038101906101e49190612455565b6111ac565b6040516101fa95949392919061249d565b60405180910390f35b61021d60048036038101906102189190612244565b61151f565b005b86600115156000808373ffffffffffffffffffffffffffffffffffffffff1673ffffffffffffffffffffffffffffffffffffffff16815260200190815260200160002060070160009054906101000a900460ff161515146102b5576040517f08c379a00000000000000000000000000000000000000000000000000000000081526004016102ac9061254a565b60405180910390fd5b6102bd611d71565b600454816000018181525050888160a0019073ffffffffffffffffffffffffffffffffffffffff16908173ffffffffffffffffffffffffffffffffffffffff16815250508781602001818152505060008160400181815250504281606001818152505086816080018181525050858160c00181905250848160e00181905250838161010001819052508281610120018190525060018161014001901515908115158152505060018161016001901515908115158152505080600160006004548152602001908152602001600020600082015181600001556020820151816001015560408201518160020155606082015181600301556080820151816004015560a08201518160050160006101000a81548173ffffffffffffffffffffffffffffffffffffffff021916908373ffffffffffffffffffffffffffffffffffffffff16021790555060c08201518160060190816104189190612776565b5060e082015181600701908161042e9190612776565b506101008201518160080190816104459190612776565b5061012082015181600901908161045c9190612776565b5061014082015181600a0160006101000a81548160ff02191690831515021790555061016082015181600a0160016101000a81548160ff02191690831515021790555061018082015181600b0190805190602001906104bc929190611df3565b509050506000808a73ffffffffffffffffffffffffffffffffffffffff1673ffffffffffffffffffffffffffffffffffffffff16815260200190815260200160002060050160045490806001815401808255809150506001900390600052602060002001600090919091909150556000808a73ffffffffffffffffffffffffffffffffffffffff1673ffffffffffffffffffffffffffffffffffffffff168152602001908152602001600020600401600081548092919061057c90612877565b91905055506004600081548092919061059490612877565b919050555080600001517f77c189eb2314929aca9008b18ba4ceaab74dc71e29973493befaf3afc76afd7360405160405180910390a2505050505050505050565b6105de8161191f565b80156105f057506105ee81611951565b155b801561065d57506001600082815260200190815260200160002060050160009054906101000a900473ffffffffffffffffffffffffffffffffffffffff1673ffffffffffffffffffffffffffffffffffffffff163373ffffffffffffffffffffffffffffffffffffffff16145b61069c576040517f08c379a00000000000000000000000000000000000000000000000000000000081526004016106939061290b565b60405180910390fd5b600060016000838152602001908152602001600020600b0180548060200260200160405190810160405280929190818152602001828054801561073457602002820191906000526020600020905b8160009054906101000a900473ffffffffffffffffffffffffffffffffffffffff1673ffffffffffffffffffffffffffffffffffffffff16815260200190600101908083116106ea575b50505050509050600060016000848152602001908152602001600020600b0180549050905060005b818110156108485760008382815181106107795761077861292b565b5b602002602001015190508073ffffffffffffffffffffffffffffffffffffffff166108fc6002600088815260200190815260200160002060008786815181106107c5576107c461292b565b5b602002602001015173ffffffffffffffffffffffffffffffffffffffff1673ffffffffffffffffffffffffffffffffffffffff168152602001908152602001600020549081150290604051600060405180830381858888f19350505050158015610833573d6000803e3d6000fd5b5050808061084090612877565b91505061075c565b50505050565b81600115156000808373ffffffffffffffffffffffffffffffffffffffff1673ffffffffffffffffffffffffffffffffffffffff16815260200190815260200160002060070160009054906101000a900460ff161515146108e4576040517f08c379a00000000000000000000000000000000000000000000000000000000081526004016108db9061254a565b60405180910390fd5b816000808573ffffffffffffffffffffffffffffffffffffffff1673ffffffffffffffffffffffffffffffffffffffff16815260200190815260200160002060010190816109329190612776565b50505050565b60008060608060608060008060008060008b6001151560016000838152602001908152602001600020600a0160019054906101000a900460ff161515146109b4576040517f08c379a00000000000000000000000000000000000000000000000000000000081526004016109ab906129a6565b60405180910390fd5b6000600160008f8152602001908152602001600020604051806101a001604052908160008201548152602001600182015481526020016002820154815260200160038201548152602001600482015481526020016005820160009054906101000a900473ffffffffffffffffffffffffffffffffffffffff1673ffffffffffffffffffffffffffffffffffffffff1673ffffffffffffffffffffffffffffffffffffffff168152602001600682018054610a6d90612599565b80601f0160208091040260200160405190810160405280929190818152602001828054610a9990612599565b8015610ae65780601f10610abb57610100808354040283529160200191610ae6565b820191906000526020600020905b815481529060010190602001808311610ac957829003601f168201915b50505050508152602001600782018054610aff90612599565b80601f0160208091040260200160405190810160405280929190818152602001828054610b2b90612599565b8015610b785780601f10610b4d57610100808354040283529160200191610b78565b820191906000526020600020905b815481529060010190602001808311610b5b57829003601f168201915b50505050508152602001600882018054610b9190612599565b80601f0160208091040260200160405190810160405280929190818152602001828054610bbd90612599565b8015610c0a5780601f10610bdf57610100808354040283529160200191610c0a565b820191906000526020600020905b815481529060010190602001808311610bed57829003601f168201915b50505050508152602001600982018054610c2390612599565b80601f0160208091040260200160405190810160405280929190818152602001828054610c4f90612599565b8015610c9c5780601f10610c7157610100808354040283529160200191610c9c565b820191906000526020600020905b815481529060010190602001808311610c7f57829003601f168201915b50505050508152602001600a820160009054906101000a900460ff16151515158152602001600a820160019054906101000a900460ff16151515158152602001600b8201805480602002602001604051908101604052809291908181526020018280548015610d6057602002820191906000526020600020905b8160009054906101000a900473ffffffffffffffffffffffffffffffffffffffff1673ffffffffffffffffffffffffffffffffffffffff1681526020019060010190808311610d16575b505050505081525050905080600001518160a001518260c001518360e0015184610100015185610120015186606001518760800151886020015189604001518a61014001519c509c509c509c509c509c509c509c509c509c509c50505091939597999b90929496989a50565b60008060008373ffffffffffffffffffffffffffffffffffffffff1673ffffffffffffffffffffffffffffffffffffffff168152602001908152602001600020600501805490509050919050565b600160008281526020019081526020016000206001015460016000838152602001908152602001600020600201541015610e89576040517f08c379a0000000000000000000000000000000000000000000000000000000008152600401610e8090612a38565b60405180910390fd5b60006001600083815260200190815260200160002060050160009054906101000a900473ffffffffffffffffffffffffffffffffffffffff16905060008190508073ffffffffffffffffffffffffffffffffffffffff166108fc60016000868152602001908152602001600020600201549081150290604051600060405180830381858888f19350505050158015610f25573d6000803e3d6000fd5b50610f2f83611999565b827f0ee55c7e3cf874fa843ec5c1223737604860eb7fbea67ad58a6ba9d4f866498560405160405180910390a2505050565b600015156000808373ffffffffffffffffffffffffffffffffffffffff1673ffffffffffffffffffffffffffffffffffffffff16815260200190815260200160002060070160009054906101000a900460ff16151514610ff6576040517f08c379a0000000000000000000000000000000000000000000000000000000008152600401610fed90612aa4565b60405180910390fd5b610ffe611e7d565b81816000019073ffffffffffffffffffffffffffffffffffffffff16908173ffffffffffffffffffffffffffffffffffffffff16815250506110578273ffffffffffffffffffffffffffffffffffffffff166014611a58565b816020018190525042816060018181525050600081608001818152505060018160e0019015159081151581525050806000808473ffffffffffffffffffffffffffffffffffffffff1673ffffffffffffffffffffffffffffffffffffffff16815260200190815260200160002060008201518160000160006101000a81548173ffffffffffffffffffffffffffffffffffffffff021916908373ffffffffffffffffffffffffffffffffffffffff16021790555060208201518160010190816111209190612776565b5060408201518160020190816111369190612776565b50606082015181600301556080820151816004015560a0820151816005019080519060200190611167929190611eda565b5060c0820151816006019080519060200190611184929190611eda565b5060e08201518160070160006101000a81548160ff0219169083151502179055509050505050565b600060608060008085600115156000808373ffffffffffffffffffffffffffffffffffffffff1673ffffffffffffffffffffffffffffffffffffffff16815260200190815260200160002060070160009054906101000a900460ff1615151461124a576040517f08c379a00000000000000000000000000000000000000000000000000000000081526004016112419061254a565b60405180910390fd5b60008060008973ffffffffffffffffffffffffffffffffffffffff1673ffffffffffffffffffffffffffffffffffffffff168152602001908152602001600020604051806101000160405290816000820160009054906101000a900473ffffffffffffffffffffffffffffffffffffffff1673ffffffffffffffffffffffffffffffffffffffff1673ffffffffffffffffffffffffffffffffffffffff1681526020016001820180546112fc90612599565b80601f016020809104026020016040519081016040528092919081815260200182805461132890612599565b80156113755780601f1061134a57610100808354040283529160200191611375565b820191906000526020600020905b81548152906001019060200180831161135857829003601f168201915b5050505050815260200160028201805461138e90612599565b80601f01602080910402602001604051908101604052809291908181526020018280546113ba90612599565b80156114075780601f106113dc57610100808354040283529160200191611407565b820191906000526020600020905b8154815290600101906020018083116113ea57829003601f168201915b5050505050815260200160038201548152602001600482015481526020016005820180548060200260200160405190810160405280929190818152602001828054801561147357602002820191906000526020600020905b81548152602001906001019080831161145f575b50505050508152602001600682018054806020026020016040519081016040528092919081815260200182805480156114cb57602002820191906000526020600020905b8154815260200190600101908083116114b7575b505050505081526020016007820160009054906101000a900460ff16151515158152505090508060000151816020015182604001518360600151846080015196509650965096509650505091939590929450565b33600115156000808373ffffffffffffffffffffffffffffffffffffffff1673ffffffffffffffffffffffffffffffffffffffff16815260200190815260200160002060070160009054906101000a900460ff161515146115b5576040517f08c379a00000000000000000000000000000000000000000000000000000000081526004016115ac9061254a565b60405180910390fd5b816001151560016000838152602001908152602001600020600a0160019054906101000a900460ff16151514611620576040517f08c379a0000000000000000000000000000000000000000000000000000000008152600401611617906129a6565b60405180910390fd5b826001151560016000838152602001908152602001600020600a0160009054906101000a900460ff1615151461168b576040517f08c379a000000000000000000000000000000000000000000000000000000000815260040161168290612b10565b60405180910390fd5b6001600085815260200190815260200160002060050160009054906101000a900473ffffffffffffffffffffffffffffffffffffffff168073ffffffffffffffffffffffffffffffffffffffff163373ffffffffffffffffffffffffffffffffffffffff1603611730576040517f08c379a000000000000000000000000000000000000000000000000000000000815260040161172790612b7c565b60405180910390fd5b346001600087815260200190815260200160002060020160008282546117569190612b9c565b925050819055506117673386611c94565b156117e45760016000868152602001908152602001600020600b01339080600181540180825580915050600190039060005260206000200160009091909190916101000a81548173ffffffffffffffffffffffffffffffffffffffff021916908373ffffffffffffffffffffffffffffffffffffffff1602179055505b346002600087815260200190815260200160002060003373ffffffffffffffffffffffffffffffffffffffff1673ffffffffffffffffffffffffffffffffffffffff16815260200190815260200160002060008282546118449190612b9c565b925050819055506000803373ffffffffffffffffffffffffffffffffffffffff1673ffffffffffffffffffffffffffffffffffffffff168152602001908152602001600020600601859080600181540180825580915050600190039060005260206000200160009091909190915055843373ffffffffffffffffffffffffffffffffffffffff167f7cf2ffe49fdb179cd4e64bb1a62d5e642d749684c0de5c2cae4a877d8a4aede760405160405180910390a361190085611951565b156119185761190e85611999565b61191785610e1a565b5b5050505050565b600080600090506001600084815260200190815260200160002060040154421061194857600190505b80915050919050565b60008060009050600160008481526020019081526020016000206001015460016000858152602001908152602001600020600201541061199057600190505b80915050919050565b600060016000838152602001908152602001600020600a0160006101000a81548160ff0219169083151502179055506000806001600084815260200190815260200160002060050160009054906101000a900473ffffffffffffffffffffffffffffffffffffffff1673ffffffffffffffffffffffffffffffffffffffff1673ffffffffffffffffffffffffffffffffffffffff1681526020019081526020016000206004016000815480929190611a5090612bf2565b919050555050565b606060006002836002611a6b9190612c1b565b611a759190612b9c565b67ffffffffffffffff811115611a8e57611a8d612007565b5b6040519080825280601f01601f191660200182016040528015611ac05781602001600182028036833780820191505090505b5090507f300000000000000000000000000000000000000000000000000000000000000081600081518110611af857611af761292b565b5b60200101907effffffffffffffffffffffffffffffffffffffffffffffffffffffffffffff1916908160001a9053507f780000000000000000000000000000000000000000000000000000000000000081600181518110611b5c57611b5b61292b565b5b60200101907effffffffffffffffffffffffffffffffffffffffffffffffffffffffffffff1916908160001a90535060006001846002611b9c9190612c1b565b611ba69190612b9c565b90505b6001811115611c46577f3031323334353637383961626364656600000000000000000000000000000000600f861660108110611be857611be761292b565b5b1a60f81b828281518110611bff57611bfe61292b565b5b60200101907effffffffffffffffffffffffffffffffffffffffffffffffffffffffffffff1916908160001a905350600485901c945080611c3f90612bf2565b9050611ba9565b5060008414611c8a576040517f08c379a0000000000000000000000000000000000000000000000000000000008152600401611c8190612cc1565b60405180910390fd5b8091505092915050565b60008060009050600060016000858152602001908152602001600020600b0180549050905060005b81811015611d65578573ffffffffffffffffffffffffffffffffffffffff1660016000878152602001908152602001600020600b018281548110611d0357611d0261292b565b5b9060005260206000200160009054906101000a900473ffffffffffffffffffffffffffffffffffffffff1673ffffffffffffffffffffffffffffffffffffffff1603611d525760019250611d65565b8080611d5d90612877565b915050611cbc565b50819250505092915050565b604051806101a001604052806000815260200160008152602001600081526020016000815260200160008152602001600073ffffffffffffffffffffffffffffffffffffffff16815260200160608152602001606081526020016060815260200160608152602001600015158152602001600015158152602001606081525090565b828054828255906000526020600020908101928215611e6c579160200282015b82811115611e6b5782518260006101000a81548173ffffffffffffffffffffffffffffffffffffffff021916908373ffffffffffffffffffffffffffffffffffffffff16021790555091602001919060010190611e13565b5b509050611e799190611f27565b5090565b604051806101000160405280600073ffffffffffffffffffffffffffffffffffffffff1681526020016060815260200160608152602001600081526020016000815260200160608152602001606081526020016000151581525090565b828054828255906000526020600020908101928215611f16579160200282015b82811115611f15578251825591602001919060010190611efa565b5b509050611f239190611f27565b5090565b5b80821115611f40576000816000905550600101611f28565b5090565b6000604051905090565b600080fd5b600080fd5b600073ffffffffffffffffffffffffffffffffffffffff82169050919050565b6000611f8382611f58565b9050919050565b611f9381611f78565b8114611f9e57600080fd5b50565b600081359050611fb081611f8a565b92915050565b6000819050919050565b611fc981611fb6565b8114611fd457600080fd5b50565b600081359050611fe681611fc0565b92915050565b600080fd5b600080fd5b6000601f19601f8301169050919050565b7f4e487b7100000000000000000000000000000000000000000000000000000000600052604160045260246000fd5b61203f82611ff6565b810181811067ffffffffffffffff8211171561205e5761205d612007565b5b80604052505050565b6000612071611f44565b905061207d8282612036565b919050565b600067ffffffffffffffff82111561209d5761209c612007565b5b6120a682611ff6565b9050602081019050919050565b82818337600083830152505050565b60006120d56120d084612082565b612067565b9050828152602081018484840111156120f1576120f0611ff1565b5b6120fc8482856120b3565b509392505050565b600082601f83011261211957612118611fec565b5b81356121298482602086016120c2565b91505092915050565b600080600080600080600060e0888a03121561215157612150611f4e565b5b600061215f8a828b01611fa1565b97505060206121708a828b01611fd7565b96505060406121818a828b01611fd7565b955050606088013567ffffffffffffffff8111156121a2576121a1611f53565b5b6121ae8a828b01612104565b945050608088013567ffffffffffffffff8111156121cf576121ce611f53565b5b6121db8a828b01612104565b93505060a088013567ffffffffffffffff8111156121fc576121fb611f53565b5b6122088a828b01612104565b92505060c088013567ffffffffffffffff81111561222957612228611f53565b5b6122358a828b01612104565b91505092959891949750929550565b60006020828403121561225a57612259611f4e565b5b600061226884828501611fd7565b91505092915050565b6000806040838503121561228857612287611f4e565b5b600061229685828601611fa1565b925050602083013567ffffffffffffffff8111156122b7576122b6611f53565b5b6122c385828601612104565b9150509250929050565b6122d681611fb6565b82525050565b6122e581611f78565b82525050565b600081519050919050565b600082825260208201905092915050565b60005b8381101561232557808201518184015260208101905061230a565b83811115612334576000848401525b50505050565b6000612345826122eb565b61234f81856122f6565b935061235f818560208601612307565b61236881611ff6565b840191505092915050565b60008115159050919050565b61238881612373565b82525050565b6000610160820190506123a4600083018e6122cd565b6123b1602083018d6122dc565b81810360408301526123c3818c61233a565b905081810360608301526123d7818b61233a565b905081810360808301526123eb818a61233a565b905081810360a08301526123ff818961233a565b905061240e60c08301886122cd565b61241b60e08301876122cd565b6124296101008301866122cd565b6124376101208301856122cd565b61244561014083018461237f565b9c9b505050505050505050505050565b60006020828403121561246b5761246a611f4e565b5b600061247984828501611fa1565b91505092915050565b600060208201905061249760008301846122cd565b92915050565b600060a0820190506124b260008301886122dc565b81810360208301526124c4818761233a565b905081810360408301526124d8818661233a565b90506124e760608301856122cd565b6124f460808301846122cd565b9695505050505050565b7f4163636f756e7420646f65736e27742065786973740000000000000000000000600082015250565b60006125346015836122f6565b915061253f826124fe565b602082019050919050565b6000602082019050818103600083015261256381612527565b9050919050565b7f4e487b7100000000000000000000000000000000000000000000000000000000600052602260045260246000fd5b600060028204905060018216806125b157607f821691505b6020821081036125c4576125c361256a565b5b50919050565b60008190508160005260206000209050919050565b60006020601f8301049050919050565b600082821b905092915050565b60006008830261262c7fffffffffffffffffffffffffffffffffffffffffffffffffffffffffffffffff826125ef565b61263686836125ef565b95508019841693508086168417925050509392505050565b6000819050919050565b600061267361266e61266984611fb6565b61264e565b611fb6565b9050919050565b6000819050919050565b61268d83612658565b6126a16126998261267a565b8484546125fc565b825550505050565b600090565b6126b66126a9565b6126c1818484612684565b505050565b5b818110156126e5576126da6000826126ae565b6001810190506126c7565b5050565b601f82111561272a576126fb816125ca565b612704846125df565b81016020851015612713578190505b61272761271f856125df565b8301826126c6565b50505b505050565b600082821c905092915050565b600061274d6000198460080261272f565b1980831691505092915050565b6000612766838361273c565b9150826002028217905092915050565b61277f826122eb565b67ffffffffffffffff81111561279857612797612007565b5b6127a28254612599565b6127ad8282856126e9565b600060209050601f8311600181146127e057600084156127ce578287015190505b6127d8858261275a565b865550612840565b601f1984166127ee866125ca565b60005b82811015612816578489015182556001820191506020850194506020810190506127f1565b86831015612833578489015161282f601f89168261273c565b8355505b6001600288020188555050505b505050505050565b7f4e487b7100000000000000000000000000000000000000000000000000000000600052601160045260246000fd5b600061288282611fb6565b91507fffffffffffffffffffffffffffffffffffffffffffffffffffffffffffffffff82036128b4576128b3612848565b5b600182019050919050565b7f446561646c696e65206861736e2774206265656e207265616368656420796574600082015250565b60006128f56020836122f6565b9150612900826128bf565b602082019050919050565b60006020820190508181036000830152612924816128e8565b9050919050565b7f4e487b7100000000000000000000000000000000000000000000000000000000600052603260045260246000fd5b7f476f616c20646f65736e27742065786973740000000000000000000000000000600082015250565b60006129906012836122f6565b915061299b8261295a565b602082019050919050565b600060208201905081810360008301526129bf81612983565b9050919050565b7f46756e64732063616e206f6e6c792062652073656e74206f6e636520676f616c60008201527f20686173206265656e2072656163686564000000000000000000000000000000602082015250565b6000612a226031836122f6565b9150612a2d826129c6565b604082019050919050565b60006020820190508181036000830152612a5181612a15565b9050919050565b7f4163636f756e7420616c72656164792065786973747300000000000000000000600082015250565b6000612a8e6016836122f6565b9150612a9982612a58565b602082019050919050565b60006020820190508181036000830152612abd81612a81565b9050919050565b7f476f616c206973206e6f206c6f6e676572206163746976650000000000000000600082015250565b6000612afa6018836122f6565b9150612b0582612ac4565b602082019050919050565b60006020820190508181036000830152612b2981612aed565b9050919050565b7f596f752063616e27742066756e6420796f7572206f776e20676f616c00000000600082015250565b6000612b66601c836122f6565b9150612b7182612b30565b602082019050919050565b60006020820190508181036000830152612b9581612b59565b9050919050565b6000612ba782611fb6565b9150612bb283611fb6565b9250827fffffffffffffffffffffffffffffffffffffffffffffffffffffffffffffffff03821115612be757612be6612848565b5b828201905092915050565b6000612bfd82611fb6565b915060008203612c1057612c0f612848565b5b600182039050919050565b6000612c2682611fb6565b9150612c3183611fb6565b9250817fffffffffffffffffffffffffffffffffffffffffffffffffffffffffffffffff0483118215151615612c6a57612c69612848565b5b828202905092915050565b7f537472696e67733a20686578206c656e67746820696e73756666696369656e74600082015250565b6000612cab6020836122f6565b9150612cb682612c75565b602082019050919050565b60006020820190508181036000830152612cda81612c9e565b905091905056fea2646970667358221220f2f7bc2b146d57d8fd8a7038147c85d6ae40cf9705e035caf779ab71af0ef2f664736f6c634300080f0033",
  "immutableReferences": {},
  "source": "pragma solidity >=0.4.22 <0.9.0;\r\n\r\nimport \"@openzeppelin/contracts/utils/Strings.sol\";\r\n\r\ncontract Crowdfund {\r\n    using Strings for string;\r\n\r\n    event goalFunded(address indexed _from, uint256 indexed _goalId);\r\n    event goalCompleted(uint256 indexed _goalId);\r\n    event goalCreated(uint256 indexed _goalId);\r\n\r\n    struct Goal {\r\n        uint256 id;\r\n        uint256 maxAmount;\r\n        uint256 currentAmount;\r\n        uint256 createdAt;\r\n        uint256 deadline;\r\n        address owner;\r\n        string title;\r\n        string description;\r\n        string details;\r\n        string picture;\r\n        bool isActive;\r\n        bool exists;\r\n        address[] funderAddresses;\r\n    }\r\n\r\n    struct Funder {\r\n        address accountId;\r\n        uint256 contribution;\r\n    }\r\n\r\n    struct User {\r\n        address id;\r\n        string username;\r\n        string picture;\r\n        uint256 createdAt;\r\n        uint256 activeGoalCount;\r\n        uint256[] goals;\r\n        uint256[] goalsHelped;\r\n        bool exists;\r\n    }\r\n\r\n    struct Message {\r\n        uint256 id;\r\n        uint256 dateCreated;\r\n        address from;\r\n        address to;\r\n        string goal;\r\n        string content;\r\n    }\r\n\r\n    mapping(address => User) accounts;\r\n    mapping(uint256 => Goal) goals;\r\n    // mapping(uint256 => Funder[]) goalFunders;\r\n    mapping(uint256 => mapping(address => uint256)) goalFunders;\r\n    mapping(uint256 => Message) messages;\r\n\r\n    uint256 goalNumber = 0;\r\n    uint256 messageNumber = 0;\r\n\r\n    modifier accountExists(address _owner) {\r\n        require(accounts[_owner].exists == true, \"Account doesn't exist\");\r\n        _;\r\n    }\r\n\r\n    modifier notOwner(address _owner) {\r\n        require(msg.sender != _owner, \"You can't fund your own goal\");\r\n        _;\r\n    }\r\n\r\n    modifier goalExists(uint256 _goalId) {\r\n        require(goals[_goalId].exists == true, \"Goal doesn't exist\");\r\n        _;\r\n    }\r\n\r\n    modifier goalIsActive(uint256 _goalId) {\r\n        require(goals[_goalId].isActive == true, \"Goal is no longer active\");\r\n        _;\r\n    }\r\n\r\n    function createAccount(address _owner) external {\r\n        require(accounts[_owner].exists == false, \"Account already exists\");\r\n        User memory newUser;\r\n        newUser.id = _owner;\r\n        newUser.username = Strings.toHexString(uint256(uint160(_owner)), 20);\r\n        newUser.createdAt = block.timestamp;\r\n        newUser.activeGoalCount = 0;\r\n        newUser.exists = true;\r\n\r\n        accounts[_owner] = newUser;\r\n    }\r\n\r\n    function updateAccount(address _owner, string memory _userName)\r\n        external\r\n        accountExists(_owner)\r\n    {\r\n        accounts[_owner].username = _userName;\r\n    }\r\n\r\n    function retrieveAccount(address _owner)\r\n        external\r\n        view\r\n        accountExists(_owner)\r\n        returns (\r\n            address,\r\n            string memory,\r\n            string memory,\r\n            uint256,\r\n            uint256\r\n        )\r\n    {\r\n        User memory user = accounts[_owner];\r\n\r\n        return (\r\n            user.id,\r\n            user.username,\r\n            user.picture,\r\n            user.createdAt,\r\n            user.activeGoalCount\r\n        );\r\n    }\r\n\r\n    function createGoal(\r\n        address _owner,\r\n        uint256 _maxAmount,\r\n        uint256 _deadline,\r\n        string memory _title,\r\n        string memory _description,\r\n        string memory _details,\r\n        string memory _picture\r\n    ) external accountExists(_owner) {\r\n        Goal memory newGoal;\r\n        newGoal.id = goalNumber;\r\n        newGoal.owner = _owner;\r\n        newGoal.maxAmount = _maxAmount;\r\n        newGoal.currentAmount = 0;\r\n        newGoal.createdAt = block.timestamp;\r\n        newGoal.deadline = _deadline;\r\n        newGoal.title = _title;\r\n        newGoal.description = _description;\r\n        newGoal.details = _details;\r\n        newGoal.picture = _picture;\r\n        newGoal.isActive = true;\r\n        newGoal.exists = true;\r\n\r\n        goals[goalNumber] = newGoal;\r\n        accounts[_owner].goals.push(goalNumber);\r\n        accounts[_owner].activeGoalCount++;\r\n        goalNumber++;\r\n\r\n        emit goalCreated(newGoal.id);\r\n    }\r\n\r\n    function retrieveGoal(uint256 _goalId)\r\n        public\r\n        view\r\n        goalExists(_goalId)\r\n        returns (\r\n            uint256,\r\n            address,\r\n            string memory,\r\n            string memory,\r\n            string memory,\r\n            string memory,\r\n            uint256,\r\n            uint256,\r\n            uint256,\r\n            uint256,\r\n            bool\r\n        )\r\n    {\r\n        Goal memory goal = goals[_goalId];\r\n\r\n        return (\r\n            goal.id,\r\n            goal.owner,\r\n            goal.title,\r\n            goal.description,\r\n            goal.details,\r\n            goal.picture,\r\n            goal.createdAt,\r\n            goal.deadline,\r\n            goal.maxAmount,\r\n            goal.currentAmount,\r\n            goal.isActive\r\n        );\r\n    }\r\n\r\n    function retrieveGoalCount(address _owner) external view returns (uint256) {\r\n        return accounts[_owner].goals.length;\r\n    }\r\n\r\n    function fundGoal(uint256 _goalId)\r\n        external\r\n        payable\r\n        accountExists(msg.sender)\r\n        goalExists(_goalId)\r\n        goalIsActive(_goalId)\r\n        notOwner(goals[_goalId].owner)\r\n    {\r\n        goals[_goalId].currentAmount += msg.value;\r\n        if (isRecurringFunder(msg.sender, _goalId)) {\r\n            goals[_goalId].funderAddresses.push(msg.sender);\r\n        }\r\n\r\n        goalFunders[_goalId][msg.sender] += msg.value;\r\n\r\n        accounts[msg.sender].goalsHelped.push(_goalId);\r\n\r\n        emit goalFunded(msg.sender, _goalId);\r\n\r\n        if (isFundCompleted(_goalId)) {\r\n            deactivateGoal(_goalId);\r\n            sendFunds(_goalId);\r\n        }\r\n    }\r\n\r\n    function sendFunds(uint256 _goalId) public payable {\r\n        require(\r\n            goals[_goalId].currentAmount >= goals[_goalId].maxAmount,\r\n            \"Funds can only be sent once goal has been reached\"\r\n        );\r\n        address _owner = goals[_goalId].owner;\r\n        address payable _account = payable(_owner);\r\n        _account.transfer(goals[_goalId].currentAmount);\r\n        deactivateGoal(_goalId);\r\n        emit goalCompleted(_goalId);\r\n    }\r\n\r\n    function refundFunders(uint256 _goalId) public payable {\r\n        require(\r\n            isDeadlineReached(_goalId) &&\r\n                !isFundCompleted(_goalId) &&\r\n                msg.sender == goals[_goalId].owner,\r\n            \"Deadline hasn't been reached yet\"\r\n        );\r\n        address[] memory funderAddresses = goals[_goalId].funderAddresses;\r\n        uint256 fundersCount = goals[_goalId].funderAddresses.length;\r\n        for (uint256 i = 0; i < fundersCount; i++) {\r\n            address payable _account = payable(funderAddresses[i]);\r\n            _account.transfer(goalFunders[_goalId][funderAddresses[i]]);\r\n        }\r\n    }\r\n\r\n    function deactivateGoal(uint256 _goalId) private {\r\n        goals[_goalId].isActive = false;\r\n        accounts[goals[_goalId].owner].activeGoalCount--;\r\n    }\r\n\r\n    function isDeadlineReached(uint256 _goalId) private view returns (bool) {\r\n        bool res = false;\r\n        if (block.timestamp >= goals[_goalId].deadline) {\r\n            res = true;\r\n        }\r\n\r\n        return res;\r\n    }\r\n\r\n    function isFundCompleted(uint256 _goalId) private view returns (bool) {\r\n        bool res = false;\r\n        if (goals[_goalId].currentAmount >= goals[_goalId].maxAmount) {\r\n            res = true;\r\n        }\r\n\r\n        return res;\r\n    }\r\n\r\n    function isRecurringFunder(address _funder, uint256 _goalId)\r\n        private\r\n        view\r\n        returns (bool)\r\n    {\r\n        bool res = false;\r\n        uint256 funderCount = goals[_goalId].funderAddresses.length;\r\n        for (uint256 i = 0; i < funderCount; i++) {\r\n            if (goals[_goalId].funderAddresses[i] == _funder) {\r\n                res = true;\r\n                break;\r\n            }\r\n        }\r\n        return res;\r\n    }\r\n\r\n    function checkIfValueExists(address _from, uint256 _goalId)\r\n        private\r\n        view\r\n        returns (bool)\r\n    {\r\n        bool res = false;\r\n        for (uint256 i = 0; i < accounts[_from].goalsHelped.length; i++) {\r\n            if (accounts[_from].goalsHelped[i] == _goalId) res = true;\r\n        }\r\n\r\n        return res;\r\n    }\r\n}\r\n",
  "sourcePath": "D:\\VSCode\\blockchain\\fundfinder\\contracts\\contracts\\Crowdfund.sol",
  "compiler": {
    "name": "solc",
    "version": "0.8.15+commit.e14f2714.Emscripten.clang"
  },
  "schemaVersion": "3.4.8",
  "updatedAt": "2022-08-12T15:59:24.030Z",
  "devdoc": {
    "kind": "dev",
    "methods": {},
    "version": 1
  },
  "userdoc": {
    "kind": "user",
    "methods": {},
    "version": 1
  }
}