{
  "contractName": "Crowdfund",
  "abi": [
    {
      "anonymous": false,
      "inputs": [
        {
          "indexed": false,
          "internalType": "string",
          "name": "_description",
          "type": "string"
        },
        {
          "indexed": false,
          "internalType": "bool",
          "name": "_bool",
          "type": "bool"
        }
      ],
      "name": "debugBool",
      "type": "event"
    },
    {
      "anonymous": false,
      "inputs": [
        {
          "indexed": false,
          "internalType": "string",
          "name": "_message",
          "type": "string"
        }
      ],
      "name": "debugMessage",
      "type": "event"
    },
    {
      "anonymous": false,
      "inputs": [
        {
          "indexed": false,
          "internalType": "string",
          "name": "_description",
          "type": "string"
        },
        {
          "indexed": false,
          "internalType": "uint256",
          "name": "_value",
          "type": "uint256"
        }
      ],
      "name": "debugValue",
      "type": "event"
    },
    {
      "anonymous": false,
      "inputs": [
        {
          "indexed": true,
          "internalType": "uint256",
          "name": "_goalId",
          "type": "uint256"
        }
      ],
      "name": "goalCompleted",
      "type": "event"
    },
    {
      "anonymous": false,
      "inputs": [
        {
          "indexed": true,
          "internalType": "uint256",
          "name": "_goalId",
          "type": "uint256"
        }
      ],
      "name": "goalCreated",
      "type": "event"
    },
    {
      "anonymous": false,
      "inputs": [
        {
          "indexed": true,
          "internalType": "address",
          "name": "_from",
          "type": "address"
        },
        {
          "indexed": true,
          "internalType": "uint256",
          "name": "_goalId",
          "type": "uint256"
        }
      ],
      "name": "goalFunded",
      "type": "event"
    },
    {
      "inputs": [
        {
          "internalType": "address",
          "name": "_owner",
          "type": "address"
        }
      ],
      "name": "createAccount",
      "outputs": [],
      "stateMutability": "nonpayable",
      "type": "function"
    },
    {
      "inputs": [
        {
          "internalType": "address",
          "name": "_owner",
          "type": "address"
        },
        {
          "internalType": "string",
          "name": "_userName",
          "type": "string"
        }
      ],
      "name": "updateAccount",
      "outputs": [],
      "stateMutability": "nonpayable",
      "type": "function"
    },
    {
      "inputs": [
        {
          "internalType": "address",
          "name": "_owner",
          "type": "address"
        }
      ],
      "name": "retrieveAccount",
      "outputs": [
        {
          "internalType": "address",
          "name": "",
          "type": "address"
        },
        {
          "internalType": "string",
          "name": "",
          "type": "string"
        },
        {
          "internalType": "string",
          "name": "",
          "type": "string"
        },
        {
          "internalType": "uint256",
          "name": "",
          "type": "uint256"
        },
        {
          "internalType": "uint256",
          "name": "",
          "type": "uint256"
        }
      ],
      "stateMutability": "view",
      "type": "function",
      "constant": true
    },
    {
      "inputs": [
        {
          "internalType": "address",
          "name": "_owner",
          "type": "address"
        },
        {
          "internalType": "uint256",
          "name": "_maxAmount",
          "type": "uint256"
        },
        {
          "internalType": "uint256",
          "name": "_deadline",
          "type": "uint256"
        },
        {
          "internalType": "string",
          "name": "_title",
          "type": "string"
        },
        {
          "internalType": "string",
          "name": "_description",
          "type": "string"
        },
        {
          "internalType": "string",
          "name": "_details",
          "type": "string"
        },
        {
          "internalType": "string",
          "name": "_picture",
          "type": "string"
        }
      ],
      "name": "createGoal",
      "outputs": [],
      "stateMutability": "nonpayable",
      "type": "function"
    },
    {
      "inputs": [
        {
          "internalType": "uint256",
          "name": "_goalId",
          "type": "uint256"
        }
      ],
      "name": "retrieveGoal",
      "outputs": [
        {
          "internalType": "uint256",
          "name": "",
          "type": "uint256"
        },
        {
          "internalType": "address",
          "name": "",
          "type": "address"
        },
        {
          "internalType": "string",
          "name": "",
          "type": "string"
        },
        {
          "internalType": "string",
          "name": "",
          "type": "string"
        },
        {
          "internalType": "string",
          "name": "",
          "type": "string"
        },
        {
          "internalType": "string",
          "name": "",
          "type": "string"
        },
        {
          "internalType": "uint256",
          "name": "",
          "type": "uint256"
        },
        {
          "internalType": "uint256",
          "name": "",
          "type": "uint256"
        },
        {
          "internalType": "uint256",
          "name": "",
          "type": "uint256"
        },
        {
          "internalType": "uint256",
          "name": "",
          "type": "uint256"
        },
        {
          "internalType": "bool",
          "name": "",
          "type": "bool"
        }
      ],
      "stateMutability": "view",
      "type": "function",
      "constant": true
    },
    {
      "inputs": [
        {
          "internalType": "address",
          "name": "_owner",
          "type": "address"
        }
      ],
      "name": "retrieveGoalCount",
      "outputs": [
        {
          "internalType": "uint256",
          "name": "",
          "type": "uint256"
        }
      ],
      "stateMutability": "view",
      "type": "function",
      "constant": true
    },
    {
      "inputs": [
        {
          "internalType": "uint256",
          "name": "_goalId",
          "type": "uint256"
        }
      ],
      "name": "fundGoal",
      "outputs": [],
      "stateMutability": "payable",
      "type": "function",
      "payable": true
    },
    {
      "inputs": [
        {
          "internalType": "uint256",
          "name": "_goalId",
          "type": "uint256"
        }
      ],
      "name": "sendFunds",
      "outputs": [],
      "stateMutability": "payable",
      "type": "function",
      "payable": true
    },
    {
      "inputs": [
        {
          "internalType": "uint256",
          "name": "_goalId",
          "type": "uint256"
        }
      ],
      "name": "refundFunders",
      "outputs": [],
      "stateMutability": "payable",
      "type": "function",
      "payable": true
    }
  ],
  "bytecode": "0x60806040526000600455600060055534801561001a57600080fd5b5061346f8061002a6000396000f3fe6080604052600436106100865760003560e01c80637cd59fdb116100595780637cd59fdb146101405780638b2810181461017d5780639859387b14610199578063b945606c146101c2578063c027fccd1461020357610086565b8063338dfdab1461008b5780634aab2bdd146100b457806367fa121a146100d05780637b09e3ca146100f9575b600080fd5b34801561009757600080fd5b506100b260048036038101906100ad9190612538565b61021f565b005b6100ce60048036038101906100c9919061264a565b610618565b005b3480156100dc57600080fd5b506100f760048036038101906100f29190612677565b610891565b005b34801561010557600080fd5b50610120600480360381019061011b919061264a565b61097b565b6040516101379b9a99989796959493929190612794565b60405180910390f35b34801561014c57600080fd5b506101676004803603810190610162919061285b565b610e0f565b6040516101749190612888565b60405180910390f35b6101976004803603810190610192919061264a565b610e5d565b005b3480156101a557600080fd5b506101c060048036038101906101bb919061285b565b610f9b565b005b3480156101ce57600080fd5b506101e960048036038101906101e4919061285b565b6111e6565b6040516101fa9594939291906128a3565b60405180910390f35b61021d6004803603810190610218919061264a565b611559565b005b86600115156000808373ffffffffffffffffffffffffffffffffffffffff1673ffffffffffffffffffffffffffffffffffffffff16815260200190815260200160002060070160009054906101000a900460ff161515146102b5576040517f08c379a00000000000000000000000000000000000000000000000000000000081526004016102ac90612950565b60405180910390fd5b6102bd612177565b600454816000018181525050888160a0019073ffffffffffffffffffffffffffffffffffffffff16908173ffffffffffffffffffffffffffffffffffffffff16815250508781602001818152505060008160400181815250504281606001818152505086816080018181525050858160c00181905250848160e00181905250838161010001819052508281610120018190525060018161014001901515908115158152505060018161016001901515908115158152505080600160006004548152602001908152602001600020600082015181600001556020820151816001015560408201518160020155606082015181600301556080820151816004015560a08201518160050160006101000a81548173ffffffffffffffffffffffffffffffffffffffff021916908373ffffffffffffffffffffffffffffffffffffffff16021790555060c08201518160060190816104189190612b7c565b5060e082015181600701908161042e9190612b7c565b506101008201518160080190816104459190612b7c565b5061012082015181600901908161045c9190612b7c565b5061014082015181600a0160006101000a81548160ff02191690831515021790555061016082015181600a0160016101000a81548160ff02191690831515021790555061018082015181600b0190805190602001906104bc9291906121f9565b509050506000808a73ffffffffffffffffffffffffffffffffffffffff1673ffffffffffffffffffffffffffffffffffffffff168152602001908152602001600020600501600454908060018154018082558091505060019003906000526020600020016000909190919091505561057f60016000808c73ffffffffffffffffffffffffffffffffffffffff1673ffffffffffffffffffffffffffffffffffffffff16815260200190815260200160002060040154611a3990919063ffffffff16565b6000808b73ffffffffffffffffffffffffffffffffffffffff1673ffffffffffffffffffffffffffffffffffffffff16815260200190815260200160002060040181905550600460008154809291906105d790612c7d565b919050555080600001517f77c189eb2314929aca9008b18ba4ceaab74dc71e29973493befaf3afc76afd7360405160405180910390a2505050505050505050565b61062181611a4f565b8015610633575061063181611a81565b155b80156106a057506001600082815260200190815260200160002060050160009054906101000a900473ffffffffffffffffffffffffffffffffffffffff1673ffffffffffffffffffffffffffffffffffffffff163373ffffffffffffffffffffffffffffffffffffffff16145b6106df576040517f08c379a00000000000000000000000000000000000000000000000000000000081526004016106d690612d11565b60405180910390fd5b600060016000838152602001908152602001600020600b0180548060200260200160405190810160405280929190818152602001828054801561077757602002820191906000526020600020905b8160009054906101000a900473ffffffffffffffffffffffffffffffffffffffff1673ffffffffffffffffffffffffffffffffffffffff168152602001906001019080831161072d575b50505050509050600060016000848152602001908152602001600020600b0180549050905060005b8181101561088b5760008382815181106107bc576107bb612d31565b5b602002602001015190508073ffffffffffffffffffffffffffffffffffffffff166108fc60026000888152602001908152602001600020600087868151811061080857610807612d31565b5b602002602001015173ffffffffffffffffffffffffffffffffffffffff1673ffffffffffffffffffffffffffffffffffffffff168152602001908152602001600020549081150290604051600060405180830381858888f19350505050158015610876573d6000803e3d6000fd5b5050808061088390612c7d565b91505061079f565b50505050565b81600115156000808373ffffffffffffffffffffffffffffffffffffffff1673ffffffffffffffffffffffffffffffffffffffff16815260200190815260200160002060070160009054906101000a900460ff16151514610927576040517f08c379a000000000000000000000000000000000000000000000000000000000815260040161091e90612950565b60405180910390fd5b816000808573ffffffffffffffffffffffffffffffffffffffff1673ffffffffffffffffffffffffffffffffffffffff16815260200190815260200160002060010190816109759190612b7c565b50505050565b60008060608060608060008060008060008b6001151560016000838152602001908152602001600020600a0160019054906101000a900460ff161515146109f7576040517f08c379a00000000000000000000000000000000000000000000000000000000081526004016109ee90612dac565b60405180910390fd5b6000600160008f8152602001908152602001600020604051806101a001604052908160008201548152602001600182015481526020016002820154815260200160038201548152602001600482015481526020016005820160009054906101000a900473ffffffffffffffffffffffffffffffffffffffff1673ffffffffffffffffffffffffffffffffffffffff1673ffffffffffffffffffffffffffffffffffffffff168152602001600682018054610ab09061299f565b80601f0160208091040260200160405190810160405280929190818152602001828054610adc9061299f565b8015610b295780601f10610afe57610100808354040283529160200191610b29565b820191906000526020600020905b815481529060010190602001808311610b0c57829003601f168201915b50505050508152602001600782018054610b429061299f565b80601f0160208091040260200160405190810160405280929190818152602001828054610b6e9061299f565b8015610bbb5780601f10610b9057610100808354040283529160200191610bbb565b820191906000526020600020905b815481529060010190602001808311610b9e57829003601f168201915b50505050508152602001600882018054610bd49061299f565b80601f0160208091040260200160405190810160405280929190818152602001828054610c009061299f565b8015610c4d5780601f10610c2257610100808354040283529160200191610c4d565b820191906000526020600020905b815481529060010190602001808311610c3057829003601f168201915b50505050508152602001600982018054610c669061299f565b80601f0160208091040260200160405190810160405280929190818152602001828054610c929061299f565b8015610cdf5780601f10610cb457610100808354040283529160200191610cdf565b820191906000526020600020905b815481529060010190602001808311610cc257829003601f168201915b50505050508152602001600a820160009054906101000a900460ff16151515158152602001600a820160019054906101000a900460ff16151515158152602001600b8201805480602002602001604051908101604052809291908181526020018280548015610da357602002820191906000526020600020905b8160009054906101000a900473ffffffffffffffffffffffffffffffffffffffff1673ffffffffffffffffffffffffffffffffffffffff1681526020019060010190808311610d59575b505050505081525050905080600001518160a001518260c001518360e0015184610100015185610120015186606001518760800151886020015189604001518a61014001519c509c509c509c509c509c509c509c509c509c509c50505091939597999b90929496989a50565b60008060008373ffffffffffffffffffffffffffffffffffffffff1673ffffffffffffffffffffffffffffffffffffffff168152602001908152602001600020600501805490509050919050565b600160008281526020019081526020016000206001015460016000838152602001908152602001600020600201541015610ecc576040517f08c379a0000000000000000000000000000000000000000000000000000000008152600401610ec390612e3e565b60405180910390fd5b60006001600083815260200190815260200160002060050160009054906101000a900473ffffffffffffffffffffffffffffffffffffffff16905060008190508073ffffffffffffffffffffffffffffffffffffffff166108fc60016000868152602001908152602001600020600201549081150290604051600060405180830381858888f19350505050158015610f68573d6000803e3d6000fd5b50827f0ee55c7e3cf874fa843ec5c1223737604860eb7fbea67ad58a6ba9d4f866498560405160405180910390a2505050565b600015156000808373ffffffffffffffffffffffffffffffffffffffff1673ffffffffffffffffffffffffffffffffffffffff16815260200190815260200160002060070160009054906101000a900460ff16151514611030576040517f08c379a000000000000000000000000000000000000000000000000000000000815260040161102790612eaa565b60405180910390fd5b611038612283565b81816000019073ffffffffffffffffffffffffffffffffffffffff16908173ffffffffffffffffffffffffffffffffffffffff16815250506110918273ffffffffffffffffffffffffffffffffffffffff166014611c33565b816020018190525042816060018181525050600081608001818152505060018160e0019015159081151581525050806000808473ffffffffffffffffffffffffffffffffffffffff1673ffffffffffffffffffffffffffffffffffffffff16815260200190815260200160002060008201518160000160006101000a81548173ffffffffffffffffffffffffffffffffffffffff021916908373ffffffffffffffffffffffffffffffffffffffff160217905550602082015181600101908161115a9190612b7c565b5060408201518160020190816111709190612b7c565b50606082015181600301556080820151816004015560a08201518160050190805190602001906111a19291906122e0565b5060c08201518160060190805190602001906111be9291906122e0565b5060e08201518160070160006101000a81548160ff0219169083151502179055509050505050565b600060608060008085600115156000808373ffffffffffffffffffffffffffffffffffffffff1673ffffffffffffffffffffffffffffffffffffffff16815260200190815260200160002060070160009054906101000a900460ff16151514611284576040517f08c379a000000000000000000000000000000000000000000000000000000000815260040161127b90612950565b60405180910390fd5b60008060008973ffffffffffffffffffffffffffffffffffffffff1673ffffffffffffffffffffffffffffffffffffffff168152602001908152602001600020604051806101000160405290816000820160009054906101000a900473ffffffffffffffffffffffffffffffffffffffff1673ffffffffffffffffffffffffffffffffffffffff1673ffffffffffffffffffffffffffffffffffffffff1681526020016001820180546113369061299f565b80601f01602080910402602001604051908101604052809291908181526020018280546113629061299f565b80156113af5780601f10611384576101008083540402835291602001916113af565b820191906000526020600020905b81548152906001019060200180831161139257829003601f168201915b505050505081526020016002820180546113c89061299f565b80601f01602080910402602001604051908101604052809291908181526020018280546113f49061299f565b80156114415780601f1061141657610100808354040283529160200191611441565b820191906000526020600020905b81548152906001019060200180831161142457829003601f168201915b505050505081526020016003820154815260200160048201548152602001600582018054806020026020016040519081016040528092919081815260200182805480156114ad57602002820191906000526020600020905b815481526020019060010190808311611499575b505050505081526020016006820180548060200260200160405190810160405280929190818152602001828054801561150557602002820191906000526020600020905b8154815260200190600101908083116114f1575b505050505081526020016007820160009054906101000a900460ff16151515158152505090508060000151816020015182604001518360600151846080015196509650965096509650505091939590929450565b33600115156000808373ffffffffffffffffffffffffffffffffffffffff1673ffffffffffffffffffffffffffffffffffffffff16815260200190815260200160002060070160009054906101000a900460ff161515146115ef576040517f08c379a00000000000000000000000000000000000000000000000000000000081526004016115e690612950565b60405180910390fd5b816001151560016000838152602001908152602001600020600a0160019054906101000a900460ff1615151461165a576040517f08c379a000000000000000000000000000000000000000000000000000000000815260040161165190612dac565b60405180910390fd5b826001151560016000838152602001908152602001600020600a0160009054906101000a900460ff161515146116c5576040517f08c379a00000000000000000000000000000000000000000000000000000000081526004016116bc90612f16565b60405180910390fd5b6001600085815260200190815260200160002060050160009054906101000a900473ffffffffffffffffffffffffffffffffffffffff168073ffffffffffffffffffffffffffffffffffffffff163373ffffffffffffffffffffffffffffffffffffffff160361176a576040517f08c379a000000000000000000000000000000000000000000000000000000000815260040161176190612f82565b60405180910390fd5b611793346001600088815260200190815260200160002060020154611a3990919063ffffffff16565b60016000878152602001908152602001600020600201819055506117b73386611e6f565b156118345760016000868152602001908152602001600020600b01339080600181540180825580915050600190039060005260206000200160009091909190916101000a81548173ffffffffffffffffffffffffffffffffffffffff021916908373ffffffffffffffffffffffffffffffffffffffff1602179055505b611897346002600088815260200190815260200160002060003373ffffffffffffffffffffffffffffffffffffffff1673ffffffffffffffffffffffffffffffffffffffff16815260200190815260200160002054611a3990919063ffffffff16565b6002600087815260200190815260200160002060003373ffffffffffffffffffffffffffffffffffffffff1673ffffffffffffffffffffffffffffffffffffffff168152602001908152602001600020819055506118f53386611f4c565b15611963576000803373ffffffffffffffffffffffffffffffffffffffff1673ffffffffffffffffffffffffffffffffffffffff1681526020019081526020016000206006018590806001815401808255809150506001900390600052602060002001600090919091909150555b843373ffffffffffffffffffffffffffffffffffffffff167f7cf2ffe49fdb179cd4e64bb1a62d5e642d749684c0de5c2cae4a877d8a4aede760405160405180910390a36119b085611a81565b15611a32577f24069000107bce0822c1529cf85c2e1c6514251c41cbebf69d9ea3ddadc899616040516119e290612fee565b60405180910390a16119f385612029565b7f24069000107bce0822c1529cf85c2e1c6514251c41cbebf69d9ea3ddadc89961604051611a209061305a565b60405180910390a1611a3185610e5d565b5b5050505050565b60008183611a47919061307a565b905092915050565b6000806000905060016000848152602001908152602001600020600401544210611a7857600190505b80915050919050565b600080600090507f24069000107bce0822c1529cf85c2e1c6514251c41cbebf69d9ea3ddadc89961604051611ab59061311c565b60405180910390a17f564f25dcd6f265074b7996a9cc4c1eb399cdee32ddf8380cc915808c8c4a94a4600160008581526020019081526020016000206001015460016000868152602001908152602001600020600201541015604051611b1b9190613188565b60405180910390a17f5c8eab78c8c0614ab63a49717f946c2da7dfcf09e3ea1d75dce22f6dcf548e846001600085815260200190815260200160002060020154604051611b689190613202565b60405180910390a17f5c8eab78c8c0614ab63a49717f946c2da7dfcf09e3ea1d75dce22f6dcf548e846001600085815260200190815260200160002060010154604051611bb5919061327c565b60405180910390a16001600084815260200190815260200160002060010154600160008581526020019081526020016000206002015410611bf557600190505b7f24069000107bce0822c1529cf85c2e1c6514251c41cbebf69d9ea3ddadc89961604051611c22906132f6565b60405180910390a180915050919050565b606060006002836002611c469190613316565b611c50919061307a565b67ffffffffffffffff811115611c6957611c6861240d565b5b6040519080825280601f01601f191660200182016040528015611c9b5781602001600182028036833780820191505090505b5090507f300000000000000000000000000000000000000000000000000000000000000081600081518110611cd357611cd2612d31565b5b60200101907effffffffffffffffffffffffffffffffffffffffffffffffffffffffffffff1916908160001a9053507f780000000000000000000000000000000000000000000000000000000000000081600181518110611d3757611d36612d31565b5b60200101907effffffffffffffffffffffffffffffffffffffffffffffffffffffffffffff1916908160001a90535060006001846002611d779190613316565b611d81919061307a565b90505b6001811115611e21577f3031323334353637383961626364656600000000000000000000000000000000600f861660108110611dc357611dc2612d31565b5b1a60f81b828281518110611dda57611dd9612d31565b5b60200101907effffffffffffffffffffffffffffffffffffffffffffffffffffffffffffff1916908160001a905350600485901c945080611e1a90613370565b9050611d84565b5060008414611e65576040517f08c379a0000000000000000000000000000000000000000000000000000000008152600401611e5c906133e5565b60405180910390fd5b8091505092915050565b60008060009050600060016000858152602001908152602001600020600b0180549050905060005b81811015611f40578573ffffffffffffffffffffffffffffffffffffffff1660016000878152602001908152602001600020600b018281548110611ede57611edd612d31565b5b9060005260206000200160009054906101000a900473ffffffffffffffffffffffffffffffffffffffff1673ffffffffffffffffffffffffffffffffffffffff1603611f2d5760019250611f40565b8080611f3890612c7d565b915050611e97565b50819250505092915050565b6000806000905060005b6000808673ffffffffffffffffffffffffffffffffffffffff1673ffffffffffffffffffffffffffffffffffffffff1681526020019081526020016000206006018054905081101561201e57836000808773ffffffffffffffffffffffffffffffffffffffff1673ffffffffffffffffffffffffffffffffffffffff1681526020019081526020016000206006018281548110611ff657611ff5612d31565b5b90600052602060002001540361200b57600191505b808061201690612c7d565b915050611f56565b508091505092915050565b600060016000838152602001908152602001600020600a0160006101000a81548160ff0219169083151502179055506120e360016000806001600086815260200190815260200160002060050160009054906101000a900473ffffffffffffffffffffffffffffffffffffffff1673ffffffffffffffffffffffffffffffffffffffff1673ffffffffffffffffffffffffffffffffffffffff1681526020019081526020016000206004015461216190919063ffffffff16565b6000806001600085815260200190815260200160002060050160009054906101000a900473ffffffffffffffffffffffffffffffffffffffff1673ffffffffffffffffffffffffffffffffffffffff1673ffffffffffffffffffffffffffffffffffffffff1681526020019081526020016000206004018190555050565b6000818361216f9190613405565b905092915050565b604051806101a001604052806000815260200160008152602001600081526020016000815260200160008152602001600073ffffffffffffffffffffffffffffffffffffffff16815260200160608152602001606081526020016060815260200160608152602001600015158152602001600015158152602001606081525090565b828054828255906000526020600020908101928215612272579160200282015b828111156122715782518260006101000a81548173ffffffffffffffffffffffffffffffffffffffff021916908373ffffffffffffffffffffffffffffffffffffffff16021790555091602001919060010190612219565b5b50905061227f919061232d565b5090565b604051806101000160405280600073ffffffffffffffffffffffffffffffffffffffff1681526020016060815260200160608152602001600081526020016000815260200160608152602001606081526020016000151581525090565b82805482825590600052602060002090810192821561231c579160200282015b8281111561231b578251825591602001919060010190612300565b5b509050612329919061232d565b5090565b5b8082111561234657600081600090555060010161232e565b5090565b6000604051905090565b600080fd5b600080fd5b600073ffffffffffffffffffffffffffffffffffffffff82169050919050565b60006123898261235e565b9050919050565b6123998161237e565b81146123a457600080fd5b50565b6000813590506123b681612390565b92915050565b6000819050919050565b6123cf816123bc565b81146123da57600080fd5b50565b6000813590506123ec816123c6565b92915050565b600080fd5b600080fd5b6000601f19601f8301169050919050565b7f4e487b7100000000000000000000000000000000000000000000000000000000600052604160045260246000fd5b612445826123fc565b810181811067ffffffffffffffff821117156124645761246361240d565b5b80604052505050565b600061247761234a565b9050612483828261243c565b919050565b600067ffffffffffffffff8211156124a3576124a261240d565b5b6124ac826123fc565b9050602081019050919050565b82818337600083830152505050565b60006124db6124d684612488565b61246d565b9050828152602081018484840111156124f7576124f66123f7565b5b6125028482856124b9565b509392505050565b600082601f83011261251f5761251e6123f2565b5b813561252f8482602086016124c8565b91505092915050565b600080600080600080600060e0888a03121561255757612556612354565b5b60006125658a828b016123a7565b97505060206125768a828b016123dd565b96505060406125878a828b016123dd565b955050606088013567ffffffffffffffff8111156125a8576125a7612359565b5b6125b48a828b0161250a565b945050608088013567ffffffffffffffff8111156125d5576125d4612359565b5b6125e18a828b0161250a565b93505060a088013567ffffffffffffffff81111561260257612601612359565b5b61260e8a828b0161250a565b92505060c088013567ffffffffffffffff81111561262f5761262e612359565b5b61263b8a828b0161250a565b91505092959891949750929550565b6000602082840312156126605761265f612354565b5b600061266e848285016123dd565b91505092915050565b6000806040838503121561268e5761268d612354565b5b600061269c858286016123a7565b925050602083013567ffffffffffffffff8111156126bd576126bc612359565b5b6126c98582860161250a565b9150509250929050565b6126dc816123bc565b82525050565b6126eb8161237e565b82525050565b600081519050919050565b600082825260208201905092915050565b60005b8381101561272b578082015181840152602081019050612710565b8381111561273a576000848401525b50505050565b600061274b826126f1565b61275581856126fc565b935061276581856020860161270d565b61276e816123fc565b840191505092915050565b60008115159050919050565b61278e81612779565b82525050565b6000610160820190506127aa600083018e6126d3565b6127b7602083018d6126e2565b81810360408301526127c9818c612740565b905081810360608301526127dd818b612740565b905081810360808301526127f1818a612740565b905081810360a08301526128058189612740565b905061281460c08301886126d3565b61282160e08301876126d3565b61282f6101008301866126d3565b61283d6101208301856126d3565b61284b610140830184612785565b9c9b505050505050505050505050565b60006020828403121561287157612870612354565b5b600061287f848285016123a7565b91505092915050565b600060208201905061289d60008301846126d3565b92915050565b600060a0820190506128b860008301886126e2565b81810360208301526128ca8187612740565b905081810360408301526128de8186612740565b90506128ed60608301856126d3565b6128fa60808301846126d3565b9695505050505050565b7f4163636f756e7420646f65736e27742065786973740000000000000000000000600082015250565b600061293a6015836126fc565b915061294582612904565b602082019050919050565b600060208201905081810360008301526129698161292d565b9050919050565b7f4e487b7100000000000000000000000000000000000000000000000000000000600052602260045260246000fd5b600060028204905060018216806129b757607f821691505b6020821081036129ca576129c9612970565b5b50919050565b60008190508160005260206000209050919050565b60006020601f8301049050919050565b600082821b905092915050565b600060088302612a327fffffffffffffffffffffffffffffffffffffffffffffffffffffffffffffffff826129f5565b612a3c86836129f5565b95508019841693508086168417925050509392505050565b6000819050919050565b6000612a79612a74612a6f846123bc565b612a54565b6123bc565b9050919050565b6000819050919050565b612a9383612a5e565b612aa7612a9f82612a80565b848454612a02565b825550505050565b600090565b612abc612aaf565b612ac7818484612a8a565b505050565b5b81811015612aeb57612ae0600082612ab4565b600181019050612acd565b5050565b601f821115612b3057612b01816129d0565b612b0a846129e5565b81016020851015612b19578190505b612b2d612b25856129e5565b830182612acc565b50505b505050565b600082821c905092915050565b6000612b5360001984600802612b35565b1980831691505092915050565b6000612b6c8383612b42565b9150826002028217905092915050565b612b85826126f1565b67ffffffffffffffff811115612b9e57612b9d61240d565b5b612ba8825461299f565b612bb3828285612aef565b600060209050601f831160018114612be65760008415612bd4578287015190505b612bde8582612b60565b865550612c46565b601f198416612bf4866129d0565b60005b82811015612c1c57848901518255600182019150602085019450602081019050612bf7565b86831015612c395784890151612c35601f891682612b42565b8355505b6001600288020188555050505b505050505050565b7f4e487b7100000000000000000000000000000000000000000000000000000000600052601160045260246000fd5b6000612c88826123bc565b91507fffffffffffffffffffffffffffffffffffffffffffffffffffffffffffffffff8203612cba57612cb9612c4e565b5b600182019050919050565b7f446561646c696e65206861736e2774206265656e207265616368656420796574600082015250565b6000612cfb6020836126fc565b9150612d0682612cc5565b602082019050919050565b60006020820190508181036000830152612d2a81612cee565b9050919050565b7f4e487b7100000000000000000000000000000000000000000000000000000000600052603260045260246000fd5b7f476f616c20646f65736e27742065786973740000000000000000000000000000600082015250565b6000612d966012836126fc565b9150612da182612d60565b602082019050919050565b60006020820190508181036000830152612dc581612d89565b9050919050565b7f46756e64732063616e206f6e6c792062652073656e74206f6e636520676f616c60008201527f20686173206265656e2072656163686564000000000000000000000000000000602082015250565b6000612e286031836126fc565b9150612e3382612dcc565b604082019050919050565b60006020820190508181036000830152612e5781612e1b565b9050919050565b7f4163636f756e7420616c72656164792065786973747300000000000000000000600082015250565b6000612e946016836126fc565b9150612e9f82612e5e565b602082019050919050565b60006020820190508181036000830152612ec381612e87565b9050919050565b7f476f616c206973206e6f206c6f6e676572206163746976650000000000000000600082015250565b6000612f006018836126fc565b9150612f0b82612eca565b602082019050919050565b60006020820190508181036000830152612f2f81612ef3565b9050919050565b7f596f752063616e27742066756e6420796f7572206f776e20676f616c00000000600082015250565b6000612f6c601c836126fc565b9150612f7782612f36565b602082019050919050565b60006020820190508181036000830152612f9b81612f5f565b9050919050565b7f46554e4420434f4d504c45544544000000000000000000000000000000000000600082015250565b6000612fd8600e836126fc565b9150612fe382612fa2565b602082019050919050565b6000602082019050818103600083015261300781612fcb565b9050919050565b7f474f414c20444541435449564154454400000000000000000000000000000000600082015250565b60006130446010836126fc565b915061304f8261300e565b602082019050919050565b6000602082019050818103600083015261307381613037565b9050919050565b6000613085826123bc565b9150613090836123bc565b9250827fffffffffffffffffffffffffffffffffffffffffffffffffffffffffffffffff038211156130c5576130c4612c4e565b5b828201905092915050565b7f49532046554e4420434f4d504c4554494f4e20434845434b0000000000000000600082015250565b60006131066018836126fc565b9150613111826130d0565b602082019050919050565b60006020820190508181036000830152613135816130f9565b9050919050565b7f43757272656e74203e3d204d6178000000000000000000000000000000000000600082015250565b6000613172600e836126fc565b915061317d8261313c565b602082019050919050565b600060408201905081810360008301526131a181613165565b90506131b06020830184612785565b92915050565b7f43757272656e7420616d6f756e74000000000000000000000000000000000000600082015250565b60006131ec600e836126fc565b91506131f7826131b6565b602082019050919050565b6000604082019050818103600083015261321b816131df565b905061322a60208301846126d3565b92915050565b7f4d617820616d6f756e7400000000000000000000000000000000000000000000600082015250565b6000613266600a836126fc565b915061327182613230565b602082019050919050565b6000604082019050818103600083015261329581613259565b90506132a460208301846126d3565b92915050565b7f434f4d50415249534f4e2046494e495348454400000000000000000000000000600082015250565b60006132e06013836126fc565b91506132eb826132aa565b602082019050919050565b6000602082019050818103600083015261330f816132d3565b9050919050565b6000613321826123bc565b915061332c836123bc565b9250817fffffffffffffffffffffffffffffffffffffffffffffffffffffffffffffffff048311821515161561336557613364612c4e565b5b828202905092915050565b600061337b826123bc565b91506000820361338e5761338d612c4e565b5b600182039050919050565b7f537472696e67733a20686578206c656e67746820696e73756666696369656e74600082015250565b60006133cf6020836126fc565b91506133da82613399565b602082019050919050565b600060208201905081810360008301526133fe816133c2565b9050919050565b6000613410826123bc565b915061341b836123bc565b92508282101561342e5761342d612c4e565b5b82820390509291505056fea2646970667358221220720061fd967ec4c55d74893aeb2a689b2e9543ec67349e2813c2195fb9d44a9864736f6c634300080f0033",
  "immutableReferences": {},
  "source": "pragma solidity >=0.4.22 <0.9.0;\r\n\r\nimport \"@openzeppelin/contracts/utils/Strings.sol\";\r\nimport \"@openzeppelin/contracts/utils/math/SafeMath.sol\";\r\n\r\ncontract Crowdfund {\r\n    using Strings for string;\r\n    using SafeMath for uint256;\r\n\r\n    event goalFunded(address indexed _from, uint256 indexed _goalId);\r\n    event goalCompleted(uint256 indexed _goalId);\r\n    event goalCreated(uint256 indexed _goalId);\r\n    event debugMessage(string _message);\r\n    event debugValue(string _description, uint256 _value);\r\n    event debugBool(string _description, bool _bool);\r\n\r\n    struct Goal {\r\n        uint256 id;\r\n        uint256 maxAmount;\r\n        uint256 currentAmount;\r\n        uint256 createdAt;\r\n        uint256 deadline;\r\n        address owner;\r\n        string title;\r\n        string description;\r\n        string details;\r\n        string picture;\r\n        bool isActive;\r\n        bool exists;\r\n        address[] funderAddresses;\r\n    }\r\n\r\n    struct Funder {\r\n        address accountId;\r\n        uint256 contribution;\r\n    }\r\n\r\n    struct User {\r\n        address id;\r\n        string username;\r\n        string picture;\r\n        uint256 createdAt;\r\n        uint256 activeGoalCount;\r\n        uint256[] goals;\r\n        uint256[] goalsHelped;\r\n        bool exists;\r\n    }\r\n\r\n    struct Message {\r\n        uint256 id;\r\n        uint256 dateCreated;\r\n        address from;\r\n        address to;\r\n        string goal;\r\n        string content;\r\n    }\r\n\r\n    mapping(address => User) accounts;\r\n    mapping(uint256 => Goal) goals;\r\n    // mapping(uint256 => Funder[]) goalFunders;\r\n    mapping(uint256 => mapping(address => uint256)) goalFunders;\r\n    mapping(uint256 => Message) messages;\r\n\r\n    uint256 goalNumber = 0;\r\n    uint256 messageNumber = 0;\r\n\r\n    modifier accountExists(address _owner) {\r\n        require(accounts[_owner].exists == true, \"Account doesn't exist\");\r\n        _;\r\n    }\r\n\r\n    modifier notOwner(address _owner) {\r\n        require(msg.sender != _owner, \"You can't fund your own goal\");\r\n        _;\r\n    }\r\n\r\n    modifier goalExists(uint256 _goalId) {\r\n        require(goals[_goalId].exists == true, \"Goal doesn't exist\");\r\n        _;\r\n    }\r\n\r\n    modifier goalIsActive(uint256 _goalId) {\r\n        require(goals[_goalId].isActive == true, \"Goal is no longer active\");\r\n        _;\r\n    }\r\n\r\n    function createAccount(address _owner) external {\r\n        require(accounts[_owner].exists == false, \"Account already exists\");\r\n        User memory newUser;\r\n        newUser.id = _owner;\r\n        newUser.username = Strings.toHexString(uint256(uint160(_owner)), 20);\r\n        newUser.createdAt = block.timestamp;\r\n        newUser.activeGoalCount = 0;\r\n        newUser.exists = true;\r\n\r\n        accounts[_owner] = newUser;\r\n    }\r\n\r\n    function updateAccount(address _owner, string memory _userName)\r\n        external\r\n        accountExists(_owner)\r\n    {\r\n        accounts[_owner].username = _userName;\r\n    }\r\n\r\n    function retrieveAccount(address _owner)\r\n        external\r\n        view\r\n        accountExists(_owner)\r\n        returns (\r\n            address,\r\n            string memory,\r\n            string memory,\r\n            uint256,\r\n            uint256\r\n        )\r\n    {\r\n        User memory user = accounts[_owner];\r\n\r\n        return (\r\n            user.id,\r\n            user.username,\r\n            user.picture,\r\n            user.createdAt,\r\n            user.activeGoalCount\r\n        );\r\n    }\r\n\r\n    function createGoal(\r\n        address _owner,\r\n        uint256 _maxAmount,\r\n        uint256 _deadline,\r\n        string memory _title,\r\n        string memory _description,\r\n        string memory _details,\r\n        string memory _picture\r\n    ) external accountExists(_owner) {\r\n        Goal memory newGoal;\r\n        newGoal.id = goalNumber;\r\n        newGoal.owner = _owner;\r\n        newGoal.maxAmount = _maxAmount;\r\n        newGoal.currentAmount = 0;\r\n        newGoal.createdAt = block.timestamp;\r\n        newGoal.deadline = _deadline;\r\n        newGoal.title = _title;\r\n        newGoal.description = _description;\r\n        newGoal.details = _details;\r\n        newGoal.picture = _picture;\r\n        newGoal.isActive = true;\r\n        newGoal.exists = true;\r\n\r\n        goals[goalNumber] = newGoal;\r\n        accounts[_owner].goals.push(goalNumber);\r\n        accounts[_owner].activeGoalCount = accounts[_owner].activeGoalCount.add(\r\n            1\r\n        );\r\n        goalNumber++;\r\n\r\n        emit goalCreated(newGoal.id);\r\n    }\r\n\r\n    function retrieveGoal(uint256 _goalId)\r\n        public\r\n        view\r\n        goalExists(_goalId)\r\n        returns (\r\n            uint256,\r\n            address,\r\n            string memory,\r\n            string memory,\r\n            string memory,\r\n            string memory,\r\n            uint256,\r\n            uint256,\r\n            uint256,\r\n            uint256,\r\n            bool\r\n        )\r\n    {\r\n        Goal memory goal = goals[_goalId];\r\n\r\n        return (\r\n            goal.id,\r\n            goal.owner,\r\n            goal.title,\r\n            goal.description,\r\n            goal.details,\r\n            goal.picture,\r\n            goal.createdAt,\r\n            goal.deadline,\r\n            goal.maxAmount,\r\n            goal.currentAmount,\r\n            goal.isActive\r\n        );\r\n    }\r\n\r\n    function retrieveGoalCount(address _owner) external view returns (uint256) {\r\n        return accounts[_owner].goals.length;\r\n    }\r\n\r\n    function fundGoal(uint256 _goalId)\r\n        external\r\n        payable\r\n        accountExists(msg.sender)\r\n        goalExists(_goalId)\r\n        goalIsActive(_goalId)\r\n        notOwner(goals[_goalId].owner)\r\n    {\r\n        goals[_goalId].currentAmount = goals[_goalId].currentAmount.add(\r\n            msg.value\r\n        );\r\n\r\n        if (isRecurringFunder(msg.sender, _goalId)) {\r\n            goals[_goalId].funderAddresses.push(msg.sender);\r\n        }\r\n\r\n        goalFunders[_goalId][msg.sender] = goalFunders[_goalId][msg.sender].add(\r\n            msg.value\r\n        );\r\n\r\n        if (isRecurringFundee(msg.sender, _goalId)) {\r\n            accounts[msg.sender].goalsHelped.push(_goalId);\r\n        }\r\n\r\n        emit goalFunded(msg.sender, _goalId);\r\n\r\n        if (isFundCompleted(_goalId)) {\r\n            emit debugMessage(\"FUND COMPLETED\");\r\n            deactivateGoal(_goalId);\r\n            emit debugMessage(\"GOAL DEACTIVATED\");\r\n            sendFunds(_goalId);\r\n        }\r\n    }\r\n\r\n    function sendFunds(uint256 _goalId) public payable {\r\n        require(\r\n            goals[_goalId].currentAmount >= goals[_goalId].maxAmount,\r\n            \"Funds can only be sent once goal has been reached\"\r\n        );\r\n        address _owner = goals[_goalId].owner;\r\n        address payable _account = payable(_owner);\r\n        _account.transfer(goals[_goalId].currentAmount);\r\n        emit goalCompleted(_goalId);\r\n    }\r\n\r\n    function refundFunders(uint256 _goalId) public payable {\r\n        require(\r\n            isDeadlineReached(_goalId) &&\r\n                !isFundCompleted(_goalId) &&\r\n                msg.sender == goals[_goalId].owner,\r\n            \"Deadline hasn't been reached yet\"\r\n        );\r\n        address[] memory funderAddresses = goals[_goalId].funderAddresses;\r\n        uint256 fundersCount = goals[_goalId].funderAddresses.length;\r\n        for (uint256 i = 0; i < fundersCount; i++) {\r\n            address payable _account = payable(funderAddresses[i]);\r\n            _account.transfer(goalFunders[_goalId][funderAddresses[i]]);\r\n        }\r\n    }\r\n\r\n    function deactivateGoal(uint256 _goalId) private {\r\n        goals[_goalId].isActive = false;\r\n        accounts[goals[_goalId].owner].activeGoalCount = accounts[\r\n            goals[_goalId].owner\r\n        ].activeGoalCount.sub(1);\r\n    }\r\n\r\n    function isDeadlineReached(uint256 _goalId) private view returns (bool) {\r\n        bool res = false;\r\n        if (block.timestamp >= goals[_goalId].deadline) {\r\n            res = true;\r\n        }\r\n\r\n        return res;\r\n    }\r\n\r\n    function isFundCompleted(uint256 _goalId) private returns (bool) {\r\n        bool res = false;\r\n        emit debugMessage(\"IS FUND COMPLETION CHECK\");\r\n        emit debugBool(\r\n            \"Current >= Max\",\r\n            goals[_goalId].currentAmount >= goals[_goalId].maxAmount\r\n        );\r\n        emit debugValue(\"Current amount\", goals[_goalId].currentAmount);\r\n        emit debugValue(\"Max amount\", goals[_goalId].maxAmount);\r\n        if (goals[_goalId].currentAmount >= goals[_goalId].maxAmount) {\r\n            // emit debugMessage(\"FUND IS COMPLETED\");\r\n            res = true;\r\n        }\r\n\r\n        emit debugMessage(\"COMPARISON FINISHED\");\r\n        return res;\r\n    }\r\n\r\n    function isRecurringFunder(address _funder, uint256 _goalId)\r\n        private\r\n        view\r\n        returns (bool)\r\n    {\r\n        bool res = false;\r\n        uint256 funderCount = goals[_goalId].funderAddresses.length;\r\n        for (uint256 i = 0; i < funderCount; i++) {\r\n            if (goals[_goalId].funderAddresses[i] == _funder) {\r\n                res = true;\r\n                break;\r\n            }\r\n        }\r\n        return res;\r\n    }\r\n\r\n    function isRecurringFundee(address _funder, uint256 _goalId)\r\n        private\r\n        view\r\n        returns (bool)\r\n    {\r\n        bool res = false;\r\n        for (uint256 i = 0; i < accounts[_funder].goalsHelped.length; i++) {\r\n            if (accounts[_funder].goalsHelped[i] == _goalId) res = true;\r\n        }\r\n\r\n        return res;\r\n    }\r\n}\r\n",
  "sourcePath": "D:\\VSCode\\blockchain\\fundfinder\\contracts\\contracts\\Crowdfund.sol",
  "compiler": {
    "name": "solc",
    "version": "0.8.15+commit.e14f2714.Emscripten.clang"
  },
  "schemaVersion": "3.4.8",
  "updatedAt": "2022-08-13T08:58:42.580Z",
  "networkType": "ethereum",
  "devdoc": {
    "kind": "dev",
    "methods": {},
    "version": 1
  },
  "userdoc": {
    "kind": "user",
    "methods": {},
    "version": 1
  }
}