{
  "contractName": "Crowdfund",
  "abi": [
    {
      "anonymous": false,
      "inputs": [
        {
          "indexed": false,
          "internalType": "string",
          "name": "_description",
          "type": "string"
        },
        {
          "indexed": false,
          "internalType": "bool",
          "name": "_bool",
          "type": "bool"
        }
      ],
      "name": "debugBool",
      "type": "event"
    },
    {
      "anonymous": false,
      "inputs": [
        {
          "indexed": false,
          "internalType": "string",
          "name": "_message",
          "type": "string"
        }
      ],
      "name": "debugMessage",
      "type": "event"
    },
    {
      "anonymous": false,
      "inputs": [
        {
          "indexed": false,
          "internalType": "string",
          "name": "_description",
          "type": "string"
        },
        {
          "indexed": false,
          "internalType": "uint256",
          "name": "_value",
          "type": "uint256"
        }
      ],
      "name": "debugValue",
      "type": "event"
    },
    {
      "anonymous": false,
      "inputs": [
        {
          "indexed": true,
          "internalType": "uint256",
          "name": "_goalId",
          "type": "uint256"
        }
      ],
      "name": "goalCompleted",
      "type": "event"
    },
    {
      "anonymous": false,
      "inputs": [
        {
          "indexed": true,
          "internalType": "uint256",
          "name": "_goalId",
          "type": "uint256"
        }
      ],
      "name": "goalCreated",
      "type": "event"
    },
    {
      "anonymous": false,
      "inputs": [
        {
          "indexed": true,
          "internalType": "address",
          "name": "_from",
          "type": "address"
        },
        {
          "indexed": true,
          "internalType": "uint256",
          "name": "_goalId",
          "type": "uint256"
        }
      ],
      "name": "goalFunded",
      "type": "event"
    },
    {
      "anonymous": false,
      "inputs": [
        {
          "indexed": true,
          "internalType": "uint256",
          "name": "_goalId",
          "type": "uint256"
        }
      ],
      "name": "refundSent",
      "type": "event"
    },
    {
      "inputs": [
        {
          "internalType": "address",
          "name": "_owner",
          "type": "address"
        }
      ],
      "name": "createAccount",
      "outputs": [],
      "stateMutability": "nonpayable",
      "type": "function"
    },
    {
      "inputs": [
        {
          "internalType": "address",
          "name": "_owner",
          "type": "address"
        },
        {
          "internalType": "string",
          "name": "_userName",
          "type": "string"
        },
        {
          "internalType": "string",
          "name": "_picture",
          "type": "string"
        }
      ],
      "name": "updateAccount",
      "outputs": [],
      "stateMutability": "nonpayable",
      "type": "function"
    },
    {
      "inputs": [
        {
          "internalType": "address",
          "name": "_owner",
          "type": "address"
        }
      ],
      "name": "retrieveAccount",
      "outputs": [
        {
          "internalType": "address",
          "name": "",
          "type": "address"
        },
        {
          "internalType": "string",
          "name": "",
          "type": "string"
        },
        {
          "internalType": "string",
          "name": "",
          "type": "string"
        },
        {
          "internalType": "uint256",
          "name": "",
          "type": "uint256"
        },
        {
          "internalType": "uint256",
          "name": "",
          "type": "uint256"
        }
      ],
      "stateMutability": "view",
      "type": "function"
    },
    {
      "inputs": [
        {
          "internalType": "address",
          "name": "_owner",
          "type": "address"
        },
        {
          "internalType": "uint256",
          "name": "_maxAmount",
          "type": "uint256"
        },
        {
          "internalType": "uint256",
          "name": "_deadline",
          "type": "uint256"
        },
        {
          "internalType": "string",
          "name": "_title",
          "type": "string"
        },
        {
          "internalType": "string",
          "name": "_description",
          "type": "string"
        },
        {
          "internalType": "string",
          "name": "_details",
          "type": "string"
        },
        {
          "internalType": "string",
          "name": "_picture",
          "type": "string"
        }
      ],
      "name": "createGoal",
      "outputs": [],
      "stateMutability": "nonpayable",
      "type": "function"
    },
    {
      "inputs": [
        {
          "internalType": "uint256",
          "name": "_goalId",
          "type": "uint256"
        }
      ],
      "name": "retrieveGoal",
      "outputs": [
        {
          "internalType": "uint256",
          "name": "",
          "type": "uint256"
        },
        {
          "internalType": "address",
          "name": "",
          "type": "address"
        },
        {
          "internalType": "string",
          "name": "",
          "type": "string"
        },
        {
          "internalType": "string",
          "name": "",
          "type": "string"
        },
        {
          "internalType": "string",
          "name": "",
          "type": "string"
        },
        {
          "internalType": "string",
          "name": "",
          "type": "string"
        },
        {
          "internalType": "uint256",
          "name": "",
          "type": "uint256"
        },
        {
          "internalType": "uint256",
          "name": "",
          "type": "uint256"
        },
        {
          "internalType": "uint256",
          "name": "",
          "type": "uint256"
        },
        {
          "internalType": "uint256",
          "name": "",
          "type": "uint256"
        },
        {
          "internalType": "bool",
          "name": "",
          "type": "bool"
        }
      ],
      "stateMutability": "view",
      "type": "function"
    },
    {
      "inputs": [
        {
          "internalType": "address",
          "name": "_owner",
          "type": "address"
        }
      ],
      "name": "retrieveGoalCount",
      "outputs": [
        {
          "internalType": "uint256",
          "name": "",
          "type": "uint256"
        }
      ],
      "stateMutability": "view",
      "type": "function"
    },
    {
      "inputs": [
        {
          "internalType": "uint256",
          "name": "_goalId",
          "type": "uint256"
        }
      ],
      "name": "fundGoal",
      "outputs": [],
      "stateMutability": "payable",
      "type": "function"
    },
    {
      "inputs": [
        {
          "internalType": "uint256",
          "name": "_goalId",
          "type": "uint256"
        }
      ],
      "name": "sendFunds",
      "outputs": [],
      "stateMutability": "payable",
      "type": "function"
    },
    {
      "inputs": [
        {
          "internalType": "uint256",
          "name": "_goalId",
          "type": "uint256"
        }
      ],
      "name": "refundFunders",
      "outputs": [],
      "stateMutability": "payable",
      "type": "function"
    }
  ],
  "bytecode": "0x6080604052600060035534801561001557600080fd5b50613000806100256000396000f3fe6080604052600436106100865760003560e01c80638b281018116100595780638b281018146101545780639859387b146101705780639929b83f14610199578063b945606c146101c2578063c027fccd1461020357610086565b8063338dfdab1461008b5780634aab2bdd146100b45780637b09e3ca146100d05780637cd59fdb14610117575b600080fd5b34801561009757600080fd5b506100b260048036038101906100ad91906123b8565b61021f565b005b6100ce60048036038101906100c991906124ca565b610618565b005b3480156100dc57600080fd5b506100f760048036038101906100f291906124ca565b6108be565b60405161010e9b9a999897969594939291906125b8565b60405180910390f35b34801561012357600080fd5b5061013e6004803603810190610139919061267f565b610d52565b60405161014b91906126ac565b60405180910390f35b61016e600480360381019061016991906124ca565b610da0565b005b34801561017c57600080fd5b506101976004803603810190610192919061267f565b610eb7565b005b3480156101a557600080fd5b506101c060048036038101906101bb91906126c7565b611102565b005b3480156101ce57600080fd5b506101e960048036038101906101e4919061267f565b61123c565b6040516101fa959493929190612752565b60405180910390f35b61021d600480360381019061021891906124ca565b6115af565b005b86600115156000808373ffffffffffffffffffffffffffffffffffffffff1673ffffffffffffffffffffffffffffffffffffffff16815260200190815260200160002060070160009054906101000a900460ff161515146102b5576040517f08c379a00000000000000000000000000000000000000000000000000000000081526004016102ac906127ff565b60405180910390fd5b6102bd611ff7565b600354816000018181525050888160a0019073ffffffffffffffffffffffffffffffffffffffff16908173ffffffffffffffffffffffffffffffffffffffff16815250508781602001818152505060008160400181815250504281606001818152505086816080018181525050858160c00181905250848160e00181905250838161010001819052508281610120018190525060018161014001901515908115158152505060018161016001901515908115158152505080600160006003548152602001908152602001600020600082015181600001556020820151816001015560408201518160020155606082015181600301556080820151816004015560a08201518160050160006101000a81548173ffffffffffffffffffffffffffffffffffffffff021916908373ffffffffffffffffffffffffffffffffffffffff16021790555060c08201518160060190816104189190612a2b565b5060e082015181600701908161042e9190612a2b565b506101008201518160080190816104459190612a2b565b5061012082015181600901908161045c9190612a2b565b5061014082015181600a0160006101000a81548160ff02191690831515021790555061016082015181600a0160016101000a81548160ff02191690831515021790555061018082015181600b0190805190602001906104bc929190612079565b509050506000808a73ffffffffffffffffffffffffffffffffffffffff1673ffffffffffffffffffffffffffffffffffffffff168152602001908152602001600020600501600354908060018154018082558091505060019003906000526020600020016000909190919091505561057f60016000808c73ffffffffffffffffffffffffffffffffffffffff1673ffffffffffffffffffffffffffffffffffffffff16815260200190815260200160002060040154611a2390919063ffffffff16565b6000808b73ffffffffffffffffffffffffffffffffffffffff1673ffffffffffffffffffffffffffffffffffffffff16815260200190815260200160002060040181905550600360008154809291906105d790612b2c565b919050555080600001517f77c189eb2314929aca9008b18ba4ceaab74dc71e29973493befaf3afc76afd7360405160405180910390a2505050505050505050565b61062181611a39565b8015610633575061063181611a6b565b155b80156106a057506001600082815260200190815260200160002060050160009054906101000a900473ffffffffffffffffffffffffffffffffffffffff1673ffffffffffffffffffffffffffffffffffffffff163373ffffffffffffffffffffffffffffffffffffffff16145b6106df576040517f08c379a00000000000000000000000000000000000000000000000000000000081526004016106d690612bc0565b60405180910390fd5b600060016000838152602001908152602001600020600b0180548060200260200160405190810160405280929190818152602001828054801561077757602002820191906000526020600020905b8160009054906101000a900473ffffffffffffffffffffffffffffffffffffffff1673ffffffffffffffffffffffffffffffffffffffff168152602001906001019080831161072d575b50505050509050600060016000848152602001908152602001600020600b0180549050905060005b8181101561088b5760008382815181106107bc576107bb612be0565b5b602002602001015190508073ffffffffffffffffffffffffffffffffffffffff166108fc60026000888152602001908152602001600020600087868151811061080857610807612be0565b5b602002602001015173ffffffffffffffffffffffffffffffffffffffff1673ffffffffffffffffffffffffffffffffffffffff168152602001908152602001600020549081150290604051600060405180830381858888f19350505050158015610876573d6000803e3d6000fd5b5050808061088390612b2c565b91505061079f565b50827f97218737de18cd311ea60521421d0ce6b38ee312c84803e7c672cbe4bac456e060405160405180910390a2505050565b60008060608060608060008060008060008b6001151560016000838152602001908152602001600020600a0160019054906101000a900460ff1615151461093a576040517f08c379a000000000000000000000000000000000000000000000000000000000815260040161093190612c5b565b60405180910390fd5b6000600160008f8152602001908152602001600020604051806101a001604052908160008201548152602001600182015481526020016002820154815260200160038201548152602001600482015481526020016005820160009054906101000a900473ffffffffffffffffffffffffffffffffffffffff1673ffffffffffffffffffffffffffffffffffffffff1673ffffffffffffffffffffffffffffffffffffffff1681526020016006820180546109f39061284e565b80601f0160208091040260200160405190810160405280929190818152602001828054610a1f9061284e565b8015610a6c5780601f10610a4157610100808354040283529160200191610a6c565b820191906000526020600020905b815481529060010190602001808311610a4f57829003601f168201915b50505050508152602001600782018054610a859061284e565b80601f0160208091040260200160405190810160405280929190818152602001828054610ab19061284e565b8015610afe5780601f10610ad357610100808354040283529160200191610afe565b820191906000526020600020905b815481529060010190602001808311610ae157829003601f168201915b50505050508152602001600882018054610b179061284e565b80601f0160208091040260200160405190810160405280929190818152602001828054610b439061284e565b8015610b905780601f10610b6557610100808354040283529160200191610b90565b820191906000526020600020905b815481529060010190602001808311610b7357829003601f168201915b50505050508152602001600982018054610ba99061284e565b80601f0160208091040260200160405190810160405280929190818152602001828054610bd59061284e565b8015610c225780601f10610bf757610100808354040283529160200191610c22565b820191906000526020600020905b815481529060010190602001808311610c0557829003601f168201915b50505050508152602001600a820160009054906101000a900460ff16151515158152602001600a820160019054906101000a900460ff16151515158152602001600b8201805480602002602001604051908101604052809291908181526020018280548015610ce657602002820191906000526020600020905b8160009054906101000a900473ffffffffffffffffffffffffffffffffffffffff1673ffffffffffffffffffffffffffffffffffffffff1681526020019060010190808311610c9c575b505050505081525050905080600001518160a001518260c001518360e0015184610100015185610120015186606001518760800151886020015189604001518a61014001519c509c509c509c509c509c509c509c509c509c509c50505091939597999b90929496989a50565b60008060008373ffffffffffffffffffffffffffffffffffffffff1673ffffffffffffffffffffffffffffffffffffffff168152602001908152602001600020600501805490509050919050565b610da981611a6b565b610de8576040517f08c379a0000000000000000000000000000000000000000000000000000000008152600401610ddf90612ced565b60405180910390fd5b60006001600083815260200190815260200160002060050160009054906101000a900473ffffffffffffffffffffffffffffffffffffffff16905060008190508073ffffffffffffffffffffffffffffffffffffffff166108fc60016000868152602001908152602001600020600201549081150290604051600060405180830381858888f19350505050158015610e84573d6000803e3d6000fd5b50827f0ee55c7e3cf874fa843ec5c1223737604860eb7fbea67ad58a6ba9d4f866498560405160405180910390a2505050565b600015156000808373ffffffffffffffffffffffffffffffffffffffff1673ffffffffffffffffffffffffffffffffffffffff16815260200190815260200160002060070160009054906101000a900460ff16151514610f4c576040517f08c379a0000000000000000000000000000000000000000000000000000000008152600401610f4390612d59565b60405180910390fd5b610f54612103565b81816000019073ffffffffffffffffffffffffffffffffffffffff16908173ffffffffffffffffffffffffffffffffffffffff1681525050610fad8273ffffffffffffffffffffffffffffffffffffffff166014611ab3565b816020018190525042816060018181525050600081608001818152505060018160e0019015159081151581525050806000808473ffffffffffffffffffffffffffffffffffffffff1673ffffffffffffffffffffffffffffffffffffffff16815260200190815260200160002060008201518160000160006101000a81548173ffffffffffffffffffffffffffffffffffffffff021916908373ffffffffffffffffffffffffffffffffffffffff16021790555060208201518160010190816110769190612a2b565b50604082015181600201908161108c9190612a2b565b50606082015181600301556080820151816004015560a08201518160050190805190602001906110bd929190612160565b5060c08201518160060190805190602001906110da929190612160565b5060e08201518160070160006101000a81548160ff0219169083151502179055509050505050565b82600115156000808373ffffffffffffffffffffffffffffffffffffffff1673ffffffffffffffffffffffffffffffffffffffff16815260200190815260200160002060070160009054906101000a900460ff16151514611198576040517f08c379a000000000000000000000000000000000000000000000000000000000815260040161118f906127ff565b60405180910390fd5b826000808673ffffffffffffffffffffffffffffffffffffffff1673ffffffffffffffffffffffffffffffffffffffff16815260200190815260200160002060010190816111e69190612a2b565b50816000808673ffffffffffffffffffffffffffffffffffffffff1673ffffffffffffffffffffffffffffffffffffffff16815260200190815260200160002060020190816112359190612a2b565b5050505050565b600060608060008085600115156000808373ffffffffffffffffffffffffffffffffffffffff1673ffffffffffffffffffffffffffffffffffffffff16815260200190815260200160002060070160009054906101000a900460ff161515146112da576040517f08c379a00000000000000000000000000000000000000000000000000000000081526004016112d1906127ff565b60405180910390fd5b60008060008973ffffffffffffffffffffffffffffffffffffffff1673ffffffffffffffffffffffffffffffffffffffff168152602001908152602001600020604051806101000160405290816000820160009054906101000a900473ffffffffffffffffffffffffffffffffffffffff1673ffffffffffffffffffffffffffffffffffffffff1673ffffffffffffffffffffffffffffffffffffffff16815260200160018201805461138c9061284e565b80601f01602080910402602001604051908101604052809291908181526020018280546113b89061284e565b80156114055780601f106113da57610100808354040283529160200191611405565b820191906000526020600020905b8154815290600101906020018083116113e857829003601f168201915b5050505050815260200160028201805461141e9061284e565b80601f016020809104026020016040519081016040528092919081815260200182805461144a9061284e565b80156114975780601f1061146c57610100808354040283529160200191611497565b820191906000526020600020905b81548152906001019060200180831161147a57829003601f168201915b5050505050815260200160038201548152602001600482015481526020016005820180548060200260200160405190810160405280929190818152602001828054801561150357602002820191906000526020600020905b8154815260200190600101908083116114ef575b505050505081526020016006820180548060200260200160405190810160405280929190818152602001828054801561155b57602002820191906000526020600020905b815481526020019060010190808311611547575b505050505081526020016007820160009054906101000a900460ff16151515158152505090508060000151816020015182604001518360600151846080015196509650965096509650505091939590929450565b33600115156000808373ffffffffffffffffffffffffffffffffffffffff1673ffffffffffffffffffffffffffffffffffffffff16815260200190815260200160002060070160009054906101000a900460ff16151514611645576040517f08c379a000000000000000000000000000000000000000000000000000000000815260040161163c906127ff565b60405180910390fd5b816001151560016000838152602001908152602001600020600a0160019054906101000a900460ff161515146116b0576040517f08c379a00000000000000000000000000000000000000000000000000000000081526004016116a790612c5b565b60405180910390fd5b826001151560016000838152602001908152602001600020600a0160009054906101000a900460ff1615151461171b576040517f08c379a000000000000000000000000000000000000000000000000000000000815260040161171290612dc5565b60405180910390fd5b6001600085815260200190815260200160002060050160009054906101000a900473ffffffffffffffffffffffffffffffffffffffff168073ffffffffffffffffffffffffffffffffffffffff163373ffffffffffffffffffffffffffffffffffffffff16036117c0576040517f08c379a00000000000000000000000000000000000000000000000000000000081526004016117b790612e31565b60405180910390fd5b6117e9346001600088815260200190815260200160002060020154611a2390919063ffffffff16565b600160008781526020019081526020016000206002018190555061180d3386611cef565b6118895760016000868152602001908152602001600020600b01339080600181540180825580915050600190039060005260206000200160009091909190916101000a81548173ffffffffffffffffffffffffffffffffffffffff021916908373ffffffffffffffffffffffffffffffffffffffff1602179055505b6118ec346002600088815260200190815260200160002060003373ffffffffffffffffffffffffffffffffffffffff1673ffffffffffffffffffffffffffffffffffffffff16815260200190815260200160002054611a2390919063ffffffff16565b6002600087815260200190815260200160002060003373ffffffffffffffffffffffffffffffffffffffff1673ffffffffffffffffffffffffffffffffffffffff1681526020019081526020016000208190555061194a3386611dcc565b6119b7576000803373ffffffffffffffffffffffffffffffffffffffff1673ffffffffffffffffffffffffffffffffffffffff1681526020019081526020016000206006018590806001815401808255809150506001900390600052602060002001600090919091909150555b843373ffffffffffffffffffffffffffffffffffffffff167f7cf2ffe49fdb179cd4e64bb1a62d5e642d749684c0de5c2cae4a877d8a4aede760405160405180910390a3611a0485611a6b565b15611a1c57611a1285611ea9565b611a1b85610da0565b5b5050505050565b60008183611a319190612e51565b905092915050565b6000806000905060016000848152602001908152602001600020600401544210611a6257600190505b80915050919050565b600080600090506001600084815260200190815260200160002060010154600160008581526020019081526020016000206002015410611aaa57600190505b80915050919050565b606060006002836002611ac69190612ea7565b611ad09190612e51565b67ffffffffffffffff811115611ae957611ae861228d565b5b6040519080825280601f01601f191660200182016040528015611b1b5781602001600182028036833780820191505090505b5090507f300000000000000000000000000000000000000000000000000000000000000081600081518110611b5357611b52612be0565b5b60200101907effffffffffffffffffffffffffffffffffffffffffffffffffffffffffffff1916908160001a9053507f780000000000000000000000000000000000000000000000000000000000000081600181518110611bb757611bb6612be0565b5b60200101907effffffffffffffffffffffffffffffffffffffffffffffffffffffffffffff1916908160001a90535060006001846002611bf79190612ea7565b611c019190612e51565b90505b6001811115611ca1577f3031323334353637383961626364656600000000000000000000000000000000600f861660108110611c4357611c42612be0565b5b1a60f81b828281518110611c5a57611c59612be0565b5b60200101907effffffffffffffffffffffffffffffffffffffffffffffffffffffffffffff1916908160001a905350600485901c945080611c9a90612f01565b9050611c04565b5060008414611ce5576040517f08c379a0000000000000000000000000000000000000000000000000000000008152600401611cdc90612f76565b60405180910390fd5b8091505092915050565b60008060009050600060016000858152602001908152602001600020600b0180549050905060005b81811015611dc0578573ffffffffffffffffffffffffffffffffffffffff1660016000878152602001908152602001600020600b018281548110611d5e57611d5d612be0565b5b9060005260206000200160009054906101000a900473ffffffffffffffffffffffffffffffffffffffff1673ffffffffffffffffffffffffffffffffffffffff1603611dad5760019250611dc0565b8080611db890612b2c565b915050611d17565b50819250505092915050565b6000806000905060005b6000808673ffffffffffffffffffffffffffffffffffffffff1673ffffffffffffffffffffffffffffffffffffffff16815260200190815260200160002060060180549050811015611e9e57836000808773ffffffffffffffffffffffffffffffffffffffff1673ffffffffffffffffffffffffffffffffffffffff1681526020019081526020016000206006018281548110611e7657611e75612be0565b5b906000526020600020015403611e8b57600191505b8080611e9690612b2c565b915050611dd6565b508091505092915050565b600060016000838152602001908152602001600020600a0160006101000a81548160ff021916908315150217905550611f6360016000806001600086815260200190815260200160002060050160009054906101000a900473ffffffffffffffffffffffffffffffffffffffff1673ffffffffffffffffffffffffffffffffffffffff1673ffffffffffffffffffffffffffffffffffffffff16815260200190815260200160002060040154611fe190919063ffffffff16565b6000806001600085815260200190815260200160002060050160009054906101000a900473ffffffffffffffffffffffffffffffffffffffff1673ffffffffffffffffffffffffffffffffffffffff1673ffffffffffffffffffffffffffffffffffffffff1681526020019081526020016000206004018190555050565b60008183611fef9190612f96565b905092915050565b604051806101a001604052806000815260200160008152602001600081526020016000815260200160008152602001600073ffffffffffffffffffffffffffffffffffffffff16815260200160608152602001606081526020016060815260200160608152602001600015158152602001600015158152602001606081525090565b8280548282559060005260206000209081019282156120f2579160200282015b828111156120f15782518260006101000a81548173ffffffffffffffffffffffffffffffffffffffff021916908373ffffffffffffffffffffffffffffffffffffffff16021790555091602001919060010190612099565b5b5090506120ff91906121ad565b5090565b604051806101000160405280600073ffffffffffffffffffffffffffffffffffffffff1681526020016060815260200160608152602001600081526020016000815260200160608152602001606081526020016000151581525090565b82805482825590600052602060002090810192821561219c579160200282015b8281111561219b578251825591602001919060010190612180565b5b5090506121a991906121ad565b5090565b5b808211156121c65760008160009055506001016121ae565b5090565b6000604051905090565b600080fd5b600080fd5b600073ffffffffffffffffffffffffffffffffffffffff82169050919050565b6000612209826121de565b9050919050565b612219816121fe565b811461222457600080fd5b50565b60008135905061223681612210565b92915050565b6000819050919050565b61224f8161223c565b811461225a57600080fd5b50565b60008135905061226c81612246565b92915050565b600080fd5b600080fd5b6000601f19601f8301169050919050565b7f4e487b7100000000000000000000000000000000000000000000000000000000600052604160045260246000fd5b6122c58261227c565b810181811067ffffffffffffffff821117156122e4576122e361228d565b5b80604052505050565b60006122f76121ca565b905061230382826122bc565b919050565b600067ffffffffffffffff8211156123235761232261228d565b5b61232c8261227c565b9050602081019050919050565b82818337600083830152505050565b600061235b61235684612308565b6122ed565b90508281526020810184848401111561237757612376612277565b5b612382848285612339565b509392505050565b600082601f83011261239f5761239e612272565b5b81356123af848260208601612348565b91505092915050565b600080600080600080600060e0888a0312156123d7576123d66121d4565b5b60006123e58a828b01612227565b97505060206123f68a828b0161225d565b96505060406124078a828b0161225d565b955050606088013567ffffffffffffffff811115612428576124276121d9565b5b6124348a828b0161238a565b945050608088013567ffffffffffffffff811115612455576124546121d9565b5b6124618a828b0161238a565b93505060a088013567ffffffffffffffff811115612482576124816121d9565b5b61248e8a828b0161238a565b92505060c088013567ffffffffffffffff8111156124af576124ae6121d9565b5b6124bb8a828b0161238a565b91505092959891949750929550565b6000602082840312156124e0576124df6121d4565b5b60006124ee8482850161225d565b91505092915050565b6125008161223c565b82525050565b61250f816121fe565b82525050565b600081519050919050565b600082825260208201905092915050565b60005b8381101561254f578082015181840152602081019050612534565b8381111561255e576000848401525b50505050565b600061256f82612515565b6125798185612520565b9350612589818560208601612531565b6125928161227c565b840191505092915050565b60008115159050919050565b6125b28161259d565b82525050565b6000610160820190506125ce600083018e6124f7565b6125db602083018d612506565b81810360408301526125ed818c612564565b90508181036060830152612601818b612564565b90508181036080830152612615818a612564565b905081810360a08301526126298189612564565b905061263860c08301886124f7565b61264560e08301876124f7565b6126536101008301866124f7565b6126616101208301856124f7565b61266f6101408301846125a9565b9c9b505050505050505050505050565b600060208284031215612695576126946121d4565b5b60006126a384828501612227565b91505092915050565b60006020820190506126c160008301846124f7565b92915050565b6000806000606084860312156126e0576126df6121d4565b5b60006126ee86828701612227565b935050602084013567ffffffffffffffff81111561270f5761270e6121d9565b5b61271b8682870161238a565b925050604084013567ffffffffffffffff81111561273c5761273b6121d9565b5b6127488682870161238a565b9150509250925092565b600060a0820190506127676000830188612506565b81810360208301526127798187612564565b9050818103604083015261278d8186612564565b905061279c60608301856124f7565b6127a960808301846124f7565b9695505050505050565b7f4163636f756e7420646f65736e27742065786973740000000000000000000000600082015250565b60006127e9601583612520565b91506127f4826127b3565b602082019050919050565b60006020820190508181036000830152612818816127dc565b9050919050565b7f4e487b7100000000000000000000000000000000000000000000000000000000600052602260045260246000fd5b6000600282049050600182168061286657607f821691505b6020821081036128795761287861281f565b5b50919050565b60008190508160005260206000209050919050565b60006020601f8301049050919050565b600082821b905092915050565b6000600883026128e17fffffffffffffffffffffffffffffffffffffffffffffffffffffffffffffffff826128a4565b6128eb86836128a4565b95508019841693508086168417925050509392505050565b6000819050919050565b600061292861292361291e8461223c565b612903565b61223c565b9050919050565b6000819050919050565b6129428361290d565b61295661294e8261292f565b8484546128b1565b825550505050565b600090565b61296b61295e565b612976818484612939565b505050565b5b8181101561299a5761298f600082612963565b60018101905061297c565b5050565b601f8211156129df576129b08161287f565b6129b984612894565b810160208510156129c8578190505b6129dc6129d485612894565b83018261297b565b50505b505050565b600082821c905092915050565b6000612a02600019846008026129e4565b1980831691505092915050565b6000612a1b83836129f1565b9150826002028217905092915050565b612a3482612515565b67ffffffffffffffff811115612a4d57612a4c61228d565b5b612a57825461284e565b612a6282828561299e565b600060209050601f831160018114612a955760008415612a83578287015190505b612a8d8582612a0f565b865550612af5565b601f198416612aa38661287f565b60005b82811015612acb57848901518255600182019150602085019450602081019050612aa6565b86831015612ae85784890151612ae4601f8916826129f1565b8355505b6001600288020188555050505b505050505050565b7f4e487b7100000000000000000000000000000000000000000000000000000000600052601160045260246000fd5b6000612b378261223c565b91507fffffffffffffffffffffffffffffffffffffffffffffffffffffffffffffffff8203612b6957612b68612afd565b5b600182019050919050565b7f446561646c696e65206861736e2774206265656e207265616368656420796574600082015250565b6000612baa602083612520565b9150612bb582612b74565b602082019050919050565b60006020820190508181036000830152612bd981612b9d565b9050919050565b7f4e487b7100000000000000000000000000000000000000000000000000000000600052603260045260246000fd5b7f476f616c20646f65736e27742065786973740000000000000000000000000000600082015250565b6000612c45601283612520565b9150612c5082612c0f565b602082019050919050565b60006020820190508181036000830152612c7481612c38565b9050919050565b7f46756e64732063616e206f6e6c792062652073656e74206f6e636520676f616c60008201527f20686173206265656e2072656163686564000000000000000000000000000000602082015250565b6000612cd7603183612520565b9150612ce282612c7b565b604082019050919050565b60006020820190508181036000830152612d0681612cca565b9050919050565b7f4163636f756e7420616c72656164792065786973747300000000000000000000600082015250565b6000612d43601683612520565b9150612d4e82612d0d565b602082019050919050565b60006020820190508181036000830152612d7281612d36565b9050919050565b7f476f616c206973206e6f206c6f6e676572206163746976650000000000000000600082015250565b6000612daf601883612520565b9150612dba82612d79565b602082019050919050565b60006020820190508181036000830152612dde81612da2565b9050919050565b7f4d6573736167652073656e64657220697320676f616c2773206f776e65720000600082015250565b6000612e1b601e83612520565b9150612e2682612de5565b602082019050919050565b60006020820190508181036000830152612e4a81612e0e565b9050919050565b6000612e5c8261223c565b9150612e678361223c565b9250827fffffffffffffffffffffffffffffffffffffffffffffffffffffffffffffffff03821115612e9c57612e9b612afd565b5b828201905092915050565b6000612eb28261223c565b9150612ebd8361223c565b9250817fffffffffffffffffffffffffffffffffffffffffffffffffffffffffffffffff0483118215151615612ef657612ef5612afd565b5b828202905092915050565b6000612f0c8261223c565b915060008203612f1f57612f1e612afd565b5b600182039050919050565b7f537472696e67733a20686578206c656e67746820696e73756666696369656e74600082015250565b6000612f60602083612520565b9150612f6b82612f2a565b602082019050919050565b60006020820190508181036000830152612f8f81612f53565b9050919050565b6000612fa18261223c565b9150612fac8361223c565b925082821015612fbf57612fbe612afd565b5b82820390509291505056fea2646970667358221220cad47a92e3e8db1717d219834f8ed9c66dd8f4eab15a8feb8d03eb38d33b359564736f6c634300080f0033",
  "immutableReferences": {},
  "source": "pragma solidity >=0.4.22 <0.9.0;\r\n\r\nimport \"@openzeppelin/contracts/utils/Strings.sol\";\r\nimport \"@openzeppelin/contracts/utils/math/SafeMath.sol\";\r\n\r\ncontract Crowdfund {\r\n    using Strings for string;\r\n    using SafeMath for uint256;\r\n\r\n    event goalFunded(address indexed _from, uint256 indexed _goalId);\r\n    event goalCompleted(uint256 indexed _goalId);\r\n    event goalCreated(uint256 indexed _goalId);\r\n    event refundSent(uint256 indexed _goalId);\r\n    event debugMessage(string _message);\r\n    event debugValue(string _description, uint256 _value);\r\n    event debugBool(string _description, bool _bool);\r\n\r\n    struct Goal {\r\n        uint256 id;\r\n        uint256 maxAmount;\r\n        uint256 currentAmount;\r\n        uint256 createdAt;\r\n        uint256 deadline;\r\n        address owner;\r\n        string title;\r\n        string description;\r\n        string details;\r\n        string picture;\r\n        bool isActive;\r\n        bool exists;\r\n        address[] funderAddresses;\r\n    }\r\n\r\n    struct User {\r\n        address id;\r\n        string username;\r\n        string picture;\r\n        uint256 createdAt;\r\n        uint256 activeGoalCount;\r\n        uint256[] goals;\r\n        uint256[] goalsHelped;\r\n        bool exists;\r\n    }\r\n\r\n    mapping(address => User) accounts;\r\n    mapping(uint256 => Goal) goals;\r\n    mapping(uint256 => mapping(address => uint256)) goalFunders;\r\n\r\n    uint256 goalNumber = 0;\r\n\r\n    modifier accountExists(address _owner) {\r\n        require(accounts[_owner].exists == true, \"Account doesn't exist\");\r\n        _;\r\n    }\r\n\r\n    modifier notOwner(address _owner) {\r\n        require(msg.sender != _owner, \"Message sender is goal's owner\");\r\n        _;\r\n    }\r\n\r\n    modifier goalExists(uint256 _goalId) {\r\n        require(goals[_goalId].exists == true, \"Goal doesn't exist\");\r\n        _;\r\n    }\r\n\r\n    modifier goalIsActive(uint256 _goalId) {\r\n        require(goals[_goalId].isActive == true, \"Goal is no longer active\");\r\n        _;\r\n    }\r\n\r\n    function createAccount(address _owner) external {\r\n        require(accounts[_owner].exists == false, \"Account already exists\");\r\n        User memory newUser;\r\n        newUser.id = _owner;\r\n        newUser.username = Strings.toHexString(uint256(uint160(_owner)), 20);\r\n        newUser.createdAt = block.timestamp;\r\n        newUser.activeGoalCount = 0;\r\n        newUser.exists = true;\r\n\r\n        accounts[_owner] = newUser;\r\n    }\r\n\r\n    function updateAccount(\r\n        address _owner,\r\n        string memory _userName,\r\n        string memory _picture\r\n    ) external accountExists(_owner) {\r\n        accounts[_owner].username = _userName;\r\n        accounts[_owner].picture = _picture;\r\n    }\r\n\r\n    function retrieveAccount(address _owner)\r\n        external\r\n        view\r\n        accountExists(_owner)\r\n        returns (\r\n            address,\r\n            string memory,\r\n            string memory,\r\n            uint256,\r\n            uint256\r\n        )\r\n    {\r\n        User memory user = accounts[_owner];\r\n\r\n        return (\r\n            user.id,\r\n            user.username,\r\n            user.picture,\r\n            user.createdAt,\r\n            user.activeGoalCount\r\n        );\r\n    }\r\n\r\n    function createGoal(\r\n        address _owner,\r\n        uint256 _maxAmount,\r\n        uint256 _deadline,\r\n        string memory _title,\r\n        string memory _description,\r\n        string memory _details,\r\n        string memory _picture\r\n    ) external accountExists(_owner) {\r\n        Goal memory newGoal;\r\n        newGoal.id = goalNumber;\r\n        newGoal.owner = _owner;\r\n        newGoal.maxAmount = _maxAmount;\r\n        newGoal.currentAmount = 0;\r\n        newGoal.createdAt = block.timestamp;\r\n        newGoal.deadline = _deadline;\r\n        newGoal.title = _title;\r\n        newGoal.description = _description;\r\n        newGoal.details = _details;\r\n        newGoal.picture = _picture;\r\n        newGoal.isActive = true;\r\n        newGoal.exists = true;\r\n\r\n        goals[goalNumber] = newGoal;\r\n        accounts[_owner].goals.push(goalNumber);\r\n        accounts[_owner].activeGoalCount = accounts[_owner].activeGoalCount.add(\r\n            1\r\n        );\r\n        goalNumber++;\r\n\r\n        emit goalCreated(newGoal.id);\r\n    }\r\n\r\n    function retrieveGoal(uint256 _goalId)\r\n        public\r\n        view\r\n        goalExists(_goalId)\r\n        returns (\r\n            uint256,\r\n            address,\r\n            string memory,\r\n            string memory,\r\n            string memory,\r\n            string memory,\r\n            uint256,\r\n            uint256,\r\n            uint256,\r\n            uint256,\r\n            bool\r\n        )\r\n    {\r\n        Goal memory goal = goals[_goalId];\r\n\r\n        return (\r\n            goal.id,\r\n            goal.owner,\r\n            goal.title,\r\n            goal.description,\r\n            goal.details,\r\n            goal.picture,\r\n            goal.createdAt,\r\n            goal.deadline,\r\n            goal.maxAmount,\r\n            goal.currentAmount,\r\n            goal.isActive\r\n        );\r\n    }\r\n\r\n    function retrieveGoalCount(address _owner) external view returns (uint256) {\r\n        return accounts[_owner].goals.length;\r\n    }\r\n\r\n    function fundGoal(uint256 _goalId)\r\n        external\r\n        payable\r\n        accountExists(msg.sender)\r\n        goalExists(_goalId)\r\n        goalIsActive(_goalId)\r\n        notOwner(goals[_goalId].owner)\r\n    {\r\n        goals[_goalId].currentAmount = goals[_goalId].currentAmount.add(\r\n            msg.value\r\n        );\r\n\r\n        if (!isRecurringFunder(msg.sender, _goalId)) {\r\n            goals[_goalId].funderAddresses.push(msg.sender);\r\n        }\r\n\r\n        goalFunders[_goalId][msg.sender] = goalFunders[_goalId][msg.sender].add(\r\n            msg.value\r\n        );\r\n\r\n        if (!isRecurringFundee(msg.sender, _goalId)) {\r\n            accounts[msg.sender].goalsHelped.push(_goalId);\r\n        }\r\n\r\n        emit goalFunded(msg.sender, _goalId);\r\n\r\n        if (isFundCompleted(_goalId)) {\r\n            deactivateGoal(_goalId);\r\n            sendFunds(_goalId);\r\n        }\r\n    }\r\n\r\n    function sendFunds(uint256 _goalId) public payable {\r\n        require(\r\n            isFundCompleted(_goalId),\r\n            \"Funds can only be sent once goal has been reached\"\r\n        );\r\n        address _owner = goals[_goalId].owner;\r\n        address payable _account = payable(_owner);\r\n        _account.transfer(goals[_goalId].currentAmount);\r\n        emit goalCompleted(_goalId);\r\n    }\r\n\r\n    function refundFunders(uint256 _goalId) public payable {\r\n        require(\r\n            isDeadlineReached(_goalId) &&\r\n                !isFundCompleted(_goalId) &&\r\n                msg.sender == goals[_goalId].owner,\r\n            \"Deadline hasn't been reached yet\"\r\n        );\r\n        address[] memory funderAddresses = goals[_goalId].funderAddresses;\r\n        uint256 fundersCount = goals[_goalId].funderAddresses.length;\r\n        for (uint256 i = 0; i < fundersCount; i++) {\r\n            address payable _account = payable(funderAddresses[i]);\r\n            _account.transfer(goalFunders[_goalId][funderAddresses[i]]);\r\n        }\r\n\r\n        emit refundSent(_goalId);\r\n    }\r\n\r\n    function deactivateGoal(uint256 _goalId) private {\r\n        goals[_goalId].isActive = false;\r\n        accounts[goals[_goalId].owner].activeGoalCount = accounts[\r\n            goals[_goalId].owner\r\n        ].activeGoalCount.sub(1);\r\n    }\r\n\r\n    function isDeadlineReached(uint256 _goalId) private view returns (bool) {\r\n        bool res = false;\r\n        if (block.timestamp >= goals[_goalId].deadline) {\r\n            res = true;\r\n        }\r\n        return res;\r\n    }\r\n\r\n    function isFundCompleted(uint256 _goalId) private view returns (bool) {\r\n        bool res = false;\r\n        if (goals[_goalId].currentAmount >= goals[_goalId].maxAmount) {\r\n            res = true;\r\n        }\r\n\r\n        return res;\r\n    }\r\n\r\n    function isRecurringFunder(address _funder, uint256 _goalId)\r\n        private\r\n        view\r\n        returns (bool)\r\n    {\r\n        bool res = false;\r\n        uint256 funderCount = goals[_goalId].funderAddresses.length;\r\n        for (uint256 i = 0; i < funderCount; i++) {\r\n            if (goals[_goalId].funderAddresses[i] == _funder) {\r\n                res = true;\r\n                break;\r\n            }\r\n        }\r\n        return res;\r\n    }\r\n\r\n    function isRecurringFundee(address _funder, uint256 _goalId)\r\n        private\r\n        view\r\n        returns (bool)\r\n    {\r\n        bool res = false;\r\n        for (uint256 i = 0; i < accounts[_funder].goalsHelped.length; i++) {\r\n            if (accounts[_funder].goalsHelped[i] == _goalId) res = true;\r\n        }\r\n\r\n        return res;\r\n    }\r\n}\r\n",
  "sourcePath": "D:\\VSCode\\blockchain\\fundfinder\\contracts\\contracts\\Crowdfund.sol",
  "compiler": {
    "name": "solc",
    "version": "0.8.15+commit.e14f2714.Emscripten.clang"
  },
  "schemaVersion": "3.4.8",
  "updatedAt": "2022-08-14T12:39:01.086Z",
  "devdoc": {
    "kind": "dev",
    "methods": {},
    "version": 1
  },
  "userdoc": {
    "kind": "user",
    "methods": {},
    "version": 1
  }
}