{
  "contractName": "Crowdfund",
  "abi": [
    {
      "anonymous": false,
      "inputs": [
        {
          "indexed": false,
          "internalType": "string",
          "name": "_description",
          "type": "string"
        },
        {
          "indexed": false,
          "internalType": "bool",
          "name": "_bool",
          "type": "bool"
        }
      ],
      "name": "debugBool",
      "type": "event"
    },
    {
      "anonymous": false,
      "inputs": [
        {
          "indexed": false,
          "internalType": "string",
          "name": "_message",
          "type": "string"
        }
      ],
      "name": "debugMessage",
      "type": "event"
    },
    {
      "anonymous": false,
      "inputs": [
        {
          "indexed": false,
          "internalType": "string",
          "name": "_description",
          "type": "string"
        },
        {
          "indexed": false,
          "internalType": "uint256",
          "name": "_value",
          "type": "uint256"
        }
      ],
      "name": "debugValue",
      "type": "event"
    },
    {
      "anonymous": false,
      "inputs": [
        {
          "indexed": true,
          "internalType": "uint256",
          "name": "_goalId",
          "type": "uint256"
        }
      ],
      "name": "goalCompleted",
      "type": "event"
    },
    {
      "anonymous": false,
      "inputs": [
        {
          "indexed": true,
          "internalType": "uint256",
          "name": "_goalId",
          "type": "uint256"
        }
      ],
      "name": "goalCreated",
      "type": "event"
    },
    {
      "anonymous": false,
      "inputs": [
        {
          "indexed": true,
          "internalType": "address",
          "name": "_from",
          "type": "address"
        },
        {
          "indexed": true,
          "internalType": "uint256",
          "name": "_goalId",
          "type": "uint256"
        }
      ],
      "name": "goalFunded",
      "type": "event"
    },
    {
      "anonymous": false,
      "inputs": [
        {
          "indexed": true,
          "internalType": "uint256",
          "name": "_goalId",
          "type": "uint256"
        }
      ],
      "name": "refundSent",
      "type": "event"
    },
    {
      "inputs": [],
      "name": "goalNumber",
      "outputs": [
        {
          "internalType": "uint256",
          "name": "",
          "type": "uint256"
        }
      ],
      "stateMutability": "view",
      "type": "function",
      "constant": true
    },
    {
      "inputs": [
        {
          "internalType": "address",
          "name": "_owner",
          "type": "address"
        }
      ],
      "name": "createAccount",
      "outputs": [],
      "stateMutability": "nonpayable",
      "type": "function"
    },
    {
      "inputs": [
        {
          "internalType": "address",
          "name": "_owner",
          "type": "address"
        },
        {
          "internalType": "string",
          "name": "_userName",
          "type": "string"
        },
        {
          "internalType": "string",
          "name": "_picture",
          "type": "string"
        }
      ],
      "name": "updateAccount",
      "outputs": [],
      "stateMutability": "nonpayable",
      "type": "function"
    },
    {
      "inputs": [
        {
          "internalType": "address",
          "name": "_owner",
          "type": "address"
        }
      ],
      "name": "retrieveAccount",
      "outputs": [
        {
          "internalType": "address",
          "name": "",
          "type": "address"
        },
        {
          "internalType": "string",
          "name": "",
          "type": "string"
        },
        {
          "internalType": "string",
          "name": "",
          "type": "string"
        },
        {
          "internalType": "uint256",
          "name": "",
          "type": "uint256"
        },
        {
          "internalType": "uint256",
          "name": "",
          "type": "uint256"
        }
      ],
      "stateMutability": "view",
      "type": "function",
      "constant": true
    },
    {
      "inputs": [
        {
          "internalType": "address",
          "name": "_owner",
          "type": "address"
        },
        {
          "internalType": "uint256",
          "name": "_maxAmount",
          "type": "uint256"
        },
        {
          "internalType": "uint256",
          "name": "_deadline",
          "type": "uint256"
        },
        {
          "internalType": "string",
          "name": "_title",
          "type": "string"
        },
        {
          "internalType": "string",
          "name": "_description",
          "type": "string"
        },
        {
          "internalType": "string",
          "name": "_details",
          "type": "string"
        },
        {
          "internalType": "string",
          "name": "_picture",
          "type": "string"
        }
      ],
      "name": "createGoal",
      "outputs": [],
      "stateMutability": "nonpayable",
      "type": "function"
    },
    {
      "inputs": [
        {
          "internalType": "uint256",
          "name": "_goalId",
          "type": "uint256"
        }
      ],
      "name": "retrieveGoal",
      "outputs": [
        {
          "internalType": "uint256",
          "name": "",
          "type": "uint256"
        },
        {
          "internalType": "address",
          "name": "",
          "type": "address"
        },
        {
          "internalType": "string",
          "name": "",
          "type": "string"
        },
        {
          "internalType": "string",
          "name": "",
          "type": "string"
        },
        {
          "internalType": "string",
          "name": "",
          "type": "string"
        },
        {
          "internalType": "string",
          "name": "",
          "type": "string"
        },
        {
          "internalType": "uint256",
          "name": "",
          "type": "uint256"
        },
        {
          "internalType": "uint256",
          "name": "",
          "type": "uint256"
        },
        {
          "internalType": "uint256",
          "name": "",
          "type": "uint256"
        },
        {
          "internalType": "uint256",
          "name": "",
          "type": "uint256"
        },
        {
          "internalType": "bool",
          "name": "",
          "type": "bool"
        }
      ],
      "stateMutability": "view",
      "type": "function",
      "constant": true
    },
    {
      "inputs": [
        {
          "internalType": "address",
          "name": "_owner",
          "type": "address"
        }
      ],
      "name": "retrieveGoalsCount",
      "outputs": [
        {
          "internalType": "uint256",
          "name": "",
          "type": "uint256"
        }
      ],
      "stateMutability": "view",
      "type": "function",
      "constant": true
    },
    {
      "inputs": [
        {
          "internalType": "address",
          "name": "_owner",
          "type": "address"
        },
        {
          "internalType": "uint256",
          "name": "_index",
          "type": "uint256"
        }
      ],
      "name": "retrieveGoalIdByIndex",
      "outputs": [
        {
          "internalType": "uint256",
          "name": "",
          "type": "uint256"
        }
      ],
      "stateMutability": "view",
      "type": "function",
      "constant": true
    },
    {
      "inputs": [
        {
          "internalType": "address",
          "name": "_owner",
          "type": "address"
        }
      ],
      "name": "retrieveGoalsHelpedCount",
      "outputs": [
        {
          "internalType": "uint256",
          "name": "",
          "type": "uint256"
        }
      ],
      "stateMutability": "view",
      "type": "function",
      "constant": true
    },
    {
      "inputs": [
        {
          "internalType": "address",
          "name": "_owner",
          "type": "address"
        },
        {
          "internalType": "uint256",
          "name": "_index",
          "type": "uint256"
        }
      ],
      "name": "retrieveGoalHelpedIdByIndex",
      "outputs": [
        {
          "internalType": "uint256",
          "name": "",
          "type": "uint256"
        }
      ],
      "stateMutability": "view",
      "type": "function",
      "constant": true
    },
    {
      "inputs": [
        {
          "internalType": "uint256",
          "name": "_goalId",
          "type": "uint256"
        }
      ],
      "name": "retrieveFunderAddressesCount",
      "outputs": [
        {
          "internalType": "uint256",
          "name": "",
          "type": "uint256"
        }
      ],
      "stateMutability": "view",
      "type": "function",
      "constant": true
    },
    {
      "inputs": [
        {
          "internalType": "uint256",
          "name": "_goalId",
          "type": "uint256"
        },
        {
          "internalType": "uint256",
          "name": "_index",
          "type": "uint256"
        }
      ],
      "name": "retrieveFunderAddressByIndex",
      "outputs": [
        {
          "internalType": "address",
          "name": "",
          "type": "address"
        }
      ],
      "stateMutability": "view",
      "type": "function",
      "constant": true
    },
    {
      "inputs": [
        {
          "internalType": "uint256",
          "name": "_goalId",
          "type": "uint256"
        }
      ],
      "name": "fundGoal",
      "outputs": [],
      "stateMutability": "payable",
      "type": "function",
      "payable": true
    },
    {
      "inputs": [
        {
          "internalType": "uint256",
          "name": "_goalId",
          "type": "uint256"
        }
      ],
      "name": "sendFunds",
      "outputs": [],
      "stateMutability": "payable",
      "type": "function",
      "payable": true
    },
    {
      "inputs": [
        {
          "internalType": "uint256",
          "name": "_goalId",
          "type": "uint256"
        }
      ],
      "name": "refundFunders",
      "outputs": [],
      "stateMutability": "payable",
      "type": "function",
      "payable": true
    }
  ],
  "bytecode": "0x6080604052600060035534801561001557600080fd5b506133fd806100256000396000f3fe6080604052600436106100e85760003560e01c80638b2810181161008a578063ae304d1911610059578063ae304d1914610306578063b945606c14610343578063bd9eab6114610384578063c027fccd146103c1576100e8565b80638b2810181461025b5780639859387b146102775780639929b83f146102a0578063addb29fb146102c9576100e8565b8063338dfdab116100c6578063338dfdab146101925780634aab2bdd146101bb5780637b09e3ca146101d757806388f7b28d1461021e576100e8565b8063022a85bc146100ed57806326cfd8c81461012a57806332a8edf114610167575b600080fd5b3480156100f957600080fd5b50610114600480360381019061010f919061259e565b6103dd565b60405161012191906125e4565b60405180910390f35b34801561013657600080fd5b50610151600480360381019061014c919061262b565b61042b565b60405161015e919061267a565b60405180910390f35b34801561017357600080fd5b5061017c610488565b60405161018991906125e4565b60405180910390f35b34801561019e57600080fd5b506101b960048036038101906101b491906127db565b61048e565b005b6101d560048036038101906101d091906128ed565b610887565b005b3480156101e357600080fd5b506101fe60048036038101906101f991906128ed565b610b2d565b6040516102159b9a999897969594939291906129bd565b60405180910390f35b34801561022a57600080fd5b5061024560048036038101906102409190612a84565b610fc1565b60405161025291906125e4565b60405180910390f35b610275600480360381019061027091906128ed565b611029565b005b34801561028357600080fd5b5061029e6004803603810190610299919061259e565b611140565b005b3480156102ac57600080fd5b506102c760048036038101906102c29190612ac4565b61138b565b005b3480156102d557600080fd5b506102f060048036038101906102eb919061259e565b6114c5565b6040516102fd91906125e4565b60405180910390f35b34801561031257600080fd5b5061032d60048036038101906103289190612a84565b611513565b60405161033a91906125e4565b60405180910390f35b34801561034f57600080fd5b5061036a6004803603810190610365919061259e565b61157b565b60405161037b959493929190612b4f565b60405180910390f35b34801561039057600080fd5b506103ab60048036038101906103a691906128ed565b6118ee565b6040516103b891906125e4565b60405180910390f35b6103db60048036038101906103d691906128ed565b611911565b005b60008060008373ffffffffffffffffffffffffffffffffffffffff1673ffffffffffffffffffffffffffffffffffffffff168152602001908152602001600020600601805490509050919050565b600060016000848152602001908152602001600020600b01828154811061045557610454612bb0565b5b9060005260206000200160009054906101000a900473ffffffffffffffffffffffffffffffffffffffff16905092915050565b60035481565b86600115156000808373ffffffffffffffffffffffffffffffffffffffff1673ffffffffffffffffffffffffffffffffffffffff16815260200190815260200160002060070160009054906101000a900460ff16151514610524576040517f08c379a000000000000000000000000000000000000000000000000000000000815260040161051b90612c2b565b60405180910390fd5b61052c612359565b600354816000018181525050888160a0019073ffffffffffffffffffffffffffffffffffffffff16908173ffffffffffffffffffffffffffffffffffffffff16815250508781602001818152505060008160400181815250504281606001818152505086816080018181525050858160c00181905250848160e00181905250838161010001819052508281610120018190525060018161014001901515908115158152505060018161016001901515908115158152505080600160006003548152602001908152602001600020600082015181600001556020820151816001015560408201518160020155606082015181600301556080820151816004015560a08201518160050160006101000a81548173ffffffffffffffffffffffffffffffffffffffff021916908373ffffffffffffffffffffffffffffffffffffffff16021790555060c08201518160060190816106879190612e57565b5060e082015181600701908161069d9190612e57565b506101008201518160080190816106b49190612e57565b506101208201518160090190816106cb9190612e57565b5061014082015181600a0160006101000a81548160ff02191690831515021790555061016082015181600a0160016101000a81548160ff02191690831515021790555061018082015181600b01908051906020019061072b9291906123db565b509050506000808a73ffffffffffffffffffffffffffffffffffffffff1673ffffffffffffffffffffffffffffffffffffffff16815260200190815260200160002060050160035490806001815401808255809150506001900390600052602060002001600090919091909150556107ee60016000808c73ffffffffffffffffffffffffffffffffffffffff1673ffffffffffffffffffffffffffffffffffffffff16815260200190815260200160002060040154611d8590919063ffffffff16565b6000808b73ffffffffffffffffffffffffffffffffffffffff1673ffffffffffffffffffffffffffffffffffffffff168152602001908152602001600020600401819055506003600081548092919061084690612f58565b919050555080600001517f77c189eb2314929aca9008b18ba4ceaab74dc71e29973493befaf3afc76afd7360405160405180910390a2505050505050505050565b61089081611d9b565b80156108a257506108a081611dcd565b155b801561090f57506001600082815260200190815260200160002060050160009054906101000a900473ffffffffffffffffffffffffffffffffffffffff1673ffffffffffffffffffffffffffffffffffffffff163373ffffffffffffffffffffffffffffffffffffffff16145b61094e576040517f08c379a000000000000000000000000000000000000000000000000000000000815260040161094590612fec565b60405180910390fd5b600060016000838152602001908152602001600020600b018054806020026020016040519081016040528092919081815260200182805480156109e657602002820191906000526020600020905b8160009054906101000a900473ffffffffffffffffffffffffffffffffffffffff1673ffffffffffffffffffffffffffffffffffffffff168152602001906001019080831161099c575b50505050509050600060016000848152602001908152602001600020600b0180549050905060005b81811015610afa576000838281518110610a2b57610a2a612bb0565b5b602002602001015190508073ffffffffffffffffffffffffffffffffffffffff166108fc600260008881526020019081526020016000206000878681518110610a7757610a76612bb0565b5b602002602001015173ffffffffffffffffffffffffffffffffffffffff1673ffffffffffffffffffffffffffffffffffffffff168152602001908152602001600020549081150290604051600060405180830381858888f19350505050158015610ae5573d6000803e3d6000fd5b50508080610af290612f58565b915050610a0e565b50827f97218737de18cd311ea60521421d0ce6b38ee312c84803e7c672cbe4bac456e060405160405180910390a2505050565b60008060608060608060008060008060008b6001151560016000838152602001908152602001600020600a0160019054906101000a900460ff16151514610ba9576040517f08c379a0000000000000000000000000000000000000000000000000000000008152600401610ba090613058565b60405180910390fd5b6000600160008f8152602001908152602001600020604051806101a001604052908160008201548152602001600182015481526020016002820154815260200160038201548152602001600482015481526020016005820160009054906101000a900473ffffffffffffffffffffffffffffffffffffffff1673ffffffffffffffffffffffffffffffffffffffff1673ffffffffffffffffffffffffffffffffffffffff168152602001600682018054610c6290612c7a565b80601f0160208091040260200160405190810160405280929190818152602001828054610c8e90612c7a565b8015610cdb5780601f10610cb057610100808354040283529160200191610cdb565b820191906000526020600020905b815481529060010190602001808311610cbe57829003601f168201915b50505050508152602001600782018054610cf490612c7a565b80601f0160208091040260200160405190810160405280929190818152602001828054610d2090612c7a565b8015610d6d5780601f10610d4257610100808354040283529160200191610d6d565b820191906000526020600020905b815481529060010190602001808311610d5057829003601f168201915b50505050508152602001600882018054610d8690612c7a565b80601f0160208091040260200160405190810160405280929190818152602001828054610db290612c7a565b8015610dff5780601f10610dd457610100808354040283529160200191610dff565b820191906000526020600020905b815481529060010190602001808311610de257829003601f168201915b50505050508152602001600982018054610e1890612c7a565b80601f0160208091040260200160405190810160405280929190818152602001828054610e4490612c7a565b8015610e915780601f10610e6657610100808354040283529160200191610e91565b820191906000526020600020905b815481529060010190602001808311610e7457829003601f168201915b50505050508152602001600a820160009054906101000a900460ff16151515158152602001600a820160019054906101000a900460ff16151515158152602001600b8201805480602002602001604051908101604052809291908181526020018280548015610f5557602002820191906000526020600020905b8160009054906101000a900473ffffffffffffffffffffffffffffffffffffffff1673ffffffffffffffffffffffffffffffffffffffff1681526020019060010190808311610f0b575b505050505081525050905080600001518160a001518260c001518360e0015184610100015185610120015186606001518760800151886020015189604001518a61014001519c509c509c509c509c509c509c509c509c509c509c50505091939597999b90929496989a50565b60008060008473ffffffffffffffffffffffffffffffffffffffff1673ffffffffffffffffffffffffffffffffffffffff168152602001908152602001600020600601828154811061101657611015612bb0565b5b9060005260206000200154905092915050565b61103281611dcd565b611071576040517f08c379a0000000000000000000000000000000000000000000000000000000008152600401611068906130ea565b60405180910390fd5b60006001600083815260200190815260200160002060050160009054906101000a900473ffffffffffffffffffffffffffffffffffffffff16905060008190508073ffffffffffffffffffffffffffffffffffffffff166108fc60016000868152602001908152602001600020600201549081150290604051600060405180830381858888f1935050505015801561110d573d6000803e3d6000fd5b50827f0ee55c7e3cf874fa843ec5c1223737604860eb7fbea67ad58a6ba9d4f866498560405160405180910390a2505050565b600015156000808373ffffffffffffffffffffffffffffffffffffffff1673ffffffffffffffffffffffffffffffffffffffff16815260200190815260200160002060070160009054906101000a900460ff161515146111d5576040517f08c379a00000000000000000000000000000000000000000000000000000000081526004016111cc90613156565b60405180910390fd5b6111dd612465565b81816000019073ffffffffffffffffffffffffffffffffffffffff16908173ffffffffffffffffffffffffffffffffffffffff16815250506112368273ffffffffffffffffffffffffffffffffffffffff166014611e15565b816020018190525042816060018181525050600081608001818152505060018160e0019015159081151581525050806000808473ffffffffffffffffffffffffffffffffffffffff1673ffffffffffffffffffffffffffffffffffffffff16815260200190815260200160002060008201518160000160006101000a81548173ffffffffffffffffffffffffffffffffffffffff021916908373ffffffffffffffffffffffffffffffffffffffff16021790555060208201518160010190816112ff9190612e57565b5060408201518160020190816113159190612e57565b50606082015181600301556080820151816004015560a08201518160050190805190602001906113469291906124c2565b5060c08201518160060190805190602001906113639291906124c2565b5060e08201518160070160006101000a81548160ff0219169083151502179055509050505050565b82600115156000808373ffffffffffffffffffffffffffffffffffffffff1673ffffffffffffffffffffffffffffffffffffffff16815260200190815260200160002060070160009054906101000a900460ff16151514611421576040517f08c379a000000000000000000000000000000000000000000000000000000000815260040161141890612c2b565b60405180910390fd5b826000808673ffffffffffffffffffffffffffffffffffffffff1673ffffffffffffffffffffffffffffffffffffffff168152602001908152602001600020600101908161146f9190612e57565b50816000808673ffffffffffffffffffffffffffffffffffffffff1673ffffffffffffffffffffffffffffffffffffffff16815260200190815260200160002060020190816114be9190612e57565b5050505050565b60008060008373ffffffffffffffffffffffffffffffffffffffff1673ffffffffffffffffffffffffffffffffffffffff168152602001908152602001600020600501805490509050919050565b60008060008473ffffffffffffffffffffffffffffffffffffffff1673ffffffffffffffffffffffffffffffffffffffff168152602001908152602001600020600501828154811061156857611567612bb0565b5b9060005260206000200154905092915050565b600060608060008085600115156000808373ffffffffffffffffffffffffffffffffffffffff1673ffffffffffffffffffffffffffffffffffffffff16815260200190815260200160002060070160009054906101000a900460ff16151514611619576040517f08c379a000000000000000000000000000000000000000000000000000000000815260040161161090612c2b565b60405180910390fd5b60008060008973ffffffffffffffffffffffffffffffffffffffff1673ffffffffffffffffffffffffffffffffffffffff168152602001908152602001600020604051806101000160405290816000820160009054906101000a900473ffffffffffffffffffffffffffffffffffffffff1673ffffffffffffffffffffffffffffffffffffffff1673ffffffffffffffffffffffffffffffffffffffff1681526020016001820180546116cb90612c7a565b80601f01602080910402602001604051908101604052809291908181526020018280546116f790612c7a565b80156117445780601f1061171957610100808354040283529160200191611744565b820191906000526020600020905b81548152906001019060200180831161172757829003601f168201915b5050505050815260200160028201805461175d90612c7a565b80601f016020809104026020016040519081016040528092919081815260200182805461178990612c7a565b80156117d65780601f106117ab576101008083540402835291602001916117d6565b820191906000526020600020905b8154815290600101906020018083116117b957829003601f168201915b5050505050815260200160038201548152602001600482015481526020016005820180548060200260200160405190810160405280929190818152602001828054801561184257602002820191906000526020600020905b81548152602001906001019080831161182e575b505050505081526020016006820180548060200260200160405190810160405280929190818152602001828054801561189a57602002820191906000526020600020905b815481526020019060010190808311611886575b505050505081526020016007820160009054906101000a900460ff16151515158152505090508060000151816020015182604001518360600151846080015196509650965096509650505091939590929450565b600060016000838152602001908152602001600020600b01805490509050919050565b33600115156000808373ffffffffffffffffffffffffffffffffffffffff1673ffffffffffffffffffffffffffffffffffffffff16815260200190815260200160002060070160009054906101000a900460ff161515146119a7576040517f08c379a000000000000000000000000000000000000000000000000000000000815260040161199e90612c2b565b60405180910390fd5b816001151560016000838152602001908152602001600020600a0160019054906101000a900460ff16151514611a12576040517f08c379a0000000000000000000000000000000000000000000000000000000008152600401611a0990613058565b60405180910390fd5b826001151560016000838152602001908152602001600020600a0160009054906101000a900460ff16151514611a7d576040517f08c379a0000000000000000000000000000000000000000000000000000000008152600401611a74906131c2565b60405180910390fd5b6001600085815260200190815260200160002060050160009054906101000a900473ffffffffffffffffffffffffffffffffffffffff168073ffffffffffffffffffffffffffffffffffffffff163373ffffffffffffffffffffffffffffffffffffffff1603611b22576040517f08c379a0000000000000000000000000000000000000000000000000000000008152600401611b199061322e565b60405180910390fd5b611b4b346001600088815260200190815260200160002060020154611d8590919063ffffffff16565b6001600087815260200190815260200160002060020181905550611b6f3386612051565b611beb5760016000868152602001908152602001600020600b01339080600181540180825580915050600190039060005260206000200160009091909190916101000a81548173ffffffffffffffffffffffffffffffffffffffff021916908373ffffffffffffffffffffffffffffffffffffffff1602179055505b611c4e346002600088815260200190815260200160002060003373ffffffffffffffffffffffffffffffffffffffff1673ffffffffffffffffffffffffffffffffffffffff16815260200190815260200160002054611d8590919063ffffffff16565b6002600087815260200190815260200160002060003373ffffffffffffffffffffffffffffffffffffffff1673ffffffffffffffffffffffffffffffffffffffff16815260200190815260200160002081905550611cac338661212e565b611d19576000803373ffffffffffffffffffffffffffffffffffffffff1673ffffffffffffffffffffffffffffffffffffffff1681526020019081526020016000206006018590806001815401808255809150506001900390600052602060002001600090919091909150555b843373ffffffffffffffffffffffffffffffffffffffff167f7cf2ffe49fdb179cd4e64bb1a62d5e642d749684c0de5c2cae4a877d8a4aede760405160405180910390a3611d6685611dcd565b15611d7e57611d748561220b565b611d7d85611029565b5b5050505050565b60008183611d93919061324e565b905092915050565b6000806000905060016000848152602001908152602001600020600401544210611dc457600190505b80915050919050565b600080600090506001600084815260200190815260200160002060010154600160008581526020019081526020016000206002015410611e0c57600190505b80915050919050565b606060006002836002611e2891906132a4565b611e32919061324e565b67ffffffffffffffff811115611e4b57611e4a6126b0565b5b6040519080825280601f01601f191660200182016040528015611e7d5781602001600182028036833780820191505090505b5090507f300000000000000000000000000000000000000000000000000000000000000081600081518110611eb557611eb4612bb0565b5b60200101907effffffffffffffffffffffffffffffffffffffffffffffffffffffffffffff1916908160001a9053507f780000000000000000000000000000000000000000000000000000000000000081600181518110611f1957611f18612bb0565b5b60200101907effffffffffffffffffffffffffffffffffffffffffffffffffffffffffffff1916908160001a90535060006001846002611f5991906132a4565b611f63919061324e565b90505b6001811115612003577f3031323334353637383961626364656600000000000000000000000000000000600f861660108110611fa557611fa4612bb0565b5b1a60f81b828281518110611fbc57611fbb612bb0565b5b60200101907effffffffffffffffffffffffffffffffffffffffffffffffffffffffffffff1916908160001a905350600485901c945080611ffc906132fe565b9050611f66565b5060008414612047576040517f08c379a000000000000000000000000000000000000000000000000000000000815260040161203e90613373565b60405180910390fd5b8091505092915050565b60008060009050600060016000858152602001908152602001600020600b0180549050905060005b81811015612122578573ffffffffffffffffffffffffffffffffffffffff1660016000878152602001908152602001600020600b0182815481106120c0576120bf612bb0565b5b9060005260206000200160009054906101000a900473ffffffffffffffffffffffffffffffffffffffff1673ffffffffffffffffffffffffffffffffffffffff160361210f5760019250612122565b808061211a90612f58565b915050612079565b50819250505092915050565b6000806000905060005b6000808673ffffffffffffffffffffffffffffffffffffffff1673ffffffffffffffffffffffffffffffffffffffff1681526020019081526020016000206006018054905081101561220057836000808773ffffffffffffffffffffffffffffffffffffffff1673ffffffffffffffffffffffffffffffffffffffff16815260200190815260200160002060060182815481106121d8576121d7612bb0565b5b9060005260206000200154036121ed57600191505b80806121f890612f58565b915050612138565b508091505092915050565b600060016000838152602001908152602001600020600a0160006101000a81548160ff0219169083151502179055506122c560016000806001600086815260200190815260200160002060050160009054906101000a900473ffffffffffffffffffffffffffffffffffffffff1673ffffffffffffffffffffffffffffffffffffffff1673ffffffffffffffffffffffffffffffffffffffff1681526020019081526020016000206004015461234390919063ffffffff16565b6000806001600085815260200190815260200160002060050160009054906101000a900473ffffffffffffffffffffffffffffffffffffffff1673ffffffffffffffffffffffffffffffffffffffff1673ffffffffffffffffffffffffffffffffffffffff1681526020019081526020016000206004018190555050565b600081836123519190613393565b905092915050565b604051806101a001604052806000815260200160008152602001600081526020016000815260200160008152602001600073ffffffffffffffffffffffffffffffffffffffff16815260200160608152602001606081526020016060815260200160608152602001600015158152602001600015158152602001606081525090565b828054828255906000526020600020908101928215612454579160200282015b828111156124535782518260006101000a81548173ffffffffffffffffffffffffffffffffffffffff021916908373ffffffffffffffffffffffffffffffffffffffff160217905550916020019190600101906123fb565b5b509050612461919061250f565b5090565b604051806101000160405280600073ffffffffffffffffffffffffffffffffffffffff1681526020016060815260200160608152602001600081526020016000815260200160608152602001606081526020016000151581525090565b8280548282559060005260206000209081019282156124fe579160200282015b828111156124fd5782518255916020019190600101906124e2565b5b50905061250b919061250f565b5090565b5b80821115612528576000816000905550600101612510565b5090565b6000604051905090565b600080fd5b600080fd5b600073ffffffffffffffffffffffffffffffffffffffff82169050919050565b600061256b82612540565b9050919050565b61257b81612560565b811461258657600080fd5b50565b60008135905061259881612572565b92915050565b6000602082840312156125b4576125b3612536565b5b60006125c284828501612589565b91505092915050565b6000819050919050565b6125de816125cb565b82525050565b60006020820190506125f960008301846125d5565b92915050565b612608816125cb565b811461261357600080fd5b50565b600081359050612625816125ff565b92915050565b6000806040838503121561264257612641612536565b5b600061265085828601612616565b925050602061266185828601612616565b9150509250929050565b61267481612560565b82525050565b600060208201905061268f600083018461266b565b92915050565b600080fd5b600080fd5b6000601f19601f8301169050919050565b7f4e487b7100000000000000000000000000000000000000000000000000000000600052604160045260246000fd5b6126e88261269f565b810181811067ffffffffffffffff82111715612707576127066126b0565b5b80604052505050565b600061271a61252c565b905061272682826126df565b919050565b600067ffffffffffffffff821115612746576127456126b0565b5b61274f8261269f565b9050602081019050919050565b82818337600083830152505050565b600061277e6127798461272b565b612710565b90508281526020810184848401111561279a5761279961269a565b5b6127a584828561275c565b509392505050565b600082601f8301126127c2576127c1612695565b5b81356127d284826020860161276b565b91505092915050565b600080600080600080600060e0888a0312156127fa576127f9612536565b5b60006128088a828b01612589565b97505060206128198a828b01612616565b965050604061282a8a828b01612616565b955050606088013567ffffffffffffffff81111561284b5761284a61253b565b5b6128578a828b016127ad565b945050608088013567ffffffffffffffff8111156128785761287761253b565b5b6128848a828b016127ad565b93505060a088013567ffffffffffffffff8111156128a5576128a461253b565b5b6128b18a828b016127ad565b92505060c088013567ffffffffffffffff8111156128d2576128d161253b565b5b6128de8a828b016127ad565b91505092959891949750929550565b60006020828403121561290357612902612536565b5b600061291184828501612616565b91505092915050565b600081519050919050565b600082825260208201905092915050565b60005b83811015612954578082015181840152602081019050612939565b83811115612963576000848401525b50505050565b60006129748261291a565b61297e8185612925565b935061298e818560208601612936565b6129978161269f565b840191505092915050565b60008115159050919050565b6129b7816129a2565b82525050565b6000610160820190506129d3600083018e6125d5565b6129e0602083018d61266b565b81810360408301526129f2818c612969565b90508181036060830152612a06818b612969565b90508181036080830152612a1a818a612969565b905081810360a0830152612a2e8189612969565b9050612a3d60c08301886125d5565b612a4a60e08301876125d5565b612a586101008301866125d5565b612a666101208301856125d5565b612a746101408301846129ae565b9c9b505050505050505050505050565b60008060408385031215612a9b57612a9a612536565b5b6000612aa985828601612589565b9250506020612aba85828601612616565b9150509250929050565b600080600060608486031215612add57612adc612536565b5b6000612aeb86828701612589565b935050602084013567ffffffffffffffff811115612b0c57612b0b61253b565b5b612b18868287016127ad565b925050604084013567ffffffffffffffff811115612b3957612b3861253b565b5b612b45868287016127ad565b9150509250925092565b600060a082019050612b64600083018861266b565b8181036020830152612b768187612969565b90508181036040830152612b8a8186612969565b9050612b9960608301856125d5565b612ba660808301846125d5565b9695505050505050565b7f4e487b7100000000000000000000000000000000000000000000000000000000600052603260045260246000fd5b7f4163636f756e7420646f65736e27742065786973740000000000000000000000600082015250565b6000612c15601583612925565b9150612c2082612bdf565b602082019050919050565b60006020820190508181036000830152612c4481612c08565b9050919050565b7f4e487b7100000000000000000000000000000000000000000000000000000000600052602260045260246000fd5b60006002820490506001821680612c9257607f821691505b602082108103612ca557612ca4612c4b565b5b50919050565b60008190508160005260206000209050919050565b60006020601f8301049050919050565b600082821b905092915050565b600060088302612d0d7fffffffffffffffffffffffffffffffffffffffffffffffffffffffffffffffff82612cd0565b612d178683612cd0565b95508019841693508086168417925050509392505050565b6000819050919050565b6000612d54612d4f612d4a846125cb565b612d2f565b6125cb565b9050919050565b6000819050919050565b612d6e83612d39565b612d82612d7a82612d5b565b848454612cdd565b825550505050565b600090565b612d97612d8a565b612da2818484612d65565b505050565b5b81811015612dc657612dbb600082612d8f565b600181019050612da8565b5050565b601f821115612e0b57612ddc81612cab565b612de584612cc0565b81016020851015612df4578190505b612e08612e0085612cc0565b830182612da7565b50505b505050565b600082821c905092915050565b6000612e2e60001984600802612e10565b1980831691505092915050565b6000612e478383612e1d565b9150826002028217905092915050565b612e608261291a565b67ffffffffffffffff811115612e7957612e786126b0565b5b612e838254612c7a565b612e8e828285612dca565b600060209050601f831160018114612ec15760008415612eaf578287015190505b612eb98582612e3b565b865550612f21565b601f198416612ecf86612cab565b60005b82811015612ef757848901518255600182019150602085019450602081019050612ed2565b86831015612f145784890151612f10601f891682612e1d565b8355505b6001600288020188555050505b505050505050565b7f4e487b7100000000000000000000000000000000000000000000000000000000600052601160045260246000fd5b6000612f63826125cb565b91507fffffffffffffffffffffffffffffffffffffffffffffffffffffffffffffffff8203612f9557612f94612f29565b5b600182019050919050565b7f446561646c696e65206861736e2774206265656e207265616368656420796574600082015250565b6000612fd6602083612925565b9150612fe182612fa0565b602082019050919050565b6000602082019050818103600083015261300581612fc9565b9050919050565b7f476f616c20646f65736e27742065786973740000000000000000000000000000600082015250565b6000613042601283612925565b915061304d8261300c565b602082019050919050565b6000602082019050818103600083015261307181613035565b9050919050565b7f46756e64732063616e206f6e6c792062652073656e74206f6e636520676f616c60008201527f20686173206265656e2072656163686564000000000000000000000000000000602082015250565b60006130d4603183612925565b91506130df82613078565b604082019050919050565b60006020820190508181036000830152613103816130c7565b9050919050565b7f4163636f756e7420616c72656164792065786973747300000000000000000000600082015250565b6000613140601683612925565b915061314b8261310a565b602082019050919050565b6000602082019050818103600083015261316f81613133565b9050919050565b7f476f616c206973206e6f206c6f6e676572206163746976650000000000000000600082015250565b60006131ac601883612925565b91506131b782613176565b602082019050919050565b600060208201905081810360008301526131db8161319f565b9050919050565b7f4d6573736167652073656e64657220697320676f616c2773206f776e65720000600082015250565b6000613218601e83612925565b9150613223826131e2565b602082019050919050565b600060208201905081810360008301526132478161320b565b9050919050565b6000613259826125cb565b9150613264836125cb565b9250827fffffffffffffffffffffffffffffffffffffffffffffffffffffffffffffffff0382111561329957613298612f29565b5b828201905092915050565b60006132af826125cb565b91506132ba836125cb565b9250817fffffffffffffffffffffffffffffffffffffffffffffffffffffffffffffffff04831182151516156132f3576132f2612f29565b5b828202905092915050565b6000613309826125cb565b91506000820361331c5761331b612f29565b5b600182039050919050565b7f537472696e67733a20686578206c656e67746820696e73756666696369656e74600082015250565b600061335d602083612925565b915061336882613327565b602082019050919050565b6000602082019050818103600083015261338c81613350565b9050919050565b600061339e826125cb565b91506133a9836125cb565b9250828210156133bc576133bb612f29565b5b82820390509291505056fea2646970667358221220d1ddbc0395527de494922b0c179b4cce9cb8069fd666f4c42accf9ce9bdfa8c364736f6c634300080f0033",
  "immutableReferences": {},
  "source": "pragma solidity >=0.4.22 <0.9.0;\r\n\r\nimport \"@openzeppelin/contracts/utils/Strings.sol\";\r\nimport \"@openzeppelin/contracts/utils/math/SafeMath.sol\";\r\n\r\ncontract Crowdfund {\r\n    using Strings for string;\r\n    using SafeMath for uint256;\r\n\r\n    event goalFunded(address indexed _from, uint256 indexed _goalId);\r\n    event goalCompleted(uint256 indexed _goalId);\r\n    event goalCreated(uint256 indexed _goalId);\r\n    event refundSent(uint256 indexed _goalId);\r\n    event debugMessage(string _message);\r\n    event debugValue(string _description, uint256 _value);\r\n    event debugBool(string _description, bool _bool);\r\n\r\n    struct Goal {\r\n        uint256 id;\r\n        uint256 maxAmount;\r\n        uint256 currentAmount;\r\n        uint256 createdAt;\r\n        uint256 deadline;\r\n        address owner;\r\n        string title;\r\n        string description;\r\n        string details;\r\n        string picture;\r\n        bool isActive;\r\n        bool exists;\r\n        address[] funderAddresses;\r\n    }\r\n\r\n    struct User {\r\n        address id;\r\n        string username;\r\n        string picture;\r\n        uint256 createdAt;\r\n        uint256 activeGoalCount;\r\n        uint256[] goals;\r\n        uint256[] goalsHelped;\r\n        bool exists;\r\n    }\r\n\r\n    mapping(address => User) accounts;\r\n    mapping(uint256 => Goal) goals;\r\n    mapping(uint256 => mapping(address => uint256)) goalFunders;\r\n\r\n    uint256 public goalNumber = 0;\r\n\r\n    modifier accountExists(address _owner) {\r\n        require(accounts[_owner].exists == true, \"Account doesn't exist\");\r\n        _;\r\n    }\r\n\r\n    modifier notOwner(address _owner) {\r\n        require(msg.sender != _owner, \"Message sender is goal's owner\");\r\n        _;\r\n    }\r\n\r\n    modifier goalExists(uint256 _goalId) {\r\n        require(goals[_goalId].exists == true, \"Goal doesn't exist\");\r\n        _;\r\n    }\r\n\r\n    modifier goalIsActive(uint256 _goalId) {\r\n        require(goals[_goalId].isActive == true, \"Goal is no longer active\");\r\n        _;\r\n    }\r\n\r\n    function createAccount(address _owner) external {\r\n        require(accounts[_owner].exists == false, \"Account already exists\");\r\n        User memory newUser;\r\n        newUser.id = _owner;\r\n        newUser.username = Strings.toHexString(uint256(uint160(_owner)), 20);\r\n        newUser.createdAt = block.timestamp;\r\n        newUser.activeGoalCount = 0;\r\n        newUser.exists = true;\r\n\r\n        accounts[_owner] = newUser;\r\n    }\r\n\r\n    function updateAccount(\r\n        address _owner,\r\n        string memory _userName,\r\n        string memory _picture\r\n    ) external accountExists(_owner) {\r\n        accounts[_owner].username = _userName;\r\n        accounts[_owner].picture = _picture;\r\n    }\r\n\r\n    function retrieveAccount(address _owner)\r\n        external\r\n        view\r\n        accountExists(_owner)\r\n        returns (\r\n            address,\r\n            string memory,\r\n            string memory,\r\n            uint256,\r\n            uint256\r\n        )\r\n    {\r\n        User memory user = accounts[_owner];\r\n\r\n        return (\r\n            user.id,\r\n            user.username,\r\n            user.picture,\r\n            user.createdAt,\r\n            user.activeGoalCount\r\n        );\r\n    }\r\n\r\n    function createGoal(\r\n        address _owner,\r\n        uint256 _maxAmount,\r\n        uint256 _deadline,\r\n        string memory _title,\r\n        string memory _description,\r\n        string memory _details,\r\n        string memory _picture\r\n    ) external accountExists(_owner) {\r\n        Goal memory newGoal;\r\n        newGoal.id = goalNumber;\r\n        newGoal.owner = _owner;\r\n        newGoal.maxAmount = _maxAmount;\r\n        newGoal.currentAmount = 0;\r\n        newGoal.createdAt = block.timestamp;\r\n        newGoal.deadline = _deadline;\r\n        newGoal.title = _title;\r\n        newGoal.description = _description;\r\n        newGoal.details = _details;\r\n        newGoal.picture = _picture;\r\n        newGoal.isActive = true;\r\n        newGoal.exists = true;\r\n\r\n        goals[goalNumber] = newGoal;\r\n        accounts[_owner].goals.push(goalNumber);\r\n        accounts[_owner].activeGoalCount = accounts[_owner].activeGoalCount.add(\r\n            1\r\n        );\r\n        goalNumber++;\r\n\r\n        emit goalCreated(newGoal.id);\r\n    }\r\n\r\n    function retrieveGoal(uint256 _goalId)\r\n        public\r\n        view\r\n        goalExists(_goalId)\r\n        returns (\r\n            uint256,\r\n            address,\r\n            string memory,\r\n            string memory,\r\n            string memory,\r\n            string memory,\r\n            uint256,\r\n            uint256,\r\n            uint256,\r\n            uint256,\r\n            bool\r\n        )\r\n    {\r\n        Goal memory goal = goals[_goalId];\r\n\r\n        return (\r\n            goal.id,\r\n            goal.owner,\r\n            goal.title,\r\n            goal.description,\r\n            goal.details,\r\n            goal.picture,\r\n            goal.createdAt,\r\n            goal.deadline,\r\n            goal.maxAmount,\r\n            goal.currentAmount,\r\n            goal.isActive\r\n        );\r\n    }\r\n\r\n    function retrieveGoalsCount(address _owner)\r\n        external\r\n        view\r\n        returns (uint256)\r\n    {\r\n        return accounts[_owner].goals.length;\r\n    }\r\n\r\n    function retrieveGoalIdByIndex(address _owner, uint256 _index)\r\n        external\r\n        view\r\n        returns (uint256)\r\n    {\r\n        return accounts[_owner].goals[_index];\r\n    }\r\n\r\n    function retrieveGoalsHelpedCount(address _owner)\r\n        external\r\n        view\r\n        returns (uint256)\r\n    {\r\n        return accounts[_owner].goalsHelped.length;\r\n    }\r\n\r\n    function retrieveGoalHelpedIdByIndex(address _owner, uint256 _index)\r\n        external\r\n        view\r\n        returns (uint256)\r\n    {\r\n        return accounts[_owner].goalsHelped[_index];\r\n    }\r\n\r\n    function retrieveFunderAddressesCount(uint256 _goalId)\r\n        external\r\n        view\r\n        returns (uint256)\r\n    {\r\n        return goals[_goalId].funderAddresses.length;\r\n    }\r\n\r\n    function retrieveFunderAddressByIndex(uint256 _goalId, uint256 _index)\r\n        external\r\n        view\r\n        returns (address)\r\n    {\r\n        return goals[_goalId].funderAddresses[_index];\r\n    }\r\n\r\n    function fundGoal(uint256 _goalId)\r\n        external\r\n        payable\r\n        accountExists(msg.sender)\r\n        goalExists(_goalId)\r\n        goalIsActive(_goalId)\r\n        notOwner(goals[_goalId].owner)\r\n    {\r\n        goals[_goalId].currentAmount = goals[_goalId].currentAmount.add(\r\n            msg.value\r\n        );\r\n\r\n        if (!isRecurringFunder(msg.sender, _goalId)) {\r\n            goals[_goalId].funderAddresses.push(msg.sender);\r\n        }\r\n\r\n        goalFunders[_goalId][msg.sender] = goalFunders[_goalId][msg.sender].add(\r\n            msg.value\r\n        );\r\n\r\n        if (!isRecurringFundee(msg.sender, _goalId)) {\r\n            accounts[msg.sender].goalsHelped.push(_goalId);\r\n        }\r\n\r\n        emit goalFunded(msg.sender, _goalId);\r\n\r\n        if (isFundCompleted(_goalId)) {\r\n            deactivateGoal(_goalId);\r\n            sendFunds(_goalId);\r\n        }\r\n    }\r\n\r\n    function sendFunds(uint256 _goalId) public payable {\r\n        require(\r\n            isFundCompleted(_goalId),\r\n            \"Funds can only be sent once goal has been reached\"\r\n        );\r\n        address _owner = goals[_goalId].owner;\r\n        address payable _account = payable(_owner);\r\n        _account.transfer(goals[_goalId].currentAmount);\r\n        emit goalCompleted(_goalId);\r\n    }\r\n\r\n    function refundFunders(uint256 _goalId) public payable {\r\n        require(\r\n            isDeadlineReached(_goalId) &&\r\n                !isFundCompleted(_goalId) &&\r\n                msg.sender == goals[_goalId].owner,\r\n            \"Deadline hasn't been reached yet\"\r\n        );\r\n        address[] memory funderAddresses = goals[_goalId].funderAddresses;\r\n        uint256 fundersCount = goals[_goalId].funderAddresses.length;\r\n        for (uint256 i = 0; i < fundersCount; i++) {\r\n            address payable _account = payable(funderAddresses[i]);\r\n            _account.transfer(goalFunders[_goalId][funderAddresses[i]]);\r\n        }\r\n\r\n        emit refundSent(_goalId);\r\n    }\r\n\r\n    function deactivateGoal(uint256 _goalId) private {\r\n        goals[_goalId].isActive = false;\r\n        accounts[goals[_goalId].owner].activeGoalCount = accounts[\r\n            goals[_goalId].owner\r\n        ].activeGoalCount.sub(1);\r\n    }\r\n\r\n    function isDeadlineReached(uint256 _goalId) private view returns (bool) {\r\n        bool res = false;\r\n        if (block.timestamp >= goals[_goalId].deadline) {\r\n            res = true;\r\n        }\r\n        return res;\r\n    }\r\n\r\n    function isFundCompleted(uint256 _goalId) private view returns (bool) {\r\n        bool res = false;\r\n        if (goals[_goalId].currentAmount >= goals[_goalId].maxAmount) {\r\n            res = true;\r\n        }\r\n\r\n        return res;\r\n    }\r\n\r\n    function isRecurringFunder(address _funder, uint256 _goalId)\r\n        private\r\n        view\r\n        returns (bool)\r\n    {\r\n        bool res = false;\r\n        uint256 funderCount = goals[_goalId].funderAddresses.length;\r\n        for (uint256 i = 0; i < funderCount; i++) {\r\n            if (goals[_goalId].funderAddresses[i] == _funder) {\r\n                res = true;\r\n                break;\r\n            }\r\n        }\r\n        return res;\r\n    }\r\n\r\n    function isRecurringFundee(address _funder, uint256 _goalId)\r\n        private\r\n        view\r\n        returns (bool)\r\n    {\r\n        bool res = false;\r\n        for (uint256 i = 0; i < accounts[_funder].goalsHelped.length; i++) {\r\n            if (accounts[_funder].goalsHelped[i] == _goalId) res = true;\r\n        }\r\n\r\n        return res;\r\n    }\r\n}\r\n",
  "sourcePath": "D:\\VSCode\\blockchain\\fundfinder\\contracts\\contracts\\Crowdfund.sol",
  "compiler": {
    "name": "solc",
    "version": "0.8.15+commit.e14f2714.Emscripten.clang"
  },
  "schemaVersion": "3.4.8",
  "updatedAt": "2022-08-17T03:21:31.219Z",
  "networkType": "ethereum",
  "devdoc": {
    "kind": "dev",
    "methods": {},
    "version": 1
  },
  "userdoc": {
    "kind": "user",
    "methods": {},
    "version": 1
  }
}