{
  "contractName": "Crowdfund",
  "abi": [
    {
      "anonymous": false,
      "inputs": [
        {
          "indexed": true,
          "internalType": "uint256",
          "name": "_goalId",
          "type": "uint256"
        }
      ],
      "name": "goalCompleted",
      "type": "event"
    },
    {
      "anonymous": false,
      "inputs": [
        {
          "indexed": true,
          "internalType": "uint256",
          "name": "_goalId",
          "type": "uint256"
        }
      ],
      "name": "goalCreated",
      "type": "event"
    },
    {
      "anonymous": false,
      "inputs": [
        {
          "indexed": true,
          "internalType": "address",
          "name": "_from",
          "type": "address"
        },
        {
          "indexed": true,
          "internalType": "uint256",
          "name": "_goalId",
          "type": "uint256"
        }
      ],
      "name": "goalFunded",
      "type": "event"
    },
    {
      "anonymous": false,
      "inputs": [
        {
          "indexed": true,
          "internalType": "uint256",
          "name": "_goalId",
          "type": "uint256"
        }
      ],
      "name": "refundSent",
      "type": "event"
    },
    {
      "inputs": [],
      "name": "goalNumber",
      "outputs": [
        {
          "internalType": "uint256",
          "name": "",
          "type": "uint256"
        }
      ],
      "stateMutability": "view",
      "type": "function"
    },
    {
      "inputs": [
        {
          "internalType": "address",
          "name": "_owner",
          "type": "address"
        }
      ],
      "name": "createAccount",
      "outputs": [],
      "stateMutability": "nonpayable",
      "type": "function"
    },
    {
      "inputs": [
        {
          "internalType": "address",
          "name": "_owner",
          "type": "address"
        },
        {
          "internalType": "string",
          "name": "_userName",
          "type": "string"
        },
        {
          "internalType": "string",
          "name": "_picture",
          "type": "string"
        }
      ],
      "name": "updateAccount",
      "outputs": [],
      "stateMutability": "nonpayable",
      "type": "function"
    },
    {
      "inputs": [
        {
          "internalType": "address",
          "name": "_owner",
          "type": "address"
        }
      ],
      "name": "retrieveAccount",
      "outputs": [
        {
          "internalType": "address",
          "name": "",
          "type": "address"
        },
        {
          "internalType": "string",
          "name": "",
          "type": "string"
        },
        {
          "internalType": "string",
          "name": "",
          "type": "string"
        },
        {
          "internalType": "uint256",
          "name": "",
          "type": "uint256"
        },
        {
          "internalType": "uint256",
          "name": "",
          "type": "uint256"
        }
      ],
      "stateMutability": "view",
      "type": "function"
    },
    {
      "inputs": [
        {
          "internalType": "address",
          "name": "_owner",
          "type": "address"
        },
        {
          "internalType": "uint256",
          "name": "_maxAmount",
          "type": "uint256"
        },
        {
          "internalType": "uint256",
          "name": "_deadline",
          "type": "uint256"
        },
        {
          "internalType": "string",
          "name": "_title",
          "type": "string"
        },
        {
          "internalType": "string",
          "name": "_description",
          "type": "string"
        },
        {
          "internalType": "string",
          "name": "_details",
          "type": "string"
        },
        {
          "internalType": "string",
          "name": "_picture",
          "type": "string"
        }
      ],
      "name": "createGoal",
      "outputs": [],
      "stateMutability": "nonpayable",
      "type": "function"
    },
    {
      "inputs": [
        {
          "internalType": "uint256",
          "name": "_goalId",
          "type": "uint256"
        }
      ],
      "name": "retrieveGoal",
      "outputs": [
        {
          "internalType": "uint256",
          "name": "",
          "type": "uint256"
        },
        {
          "internalType": "address",
          "name": "",
          "type": "address"
        },
        {
          "internalType": "string",
          "name": "",
          "type": "string"
        },
        {
          "internalType": "string",
          "name": "",
          "type": "string"
        },
        {
          "internalType": "string",
          "name": "",
          "type": "string"
        },
        {
          "internalType": "string",
          "name": "",
          "type": "string"
        },
        {
          "internalType": "uint256",
          "name": "",
          "type": "uint256"
        },
        {
          "internalType": "uint256",
          "name": "",
          "type": "uint256"
        },
        {
          "internalType": "uint256",
          "name": "",
          "type": "uint256"
        },
        {
          "internalType": "uint256",
          "name": "",
          "type": "uint256"
        },
        {
          "internalType": "bool",
          "name": "",
          "type": "bool"
        }
      ],
      "stateMutability": "view",
      "type": "function"
    },
    {
      "inputs": [
        {
          "internalType": "address",
          "name": "_owner",
          "type": "address"
        }
      ],
      "name": "retrieveGoalsCount",
      "outputs": [
        {
          "internalType": "uint256",
          "name": "",
          "type": "uint256"
        }
      ],
      "stateMutability": "view",
      "type": "function"
    },
    {
      "inputs": [
        {
          "internalType": "address",
          "name": "_owner",
          "type": "address"
        },
        {
          "internalType": "uint256",
          "name": "_index",
          "type": "uint256"
        }
      ],
      "name": "retrieveGoalIdByIndex",
      "outputs": [
        {
          "internalType": "uint256",
          "name": "",
          "type": "uint256"
        }
      ],
      "stateMutability": "view",
      "type": "function"
    },
    {
      "inputs": [
        {
          "internalType": "address",
          "name": "_owner",
          "type": "address"
        }
      ],
      "name": "retrieveGoalsHelpedCount",
      "outputs": [
        {
          "internalType": "uint256",
          "name": "",
          "type": "uint256"
        }
      ],
      "stateMutability": "view",
      "type": "function"
    },
    {
      "inputs": [
        {
          "internalType": "address",
          "name": "_owner",
          "type": "address"
        },
        {
          "internalType": "uint256",
          "name": "_index",
          "type": "uint256"
        }
      ],
      "name": "retrieveGoalHelpedIdByIndex",
      "outputs": [
        {
          "internalType": "uint256",
          "name": "",
          "type": "uint256"
        }
      ],
      "stateMutability": "view",
      "type": "function"
    },
    {
      "inputs": [
        {
          "internalType": "uint256",
          "name": "_goalId",
          "type": "uint256"
        }
      ],
      "name": "retrieveFunderAddressesCount",
      "outputs": [
        {
          "internalType": "uint256",
          "name": "",
          "type": "uint256"
        }
      ],
      "stateMutability": "view",
      "type": "function"
    },
    {
      "inputs": [
        {
          "internalType": "uint256",
          "name": "_goalId",
          "type": "uint256"
        },
        {
          "internalType": "uint256",
          "name": "_index",
          "type": "uint256"
        }
      ],
      "name": "retrieveFunderAddressByIndex",
      "outputs": [
        {
          "internalType": "address",
          "name": "",
          "type": "address"
        }
      ],
      "stateMutability": "view",
      "type": "function"
    },
    {
      "inputs": [
        {
          "internalType": "uint256",
          "name": "_goalId",
          "type": "uint256"
        }
      ],
      "name": "fundGoal",
      "outputs": [],
      "stateMutability": "payable",
      "type": "function"
    },
    {
      "inputs": [
        {
          "internalType": "uint256",
          "name": "_goalId",
          "type": "uint256"
        }
      ],
      "name": "sendFunds",
      "outputs": [],
      "stateMutability": "payable",
      "type": "function"
    },
    {
      "inputs": [
        {
          "internalType": "uint256",
          "name": "_goalId",
          "type": "uint256"
        },
        {
          "internalType": "uint256",
          "name": "_time",
          "type": "uint256"
        }
      ],
      "name": "refundFunders",
      "outputs": [],
      "stateMutability": "payable",
      "type": "function"
    }
  ],
  "bytecode": "0x6080604052600060035534801561001557600080fd5b50613420806100256000396000f3fe6080604052600436106100e85760003560e01c80639859387b1161008a578063ae304d1911610059578063ae304d1914610306578063b945606c14610343578063bd9eab6114610384578063c027fccd146103c1576100e8565b80639859387b1461025b5780639929b83f14610284578063a768f48e146102ad578063addb29fb146102c9576100e8565b8063338dfdab116100c6578063338dfdab146101925780637b09e3ca146101bb57806388f7b28d146102025780638b2810181461023f576100e8565b8063022a85bc146100ed57806326cfd8c81461012a57806332a8edf114610167575b600080fd5b3480156100f957600080fd5b50610114600480360381019061010f9190612555565b6103dd565b604051610121919061259b565b60405180910390f35b34801561013657600080fd5b50610151600480360381019061014c91906125e2565b61042b565b60405161015e9190612631565b60405180910390f35b34801561017357600080fd5b5061017c610488565b604051610189919061259b565b60405180910390f35b34801561019e57600080fd5b506101b960048036038101906101b49190612792565b61048e565b005b3480156101c757600080fd5b506101e260048036038101906101dd91906128a4565b610887565b6040516101f99b9a99989796959493929190612974565b60405180910390f35b34801561020e57600080fd5b5061022960048036038101906102249190612a3b565b610d1b565b604051610236919061259b565b60405180910390f35b610259600480360381019061025491906128a4565b610d83565b005b34801561026757600080fd5b50610282600480360381019061027d9190612555565b610e9a565b005b34801561029057600080fd5b506102ab60048036038101906102a69190612a7b565b6110e5565b005b6102c760048036038101906102c291906125e2565b61121f565b005b3480156102d557600080fd5b506102f060048036038101906102eb9190612555565b6114ae565b6040516102fd919061259b565b60405180910390f35b34801561031257600080fd5b5061032d60048036038101906103289190612a3b565b6114fc565b60405161033a919061259b565b60405180910390f35b34801561034f57600080fd5b5061036a60048036038101906103659190612555565b611564565b60405161037b959493929190612b06565b60405180910390f35b34801561039057600080fd5b506103ab60048036038101906103a691906128a4565b6118d7565b6040516103b8919061259b565b60405180910390f35b6103db60048036038101906103d691906128a4565b6118fa565b005b60008060008373ffffffffffffffffffffffffffffffffffffffff1673ffffffffffffffffffffffffffffffffffffffff168152602001908152602001600020600601805490509050919050565b600060016000848152602001908152602001600020600b01828154811061045557610454612b67565b5b9060005260206000200160009054906101000a900473ffffffffffffffffffffffffffffffffffffffff16905092915050565b60035481565b86600115156000808373ffffffffffffffffffffffffffffffffffffffff1673ffffffffffffffffffffffffffffffffffffffff16815260200190815260200160002060070160009054906101000a900460ff16151514610524576040517f08c379a000000000000000000000000000000000000000000000000000000000815260040161051b90612be2565b60405180910390fd5b61052c612310565b600354816000018181525050888160a0019073ffffffffffffffffffffffffffffffffffffffff16908173ffffffffffffffffffffffffffffffffffffffff16815250508781602001818152505060008160400181815250504281606001818152505086816080018181525050858160c00181905250848160e00181905250838161010001819052508281610120018190525060018161014001901515908115158152505060018161016001901515908115158152505080600160006003548152602001908152602001600020600082015181600001556020820151816001015560408201518160020155606082015181600301556080820151816004015560a08201518160050160006101000a81548173ffffffffffffffffffffffffffffffffffffffff021916908373ffffffffffffffffffffffffffffffffffffffff16021790555060c08201518160060190816106879190612e0e565b5060e082015181600701908161069d9190612e0e565b506101008201518160080190816106b49190612e0e565b506101208201518160090190816106cb9190612e0e565b5061014082015181600a0160006101000a81548160ff02191690831515021790555061016082015181600a0160016101000a81548160ff02191690831515021790555061018082015181600b01908051906020019061072b929190612392565b509050506000808a73ffffffffffffffffffffffffffffffffffffffff1673ffffffffffffffffffffffffffffffffffffffff16815260200190815260200160002060050160035490806001815401808255809150506001900390600052602060002001600090919091909150556107ee60016000808c73ffffffffffffffffffffffffffffffffffffffff1673ffffffffffffffffffffffffffffffffffffffff16815260200190815260200160002060040154611d6e90919063ffffffff16565b6000808b73ffffffffffffffffffffffffffffffffffffffff1673ffffffffffffffffffffffffffffffffffffffff168152602001908152602001600020600401819055506003600081548092919061084690612f0f565b919050555080600001517f77c189eb2314929aca9008b18ba4ceaab74dc71e29973493befaf3afc76afd7360405160405180910390a2505050505050505050565b60008060608060608060008060008060008b6001151560016000838152602001908152602001600020600a0160019054906101000a900460ff16151514610903576040517f08c379a00000000000000000000000000000000000000000000000000000000081526004016108fa90612fa3565b60405180910390fd5b6000600160008f8152602001908152602001600020604051806101a001604052908160008201548152602001600182015481526020016002820154815260200160038201548152602001600482015481526020016005820160009054906101000a900473ffffffffffffffffffffffffffffffffffffffff1673ffffffffffffffffffffffffffffffffffffffff1673ffffffffffffffffffffffffffffffffffffffff1681526020016006820180546109bc90612c31565b80601f01602080910402602001604051908101604052809291908181526020018280546109e890612c31565b8015610a355780601f10610a0a57610100808354040283529160200191610a35565b820191906000526020600020905b815481529060010190602001808311610a1857829003601f168201915b50505050508152602001600782018054610a4e90612c31565b80601f0160208091040260200160405190810160405280929190818152602001828054610a7a90612c31565b8015610ac75780601f10610a9c57610100808354040283529160200191610ac7565b820191906000526020600020905b815481529060010190602001808311610aaa57829003601f168201915b50505050508152602001600882018054610ae090612c31565b80601f0160208091040260200160405190810160405280929190818152602001828054610b0c90612c31565b8015610b595780601f10610b2e57610100808354040283529160200191610b59565b820191906000526020600020905b815481529060010190602001808311610b3c57829003601f168201915b50505050508152602001600982018054610b7290612c31565b80601f0160208091040260200160405190810160405280929190818152602001828054610b9e90612c31565b8015610beb5780601f10610bc057610100808354040283529160200191610beb565b820191906000526020600020905b815481529060010190602001808311610bce57829003601f168201915b50505050508152602001600a820160009054906101000a900460ff16151515158152602001600a820160019054906101000a900460ff16151515158152602001600b8201805480602002602001604051908101604052809291908181526020018280548015610caf57602002820191906000526020600020905b8160009054906101000a900473ffffffffffffffffffffffffffffffffffffffff1673ffffffffffffffffffffffffffffffffffffffff1681526020019060010190808311610c65575b505050505081525050905080600001518160a001518260c001518360e0015184610100015185610120015186606001518760800151886020015189604001518a61014001519c509c509c509c509c509c509c509c509c509c509c50505091939597999b90929496989a50565b60008060008473ffffffffffffffffffffffffffffffffffffffff1673ffffffffffffffffffffffffffffffffffffffff1681526020019081526020016000206006018281548110610d7057610d6f612b67565b5b9060005260206000200154905092915050565b610d8c81611d84565b610dcb576040517f08c379a0000000000000000000000000000000000000000000000000000000008152600401610dc290613035565b60405180910390fd5b60006001600083815260200190815260200160002060050160009054906101000a900473ffffffffffffffffffffffffffffffffffffffff16905060008190508073ffffffffffffffffffffffffffffffffffffffff166108fc60016000868152602001908152602001600020600201549081150290604051600060405180830381858888f19350505050158015610e67573d6000803e3d6000fd5b50827f0ee55c7e3cf874fa843ec5c1223737604860eb7fbea67ad58a6ba9d4f866498560405160405180910390a2505050565b600015156000808373ffffffffffffffffffffffffffffffffffffffff1673ffffffffffffffffffffffffffffffffffffffff16815260200190815260200160002060070160009054906101000a900460ff16151514610f2f576040517f08c379a0000000000000000000000000000000000000000000000000000000008152600401610f26906130a1565b60405180910390fd5b610f3761241c565b81816000019073ffffffffffffffffffffffffffffffffffffffff16908173ffffffffffffffffffffffffffffffffffffffff1681525050610f908273ffffffffffffffffffffffffffffffffffffffff166014611dcc565b816020018190525042816060018181525050600081608001818152505060018160e0019015159081151581525050806000808473ffffffffffffffffffffffffffffffffffffffff1673ffffffffffffffffffffffffffffffffffffffff16815260200190815260200160002060008201518160000160006101000a81548173ffffffffffffffffffffffffffffffffffffffff021916908373ffffffffffffffffffffffffffffffffffffffff16021790555060208201518160010190816110599190612e0e565b50604082015181600201908161106f9190612e0e565b50606082015181600301556080820151816004015560a08201518160050190805190602001906110a0929190612479565b5060c08201518160060190805190602001906110bd929190612479565b5060e08201518160070160006101000a81548160ff0219169083151502179055509050505050565b82600115156000808373ffffffffffffffffffffffffffffffffffffffff1673ffffffffffffffffffffffffffffffffffffffff16815260200190815260200160002060070160009054906101000a900460ff1615151461117b576040517f08c379a000000000000000000000000000000000000000000000000000000000815260040161117290612be2565b60405180910390fd5b826000808673ffffffffffffffffffffffffffffffffffffffff1673ffffffffffffffffffffffffffffffffffffffff16815260200190815260200160002060010190816111c99190612e0e565b50816000808673ffffffffffffffffffffffffffffffffffffffff1673ffffffffffffffffffffffffffffffffffffffff16815260200190815260200160002060020190816112189190612e0e565b5050505050565b8181600160008381526020019081526020016000206004015481101561127a576040517f08c379a00000000000000000000000000000000000000000000000000000000081526004016112719061310d565b60405180910390fd5b61128384611d84565b156112c3576040517f08c379a00000000000000000000000000000000000000000000000000000000081526004016112ba90613179565b60405180910390fd5b600060016000868152602001908152602001600020600b0180548060200260200160405190810160405280929190818152602001828054801561135b57602002820191906000526020600020905b8160009054906101000a900473ffffffffffffffffffffffffffffffffffffffff1673ffffffffffffffffffffffffffffffffffffffff1681526020019060010190808311611311575b50505050509050600060016000878152602001908152602001600020600b0180549050905060005b8181101561146f5760008382815181106113a05761139f612b67565b5b602002602001015190508073ffffffffffffffffffffffffffffffffffffffff166108fc600260008b815260200190815260200160002060008786815181106113ec576113eb612b67565b5b602002602001015173ffffffffffffffffffffffffffffffffffffffff1673ffffffffffffffffffffffffffffffffffffffff168152602001908152602001600020549081150290604051600060405180830381858888f1935050505015801561145a573d6000803e3d6000fd5b5050808061146790612f0f565b915050611383565b5061147986612008565b857f97218737de18cd311ea60521421d0ce6b38ee312c84803e7c672cbe4bac456e060405160405180910390a2505050505050565b60008060008373ffffffffffffffffffffffffffffffffffffffff1673ffffffffffffffffffffffffffffffffffffffff168152602001908152602001600020600501805490509050919050565b60008060008473ffffffffffffffffffffffffffffffffffffffff1673ffffffffffffffffffffffffffffffffffffffff168152602001908152602001600020600501828154811061155157611550612b67565b5b9060005260206000200154905092915050565b600060608060008085600115156000808373ffffffffffffffffffffffffffffffffffffffff1673ffffffffffffffffffffffffffffffffffffffff16815260200190815260200160002060070160009054906101000a900460ff16151514611602576040517f08c379a00000000000000000000000000000000000000000000000000000000081526004016115f990612be2565b60405180910390fd5b60008060008973ffffffffffffffffffffffffffffffffffffffff1673ffffffffffffffffffffffffffffffffffffffff168152602001908152602001600020604051806101000160405290816000820160009054906101000a900473ffffffffffffffffffffffffffffffffffffffff1673ffffffffffffffffffffffffffffffffffffffff1673ffffffffffffffffffffffffffffffffffffffff1681526020016001820180546116b490612c31565b80601f01602080910402602001604051908101604052809291908181526020018280546116e090612c31565b801561172d5780601f106117025761010080835404028352916020019161172d565b820191906000526020600020905b81548152906001019060200180831161171057829003601f168201915b5050505050815260200160028201805461174690612c31565b80601f016020809104026020016040519081016040528092919081815260200182805461177290612c31565b80156117bf5780601f10611794576101008083540402835291602001916117bf565b820191906000526020600020905b8154815290600101906020018083116117a257829003601f168201915b5050505050815260200160038201548152602001600482015481526020016005820180548060200260200160405190810160405280929190818152602001828054801561182b57602002820191906000526020600020905b815481526020019060010190808311611817575b505050505081526020016006820180548060200260200160405190810160405280929190818152602001828054801561188357602002820191906000526020600020905b81548152602001906001019080831161186f575b505050505081526020016007820160009054906101000a900460ff16151515158152505090508060000151816020015182604001518360600151846080015196509650965096509650505091939590929450565b600060016000838152602001908152602001600020600b01805490509050919050565b33600115156000808373ffffffffffffffffffffffffffffffffffffffff1673ffffffffffffffffffffffffffffffffffffffff16815260200190815260200160002060070160009054906101000a900460ff16151514611990576040517f08c379a000000000000000000000000000000000000000000000000000000000815260040161198790612be2565b60405180910390fd5b816001151560016000838152602001908152602001600020600a0160019054906101000a900460ff161515146119fb576040517f08c379a00000000000000000000000000000000000000000000000000000000081526004016119f290612fa3565b60405180910390fd5b826001151560016000838152602001908152602001600020600a0160009054906101000a900460ff16151514611a66576040517f08c379a0000000000000000000000000000000000000000000000000000000008152600401611a5d906131e5565b60405180910390fd5b6001600085815260200190815260200160002060050160009054906101000a900473ffffffffffffffffffffffffffffffffffffffff168073ffffffffffffffffffffffffffffffffffffffff163373ffffffffffffffffffffffffffffffffffffffff1603611b0b576040517f08c379a0000000000000000000000000000000000000000000000000000000008152600401611b0290613251565b60405180910390fd5b611b34346001600088815260200190815260200160002060020154611d6e90919063ffffffff16565b6001600087815260200190815260200160002060020181905550611b583386612140565b611bd45760016000868152602001908152602001600020600b01339080600181540180825580915050600190039060005260206000200160009091909190916101000a81548173ffffffffffffffffffffffffffffffffffffffff021916908373ffffffffffffffffffffffffffffffffffffffff1602179055505b611c37346002600088815260200190815260200160002060003373ffffffffffffffffffffffffffffffffffffffff1673ffffffffffffffffffffffffffffffffffffffff16815260200190815260200160002054611d6e90919063ffffffff16565b6002600087815260200190815260200160002060003373ffffffffffffffffffffffffffffffffffffffff1673ffffffffffffffffffffffffffffffffffffffff16815260200190815260200160002081905550611c95338661221d565b611d02576000803373ffffffffffffffffffffffffffffffffffffffff1673ffffffffffffffffffffffffffffffffffffffff1681526020019081526020016000206006018590806001815401808255809150506001900390600052602060002001600090919091909150555b843373ffffffffffffffffffffffffffffffffffffffff167f7cf2ffe49fdb179cd4e64bb1a62d5e642d749684c0de5c2cae4a877d8a4aede760405160405180910390a3611d4f85611d84565b15611d6757611d5d85612008565b611d6685610d83565b5b5050505050565b60008183611d7c9190613271565b905092915050565b600080600090506001600084815260200190815260200160002060010154600160008581526020019081526020016000206002015410611dc357600190505b80915050919050565b606060006002836002611ddf91906132c7565b611de99190613271565b67ffffffffffffffff811115611e0257611e01612667565b5b6040519080825280601f01601f191660200182016040528015611e345781602001600182028036833780820191505090505b5090507f300000000000000000000000000000000000000000000000000000000000000081600081518110611e6c57611e6b612b67565b5b60200101907effffffffffffffffffffffffffffffffffffffffffffffffffffffffffffff1916908160001a9053507f780000000000000000000000000000000000000000000000000000000000000081600181518110611ed057611ecf612b67565b5b60200101907effffffffffffffffffffffffffffffffffffffffffffffffffffffffffffff1916908160001a90535060006001846002611f1091906132c7565b611f1a9190613271565b90505b6001811115611fba577f3031323334353637383961626364656600000000000000000000000000000000600f861660108110611f5c57611f5b612b67565b5b1a60f81b828281518110611f7357611f72612b67565b5b60200101907effffffffffffffffffffffffffffffffffffffffffffffffffffffffffffff1916908160001a905350600485901c945080611fb390613321565b9050611f1d565b5060008414611ffe576040517f08c379a0000000000000000000000000000000000000000000000000000000008152600401611ff590613396565b60405180910390fd5b8091505092915050565b600060016000838152602001908152602001600020600a0160006101000a81548160ff0219169083151502179055506120c260016000806001600086815260200190815260200160002060050160009054906101000a900473ffffffffffffffffffffffffffffffffffffffff1673ffffffffffffffffffffffffffffffffffffffff1673ffffffffffffffffffffffffffffffffffffffff168152602001908152602001600020600401546122fa90919063ffffffff16565b6000806001600085815260200190815260200160002060050160009054906101000a900473ffffffffffffffffffffffffffffffffffffffff1673ffffffffffffffffffffffffffffffffffffffff1673ffffffffffffffffffffffffffffffffffffffff1681526020019081526020016000206004018190555050565b60008060009050600060016000858152602001908152602001600020600b0180549050905060005b81811015612211578573ffffffffffffffffffffffffffffffffffffffff1660016000878152602001908152602001600020600b0182815481106121af576121ae612b67565b5b9060005260206000200160009054906101000a900473ffffffffffffffffffffffffffffffffffffffff1673ffffffffffffffffffffffffffffffffffffffff16036121fe5760019250612211565b808061220990612f0f565b915050612168565b50819250505092915050565b6000806000905060005b6000808673ffffffffffffffffffffffffffffffffffffffff1673ffffffffffffffffffffffffffffffffffffffff168152602001908152602001600020600601805490508110156122ef57836000808773ffffffffffffffffffffffffffffffffffffffff1673ffffffffffffffffffffffffffffffffffffffff16815260200190815260200160002060060182815481106122c7576122c6612b67565b5b9060005260206000200154036122dc57600191505b80806122e790612f0f565b915050612227565b508091505092915050565b6000818361230891906133b6565b905092915050565b604051806101a001604052806000815260200160008152602001600081526020016000815260200160008152602001600073ffffffffffffffffffffffffffffffffffffffff16815260200160608152602001606081526020016060815260200160608152602001600015158152602001600015158152602001606081525090565b82805482825590600052602060002090810192821561240b579160200282015b8281111561240a5782518260006101000a81548173ffffffffffffffffffffffffffffffffffffffff021916908373ffffffffffffffffffffffffffffffffffffffff160217905550916020019190600101906123b2565b5b50905061241891906124c6565b5090565b604051806101000160405280600073ffffffffffffffffffffffffffffffffffffffff1681526020016060815260200160608152602001600081526020016000815260200160608152602001606081526020016000151581525090565b8280548282559060005260206000209081019282156124b5579160200282015b828111156124b4578251825591602001919060010190612499565b5b5090506124c291906124c6565b5090565b5b808211156124df5760008160009055506001016124c7565b5090565b6000604051905090565b600080fd5b600080fd5b600073ffffffffffffffffffffffffffffffffffffffff82169050919050565b6000612522826124f7565b9050919050565b61253281612517565b811461253d57600080fd5b50565b60008135905061254f81612529565b92915050565b60006020828403121561256b5761256a6124ed565b5b600061257984828501612540565b91505092915050565b6000819050919050565b61259581612582565b82525050565b60006020820190506125b0600083018461258c565b92915050565b6125bf81612582565b81146125ca57600080fd5b50565b6000813590506125dc816125b6565b92915050565b600080604083850312156125f9576125f86124ed565b5b6000612607858286016125cd565b9250506020612618858286016125cd565b9150509250929050565b61262b81612517565b82525050565b60006020820190506126466000830184612622565b92915050565b600080fd5b600080fd5b6000601f19601f8301169050919050565b7f4e487b7100000000000000000000000000000000000000000000000000000000600052604160045260246000fd5b61269f82612656565b810181811067ffffffffffffffff821117156126be576126bd612667565b5b80604052505050565b60006126d16124e3565b90506126dd8282612696565b919050565b600067ffffffffffffffff8211156126fd576126fc612667565b5b61270682612656565b9050602081019050919050565b82818337600083830152505050565b6000612735612730846126e2565b6126c7565b90508281526020810184848401111561275157612750612651565b5b61275c848285612713565b509392505050565b600082601f8301126127795761277861264c565b5b8135612789848260208601612722565b91505092915050565b600080600080600080600060e0888a0312156127b1576127b06124ed565b5b60006127bf8a828b01612540565b97505060206127d08a828b016125cd565b96505060406127e18a828b016125cd565b955050606088013567ffffffffffffffff811115612802576128016124f2565b5b61280e8a828b01612764565b945050608088013567ffffffffffffffff81111561282f5761282e6124f2565b5b61283b8a828b01612764565b93505060a088013567ffffffffffffffff81111561285c5761285b6124f2565b5b6128688a828b01612764565b92505060c088013567ffffffffffffffff811115612889576128886124f2565b5b6128958a828b01612764565b91505092959891949750929550565b6000602082840312156128ba576128b96124ed565b5b60006128c8848285016125cd565b91505092915050565b600081519050919050565b600082825260208201905092915050565b60005b8381101561290b5780820151818401526020810190506128f0565b8381111561291a576000848401525b50505050565b600061292b826128d1565b61293581856128dc565b93506129458185602086016128ed565b61294e81612656565b840191505092915050565b60008115159050919050565b61296e81612959565b82525050565b60006101608201905061298a600083018e61258c565b612997602083018d612622565b81810360408301526129a9818c612920565b905081810360608301526129bd818b612920565b905081810360808301526129d1818a612920565b905081810360a08301526129e58189612920565b90506129f460c083018861258c565b612a0160e083018761258c565b612a0f61010083018661258c565b612a1d61012083018561258c565b612a2b610140830184612965565b9c9b505050505050505050505050565b60008060408385031215612a5257612a516124ed565b5b6000612a6085828601612540565b9250506020612a71858286016125cd565b9150509250929050565b600080600060608486031215612a9457612a936124ed565b5b6000612aa286828701612540565b935050602084013567ffffffffffffffff811115612ac357612ac26124f2565b5b612acf86828701612764565b925050604084013567ffffffffffffffff811115612af057612aef6124f2565b5b612afc86828701612764565b9150509250925092565b600060a082019050612b1b6000830188612622565b8181036020830152612b2d8187612920565b90508181036040830152612b418186612920565b9050612b50606083018561258c565b612b5d608083018461258c565b9695505050505050565b7f4e487b7100000000000000000000000000000000000000000000000000000000600052603260045260246000fd5b7f4163636f756e7420646f65736e27742065786973740000000000000000000000600082015250565b6000612bcc6015836128dc565b9150612bd782612b96565b602082019050919050565b60006020820190508181036000830152612bfb81612bbf565b9050919050565b7f4e487b7100000000000000000000000000000000000000000000000000000000600052602260045260246000fd5b60006002820490506001821680612c4957607f821691505b602082108103612c5c57612c5b612c02565b5b50919050565b60008190508160005260206000209050919050565b60006020601f8301049050919050565b600082821b905092915050565b600060088302612cc47fffffffffffffffffffffffffffffffffffffffffffffffffffffffffffffffff82612c87565b612cce8683612c87565b95508019841693508086168417925050509392505050565b6000819050919050565b6000612d0b612d06612d0184612582565b612ce6565b612582565b9050919050565b6000819050919050565b612d2583612cf0565b612d39612d3182612d12565b848454612c94565b825550505050565b600090565b612d4e612d41565b612d59818484612d1c565b505050565b5b81811015612d7d57612d72600082612d46565b600181019050612d5f565b5050565b601f821115612dc257612d9381612c62565b612d9c84612c77565b81016020851015612dab578190505b612dbf612db785612c77565b830182612d5e565b50505b505050565b600082821c905092915050565b6000612de560001984600802612dc7565b1980831691505092915050565b6000612dfe8383612dd4565b9150826002028217905092915050565b612e17826128d1565b67ffffffffffffffff811115612e3057612e2f612667565b5b612e3a8254612c31565b612e45828285612d81565b600060209050601f831160018114612e785760008415612e66578287015190505b612e708582612df2565b865550612ed8565b601f198416612e8686612c62565b60005b82811015612eae57848901518255600182019150602085019450602081019050612e89565b86831015612ecb5784890151612ec7601f891682612dd4565b8355505b6001600288020188555050505b505050505050565b7f4e487b7100000000000000000000000000000000000000000000000000000000600052601160045260246000fd5b6000612f1a82612582565b91507fffffffffffffffffffffffffffffffffffffffffffffffffffffffffffffffff8203612f4c57612f4b612ee0565b5b600182019050919050565b7f476f616c20646f65736e27742065786973740000000000000000000000000000600082015250565b6000612f8d6012836128dc565b9150612f9882612f57565b602082019050919050565b60006020820190508181036000830152612fbc81612f80565b9050919050565b7f46756e64732063616e206f6e6c792062652073656e74206f6e636520676f616c60008201527f20686173206265656e2072656163686564000000000000000000000000000000602082015250565b600061301f6031836128dc565b915061302a82612fc3565b604082019050919050565b6000602082019050818103600083015261304e81613012565b9050919050565b7f4163636f756e7420616c72656164792065786973747300000000000000000000600082015250565b600061308b6016836128dc565b915061309682613055565b602082019050919050565b600060208201905081810360008301526130ba8161307e565b9050919050565b7f446561646c696e65206861736e2774206265656e207265616368656420796574600082015250565b60006130f76020836128dc565b9150613102826130c1565b602082019050919050565b60006020820190508181036000830152613126816130ea565b9050919050565b7f46756e6420697320616c726561647920636f6d706c6574650000000000000000600082015250565b60006131636018836128dc565b915061316e8261312d565b602082019050919050565b6000602082019050818103600083015261319281613156565b9050919050565b7f476f616c206973206e6f206c6f6e676572206163746976650000000000000000600082015250565b60006131cf6018836128dc565b91506131da82613199565b602082019050919050565b600060208201905081810360008301526131fe816131c2565b9050919050565b7f4d6573736167652073656e64657220697320676f616c2773206f776e65720000600082015250565b600061323b601e836128dc565b915061324682613205565b602082019050919050565b6000602082019050818103600083015261326a8161322e565b9050919050565b600061327c82612582565b915061328783612582565b9250827fffffffffffffffffffffffffffffffffffffffffffffffffffffffffffffffff038211156132bc576132bb612ee0565b5b828201905092915050565b60006132d282612582565b91506132dd83612582565b9250817fffffffffffffffffffffffffffffffffffffffffffffffffffffffffffffffff048311821515161561331657613315612ee0565b5b828202905092915050565b600061332c82612582565b91506000820361333f5761333e612ee0565b5b600182039050919050565b7f537472696e67733a20686578206c656e67746820696e73756666696369656e74600082015250565b60006133806020836128dc565b915061338b8261334a565b602082019050919050565b600060208201905081810360008301526133af81613373565b9050919050565b60006133c182612582565b91506133cc83612582565b9250828210156133df576133de612ee0565b5b82820390509291505056fea26469706673582212206a70eee50689cbc69e7e79c283340bb5f4ea71e43763f8389a31b112654aecae64736f6c634300080f0033",
  "immutableReferences": {},
  "source": "pragma solidity >=0.4.22 <0.9.0;\r\n\r\nimport \"@openzeppelin/contracts/utils/Strings.sol\";\r\nimport \"@openzeppelin/contracts/utils/math/SafeMath.sol\";\r\n\r\ncontract Crowdfund {\r\n    using Strings for string;\r\n    using SafeMath for uint256;\r\n\r\n    event goalFunded(address indexed _from, uint256 indexed _goalId);\r\n    event goalCompleted(uint256 indexed _goalId);\r\n    event goalCreated(uint256 indexed _goalId);\r\n    event refundSent(uint256 indexed _goalId);\r\n\r\n    struct Goal {\r\n        uint256 id;\r\n        uint256 maxAmount;\r\n        uint256 currentAmount;\r\n        uint256 createdAt;\r\n        uint256 deadline;\r\n        address owner;\r\n        string title;\r\n        string description;\r\n        string details;\r\n        string picture;\r\n        bool isActive;\r\n        bool exists;\r\n        address[] funderAddresses;\r\n    }\r\n\r\n    struct User {\r\n        address id;\r\n        string username;\r\n        string picture;\r\n        uint256 createdAt;\r\n        uint256 activeGoalCount;\r\n        uint256[] goals;\r\n        uint256[] goalsHelped;\r\n        bool exists;\r\n    }\r\n\r\n    mapping(address => User) accounts;\r\n    mapping(uint256 => Goal) goals;\r\n    mapping(uint256 => mapping(address => uint256)) goalFunders;\r\n\r\n    uint256 public goalNumber = 0;\r\n\r\n    modifier accountExists(address _owner) {\r\n        require(accounts[_owner].exists == true, \"Account doesn't exist\");\r\n        _;\r\n    }\r\n\r\n    modifier notOwner(address _owner) {\r\n        require(msg.sender != _owner, \"Message sender is goal's owner\");\r\n        _;\r\n    }\r\n\r\n    modifier goalExists(uint256 _goalId) {\r\n        require(goals[_goalId].exists == true, \"Goal doesn't exist\");\r\n        _;\r\n    }\r\n\r\n    modifier goalIsActive(uint256 _goalId) {\r\n        require(goals[_goalId].isActive == true, \"Goal is no longer active\");\r\n        _;\r\n    }\r\n\r\n    modifier deadlineIsReached(uint256 _goalId, uint256 _time) {\r\n        require(\r\n            _time >= goals[_goalId].deadline,\r\n            \"Deadline hasn't been reached yet\"\r\n        );\r\n        _;\r\n    }\r\n\r\n    function createAccount(address _owner) external {\r\n        require(accounts[_owner].exists == false, \"Account already exists\");\r\n        User memory newUser;\r\n        newUser.id = _owner;\r\n        newUser.username = Strings.toHexString(uint256(uint160(_owner)), 20);\r\n        newUser.createdAt = block.timestamp;\r\n        newUser.activeGoalCount = 0;\r\n        newUser.exists = true;\r\n\r\n        accounts[_owner] = newUser;\r\n    }\r\n\r\n    function updateAccount(\r\n        address _owner,\r\n        string memory _userName,\r\n        string memory _picture\r\n    ) external accountExists(_owner) {\r\n        accounts[_owner].username = _userName;\r\n        accounts[_owner].picture = _picture;\r\n    }\r\n\r\n    function retrieveAccount(address _owner)\r\n        external\r\n        view\r\n        accountExists(_owner)\r\n        returns (\r\n            address,\r\n            string memory,\r\n            string memory,\r\n            uint256,\r\n            uint256\r\n        )\r\n    {\r\n        User memory user = accounts[_owner];\r\n\r\n        return (\r\n            user.id,\r\n            user.username,\r\n            user.picture,\r\n            user.createdAt,\r\n            user.activeGoalCount\r\n        );\r\n    }\r\n\r\n    function createGoal(\r\n        address _owner,\r\n        uint256 _maxAmount,\r\n        uint256 _deadline,\r\n        string memory _title,\r\n        string memory _description,\r\n        string memory _details,\r\n        string memory _picture\r\n    ) external accountExists(_owner) {\r\n        Goal memory newGoal;\r\n        newGoal.id = goalNumber;\r\n        newGoal.owner = _owner;\r\n        newGoal.maxAmount = _maxAmount;\r\n        newGoal.currentAmount = 0;\r\n        newGoal.createdAt = block.timestamp;\r\n        newGoal.deadline = _deadline;\r\n        newGoal.title = _title;\r\n        newGoal.description = _description;\r\n        newGoal.details = _details;\r\n        newGoal.picture = _picture;\r\n        newGoal.isActive = true;\r\n        newGoal.exists = true;\r\n\r\n        goals[goalNumber] = newGoal;\r\n        accounts[_owner].goals.push(goalNumber);\r\n        accounts[_owner].activeGoalCount = accounts[_owner].activeGoalCount.add(\r\n            1\r\n        );\r\n        goalNumber++;\r\n\r\n        emit goalCreated(newGoal.id);\r\n    }\r\n\r\n    function retrieveGoal(uint256 _goalId)\r\n        public\r\n        view\r\n        goalExists(_goalId)\r\n        returns (\r\n            uint256,\r\n            address,\r\n            string memory,\r\n            string memory,\r\n            string memory,\r\n            string memory,\r\n            uint256,\r\n            uint256,\r\n            uint256,\r\n            uint256,\r\n            bool\r\n        )\r\n    {\r\n        Goal memory goal = goals[_goalId];\r\n\r\n        return (\r\n            goal.id,\r\n            goal.owner,\r\n            goal.title,\r\n            goal.description,\r\n            goal.details,\r\n            goal.picture,\r\n            goal.createdAt,\r\n            goal.deadline,\r\n            goal.maxAmount,\r\n            goal.currentAmount,\r\n            goal.isActive\r\n        );\r\n    }\r\n\r\n    function retrieveGoalsCount(address _owner)\r\n        external\r\n        view\r\n        returns (uint256)\r\n    {\r\n        return accounts[_owner].goals.length;\r\n    }\r\n\r\n    function retrieveGoalIdByIndex(address _owner, uint256 _index)\r\n        external\r\n        view\r\n        returns (uint256)\r\n    {\r\n        return accounts[_owner].goals[_index];\r\n    }\r\n\r\n    function retrieveGoalsHelpedCount(address _owner)\r\n        external\r\n        view\r\n        returns (uint256)\r\n    {\r\n        return accounts[_owner].goalsHelped.length;\r\n    }\r\n\r\n    function retrieveGoalHelpedIdByIndex(address _owner, uint256 _index)\r\n        external\r\n        view\r\n        returns (uint256)\r\n    {\r\n        return accounts[_owner].goalsHelped[_index];\r\n    }\r\n\r\n    function retrieveFunderAddressesCount(uint256 _goalId)\r\n        external\r\n        view\r\n        returns (uint256)\r\n    {\r\n        return goals[_goalId].funderAddresses.length;\r\n    }\r\n\r\n    function retrieveFunderAddressByIndex(uint256 _goalId, uint256 _index)\r\n        external\r\n        view\r\n        returns (address)\r\n    {\r\n        return goals[_goalId].funderAddresses[_index];\r\n    }\r\n\r\n    function fundGoal(uint256 _goalId)\r\n        external\r\n        payable\r\n        accountExists(msg.sender)\r\n        goalExists(_goalId)\r\n        goalIsActive(_goalId)\r\n        notOwner(goals[_goalId].owner)\r\n    {\r\n        goals[_goalId].currentAmount = goals[_goalId].currentAmount.add(\r\n            msg.value\r\n        );\r\n\r\n        if (!isRecurringFunder(msg.sender, _goalId)) {\r\n            goals[_goalId].funderAddresses.push(msg.sender);\r\n        }\r\n\r\n        goalFunders[_goalId][msg.sender] = goalFunders[_goalId][msg.sender].add(\r\n            msg.value\r\n        );\r\n\r\n        if (!isRecurringFundee(msg.sender, _goalId)) {\r\n            accounts[msg.sender].goalsHelped.push(_goalId);\r\n        }\r\n\r\n        emit goalFunded(msg.sender, _goalId);\r\n\r\n        if (isFundCompleted(_goalId)) {\r\n            deactivateGoal(_goalId);\r\n            sendFunds(_goalId);\r\n        }\r\n    }\r\n\r\n    function sendFunds(uint256 _goalId) public payable {\r\n        require(\r\n            isFundCompleted(_goalId),\r\n            \"Funds can only be sent once goal has been reached\"\r\n        );\r\n        address _owner = goals[_goalId].owner;\r\n        address payable _account = payable(_owner);\r\n        _account.transfer(goals[_goalId].currentAmount);\r\n        emit goalCompleted(_goalId);\r\n    }\r\n\r\n    function refundFunders(uint256 _goalId, uint256 _time)\r\n        public\r\n        payable\r\n        deadlineIsReached(_goalId, _time)\r\n    {\r\n        require(!isFundCompleted(_goalId), \"Fund is already complete\");\r\n        address[] memory funderAddresses = goals[_goalId].funderAddresses;\r\n        uint256 fundersCount = goals[_goalId].funderAddresses.length;\r\n        for (uint256 i = 0; i < fundersCount; i++) {\r\n            address payable _account = payable(funderAddresses[i]);\r\n            _account.transfer(goalFunders[_goalId][funderAddresses[i]]);\r\n        }\r\n\r\n        deactivateGoal(_goalId);\r\n\r\n        emit refundSent(_goalId);\r\n    }\r\n\r\n    function deactivateGoal(uint256 _goalId) private {\r\n        goals[_goalId].isActive = false;\r\n        accounts[goals[_goalId].owner].activeGoalCount = accounts[\r\n            goals[_goalId].owner\r\n        ].activeGoalCount.sub(1);\r\n    }\r\n\r\n    function isFundCompleted(uint256 _goalId) private view returns (bool) {\r\n        bool res = false;\r\n        if (goals[_goalId].currentAmount >= goals[_goalId].maxAmount) {\r\n            res = true;\r\n        }\r\n\r\n        return res;\r\n    }\r\n\r\n    function isRecurringFunder(address _funder, uint256 _goalId)\r\n        private\r\n        view\r\n        returns (bool)\r\n    {\r\n        bool res = false;\r\n        uint256 funderCount = goals[_goalId].funderAddresses.length;\r\n        for (uint256 i = 0; i < funderCount; i++) {\r\n            if (goals[_goalId].funderAddresses[i] == _funder) {\r\n                res = true;\r\n                break;\r\n            }\r\n        }\r\n        return res;\r\n    }\r\n\r\n    function isRecurringFundee(address _funder, uint256 _goalId)\r\n        private\r\n        view\r\n        returns (bool)\r\n    {\r\n        bool res = false;\r\n        for (uint256 i = 0; i < accounts[_funder].goalsHelped.length; i++) {\r\n            if (accounts[_funder].goalsHelped[i] == _goalId) res = true;\r\n        }\r\n\r\n        return res;\r\n    }\r\n}\r\n",
  "sourcePath": "D:\\VSCode\\blockchain\\fundfinder\\contracts\\contracts\\Crowdfund.sol",
  "compiler": {
    "name": "solc",
    "version": "0.8.15+commit.e14f2714.Emscripten.clang"
  },
  "schemaVersion": "3.4.8",
  "updatedAt": "2022-08-18T05:12:13.677Z",
  "devdoc": {
    "kind": "dev",
    "methods": {},
    "version": 1
  },
  "userdoc": {
    "kind": "user",
    "methods": {},
    "version": 1
  }
}